{
	"data": {
		"bytecode": {
			"linkReferences": {},
			"object": "60a060405234801562000010575f80fd5b506040516200154e3803806200154e8339810160408190526200003391620000cd565b6001600160a01b0384166080528383838360026200005284826200026b565b505f805463ffffffff191663ffffffff841617905560146200007b60ff83166201518062000333565b901b600155506200035d9650505050505050565b634e487b7160e01b5f52604160045260245ffd5b805163ffffffff81168114620000b7575f80fd5b919050565b805160ff81168114620000b7575f80fd5b5f805f8060808587031215620000e1575f80fd5b84516001600160a01b0381168114620000f8575f80fd5b602086810151919550906001600160401b038082111562000117575f80fd5b818801915088601f8301126200012b575f80fd5b8151818111156200014057620001406200008f565b604051601f8201601f19908116603f011681019083821181831017156200016b576200016b6200008f565b816040528281528b8684870101111562000183575f80fd5b5f93505b82841015620001a6578484018601518185018701529285019262000187565b5f868483010152809850505050505050620001c460408601620000a3565b9150620001d460608601620000bc565b905092959194509250565b600181811c90821680620001f457607f821691505b6020821081036200021357634e487b7160e01b5f52602260045260245ffd5b50919050565b601f82111562000266575f81815260208120601f850160051c81016020861015620002415750805b601f850160051c820191505b8181101562000262578281556001016200024d565b5050505b505050565b81516001600160401b038111156200028757620002876200008f565b6200029f81620002988454620001df565b8462000219565b602080601f831160018114620002d5575f8415620002bd5750858301515b5f19600386901b1c1916600185901b17855562000262565b5f85815260208120601f198616915b828110156200030557888601518255948401946001909101908401620002e4565b50858210156200032357878501515f19600388901b60f8161c191681555b5050505050600190811b01905550565b80820281158282048414176200035757634e487b7160e01b5f52601160045260245ffd5b92915050565b6080516111ae620003a05f395f81816101d20152818161054d015281816105ea0152818161070a015281816108eb01528181610a820152610c6c01526111ae5ff3fe608060405234801561000f575f80fd5b5060043610610153575f3560e01c806375b92aa7116100bf578063c9f72b6711610079578063c9f72b67146102f7578063ce7558dc1461030a578063d87db2831461031d578063e7723a9a14610330578063f6153ccd14610343578063f734de511461034c575f80fd5b806375b92aa714610299578063a0b22b1b146102ac578063ad46cf91146102bf578063ade041b2146102d2578063b0c2bf06146102e5578063bd245a43146102ee575f80fd5b806320a44c191161011057806320a44c191461020c5780632e80d9b61461021f5780632fcc98d01461024357806332cabf261461025657806340dee0b514610269578063587cde1e14610271575f80fd5b806306fdde03146101575780630bb3bfa8146101755780630c41963b1461018a5780630ebc6ef0146101ad57806311206c3c146101c457806311df9995146101cd575b5f80fd5b61015f610355565b60405161016c9190610e8f565b60405180910390f35b610188610183366004610ef5565b6103e1565b005b61019d610198366004610f2e565b610429565b604051901515815260200161016c565b6101b660035481565b60405190815260200161016c565b6101b660045481565b6101f47f000000000000000000000000000000000000000000000000000000000000000081565b6040516001600160a01b03909116815260200161016c565b61018861021a366004610f95565b61046e565b5f5461022e9063ffffffff1681565b60405163ffffffff909116815260200161016c565b61019d610251366004610f2e565b61054a565b6101b6610264366004610f2e565b610593565b6101b66105c7565b6101f461027f366004610f2e565b60056020525f90815260409020546001600160a01b031681565b6101886102a7366004610fdc565b610684565b61019d6102ba366004610fdc565b6106b5565b6101886102cd36600461102a565b6106f5565b6101886102e0366004610f2e565b6107cf565b6101b660015481565b6101b660085481565b6101b6610305366004610f2e565b6107fc565b6101b6610318366004610f2e565b610847565b61018861032b366004610f2e565b61095e565b6101b661033e366004610fdc565b610988565b6101b660075481565b6101b660095481565b6002805461036290611052565b80601f016020809104026020016040519081016040528092919081815260200182805461038e90611052565b80156103d95780601f106103b0576101008083540402835291602001916103d9565b820191905f5260205f20905b8154815290600101906020018083116103bc57829003601f168201915b505050505081565b6103ea3361054a565b15155f0361040b5760405163d467989960e01b815260040160405180910390fd5b5f6104168383610a3c565b9050610423848383610b62565b50505050565b6001546001600160a01b0382165f9081526006602052604081205490919061045d906001600160401b03164260141b61109e565b6001600160401b0316101592915050565b5f6104793383610bfb565b90505f805b848110801561048c57508282105b156104e8576104ca8686838181106104a6576104a66110be565b90506020020160208101906104bb9190610f2e565b6104c584866110d2565b610bfb565b6104d490836110e5565b9150806104e0816110f8565b91505061047e565b50805f036105095760405163d9b9141960e01b815260040160405180910390fd5b81816105136105c7565b61051d91906110d2565b61052791906110d2565b6001600160c01b03166003554260141b6001600160401b03166004555050505050565b5f7f00000000000000000000000000000000000000000000000000000000000000006001600160a01b0316826001600160a01b03161461058b57505f919050565b506001919050565b5f61059c6105c7565b6105a583610847565b6105b790670de0b6b3a7640000611110565b6105c1919061113b565b92915050565b5f6004546105d54260141b90565b6001600160401b03166105e891906110d2565b7f00000000000000000000000000000000000000000000000000000000000000006001600160a01b03166318160ddd6040518163ffffffff1660e01b8152600401602060405180830381865afa158015610644573d5f803e3d5ffd5b505050506040513d601f19601f82011682018060405250810190610668919061114e565b6106729190611110565b60035461067f91906110e5565b905090565b61068f8383836106b5565b15155f036106b05760405163bcfcdc1160e01b815260040160405180910390fd5b505050565b5f806106c2858585610988565b90506106cc6105c7565b5f546106de919063ffffffff16611110565b6106eb82620f4240611110565b1195945050505050565b6040516356f020d960e11b81523360048201527f00000000000000000000000000000000000000000000000000000000000000006001600160a01b03169063ade041b2906024015f6040518083038186803b158015610752575f80fd5b505afa158015610764573d5f803e3d5ffd5b505050508060075f82825461077991906110e5565b90915550506007546040516001600160a01b038416917fac17467909f103daacbc1d9dc24c20e2624f5be6442db6c14bd5ab4b5b33f5e4916107c391858252602082015260400190565b60405180910390a25050565b6107d83361054a565b15155f036107f95760405163d467989960e01b815260040160405180910390fd5b50565b6001600160a01b0381165f9081526006602052604081205460149061082c906001600160401b031642831b61109e565b6001600160401b0316901c6001600160401b03169050919050565b6001546001600160a01b0382165f9081526006602052604081205490919061087b906001600160401b03164260141b61109e565b6001600160401b0316101561089157505f919050565b6001600160a01b0382165f908152600660205260409020546108bf906001600160401b03164260141b61109e565b6040516370a0823160e01b81526001600160a01b0384811660048301526001600160401b0392909216917f000000000000000000000000000000000000000000000000000000000000000016906370a0823190602401602060405180830381865afa158015610930573d5f803e3d5ffd5b505050506040513d601f19601f82011682018060405250810190610954919061114e565b6105c19190611110565b61096781610429565b15155f036107f957604051634edf34e760e11b815260040160405180910390fd5b5f6109938383610d57565b61099b575f80fd5b5f6109a585610847565b90505f5b83811015610a33575f8585838181106109c4576109c46110be565b90506020020160208101906109d99190610f2e565b9050866001600160a01b0316816001600160a01b0316036109f8575f80fd5b610a028782610e2c565b610a0a575f80fd5b610a1381610847565b610a1d90846110e5565b9250508080610a2b906110f8565b9150506109a9565b50949350505050565b5f6001600160a01b038316610a5257505f6105c1565b5f610a5c84610847565b6040516370a0823160e01b81526001600160a01b0386811660048301529192505f9185917f0000000000000000000000000000000000000000000000000000000000000000909116906370a0823190602401602060405180830381865afa158015610ac9573d5f803e3d5ffd5b505050506040513d601f19601f82011682018060405250810190610aed919061114e565b610af791906110e5565b9050610b03818361113b565b610b19906001600160401b034260141b166110d2565b6001600160a01b0386165f908152600660205260409020805467ffffffffffffffff19166001600160401b0392909216919091179055610b598183611165565b95945050505050565b4260141b5f6001600160a01b03851615610bbb576001600160a01b0385165f908152600660205260409020548490610ba3906001600160401b03168461109e565b6001600160401b0316610bb69190611110565b610bbd565b5f5b90508281610bc96105c7565b610bd391906110d2565b610bdd91906110d2565b6001600160c01b0316600355506001600160401b0316600455505050565b5f80610c0684610847565b9050808310610c4d576001600160a01b0384165f908152600660205260409020805467ffffffffffffffff19164260141b6001600160401b031617905591508190506105c1565b6040516370a0823160e01b81526001600160a01b0385811660048301527f000000000000000000000000000000000000000000000000000000000000000016906370a0823190602401602060405180830381865afa158015610cb1573d5f803e3d5ffd5b505050506040513d601f19601f82011682018060405250810190610cd5919061114e565b610cdf84836110d2565b610ce9919061113b565b610cff906001600160401b034260141b166110d2565b6001600160a01b0385165f908152600660205260409020805467ffffffffffffffff19166001600160401b0392909216919091179055610d3e84610847565b610d4890826110d2565b9150506105c1565b5092915050565b5f60018211610d68575060016105c1565b5f83835f818110610d7b57610d7b6110be565b9050602002016020810190610d909190610f2e565b905060015b83811015610e2157816001600160a01b0316858583818110610db957610db96110be565b9050602002016020810190610dce9190610f2e565b6001600160a01b031611610de6575f925050506105c1565b848482818110610df857610df86110be565b9050602002016020810190610e0d9190610f2e565b915080610e19816110f8565b915050610d95565b5060019150506105c1565b5f826001600160a01b0316826001600160a01b031603610e4e575060016105c1565b6001600160a01b038216610e6357505f6105c1565b6001600160a01b038083165f90815260056020526040902054610e8891859116610e2c565b90506105c1565b5f6020808352835180828501525f5b81811015610eba57858101830151858201604001528201610e9e565b505f604082860101526040601f19601f8301168501019250505092915050565b80356001600160a01b0381168114610ef0575f80fd5b919050565b5f805f60608486031215610f07575f80fd5b610f1084610eda565b9250610f1e60208501610eda565b9150604084013590509250925092565b5f60208284031215610f3e575f80fd5b610f4782610eda565b9392505050565b5f8083601f840112610f5e575f80fd5b5081356001600160401b03811115610f74575f80fd5b6020830191508360208260051b8501011115610f8e575f80fd5b9250929050565b5f805f60408486031215610fa7575f80fd5b83356001600160401b03811115610fbc575f80fd5b610fc886828701610f4e565b909790965060209590950135949350505050565b5f805f60408486031215610fee575f80fd5b610ff784610eda565b925060208401356001600160401b03811115611011575f80fd5b61101d86828701610f4e565b9497909650939450505050565b5f806040838503121561103b575f80fd5b61104483610eda565b946020939093013593505050565b600181811c9082168061106657607f821691505b60208210810361108457634e487b7160e01b5f52602260045260245ffd5b50919050565b634e487b7160e01b5f52601160045260245ffd5b6001600160401b03828116828216039080821115610d5057610d5061108a565b634e487b7160e01b5f52603260045260245ffd5b818103818111156105c1576105c161108a565b808201808211156105c1576105c161108a565b5f600182016111095761110961108a565b5060010190565b80820281158282048414176105c1576105c161108a565b634e487b7160e01b5f52601260045260245ffd5b5f8261114957611149611127565b500490565b5f6020828403121561115e575f80fd5b5051919050565b5f8261117357611173611127565b50069056fea26469706673582212200783ec6ac3f548543ae4383defeb320ddc9188b101ce47403fc386400813307664736f6c63430008140033",
			"opcodes": "PUSH1 0xA0 PUSH1 0x40 MSTORE CALLVALUE DUP1 ISZERO PUSH3 0x10 JUMPI PUSH0 DUP1 REVERT JUMPDEST POP PUSH1 0x40 MLOAD PUSH3 0x154E CODESIZE SUB DUP1 PUSH3 0x154E DUP4 CODECOPY DUP2 ADD PUSH1 0x40 DUP2 SWAP1 MSTORE PUSH3 0x33 SWAP2 PUSH3 0xCD JUMP JUMPDEST PUSH1 0x1 PUSH1 0x1 PUSH1 0xA0 SHL SUB DUP5 AND PUSH1 0x80 MSTORE DUP4 DUP4 DUP4 DUP4 PUSH1 0x2 PUSH3 0x52 DUP5 DUP3 PUSH3 0x26B JUMP JUMPDEST POP PUSH0 DUP1 SLOAD PUSH4 0xFFFFFFFF NOT AND PUSH4 0xFFFFFFFF DUP5 AND OR SWAP1 SSTORE PUSH1 0x14 PUSH3 0x7B PUSH1 0xFF DUP4 AND PUSH3 0x15180 PUSH3 0x333 JUMP JUMPDEST SWAP1 SHL PUSH1 0x1 SSTORE POP PUSH3 0x35D SWAP7 POP POP POP POP POP POP POP JUMP JUMPDEST PUSH4 0x4E487B71 PUSH1 0xE0 SHL PUSH0 MSTORE PUSH1 0x41 PUSH1 0x4 MSTORE PUSH1 0x24 PUSH0 REVERT JUMPDEST DUP1 MLOAD PUSH4 0xFFFFFFFF DUP2 AND DUP2 EQ PUSH3 0xB7 JUMPI PUSH0 DUP1 REVERT JUMPDEST SWAP2 SWAP1 POP JUMP JUMPDEST DUP1 MLOAD PUSH1 0xFF DUP2 AND DUP2 EQ PUSH3 0xB7 JUMPI PUSH0 DUP1 REVERT JUMPDEST PUSH0 DUP1 PUSH0 DUP1 PUSH1 0x80 DUP6 DUP8 SUB SLT ISZERO PUSH3 0xE1 JUMPI PUSH0 DUP1 REVERT JUMPDEST DUP5 MLOAD PUSH1 0x1 PUSH1 0x1 PUSH1 0xA0 SHL SUB DUP2 AND DUP2 EQ PUSH3 0xF8 JUMPI PUSH0 DUP1 REVERT JUMPDEST PUSH1 0x20 DUP7 DUP2 ADD MLOAD SWAP2 SWAP6 POP SWAP1 PUSH1 0x1 PUSH1 0x1 PUSH1 0x40 SHL SUB DUP1 DUP3 GT ISZERO PUSH3 0x117 JUMPI PUSH0 DUP1 REVERT JUMPDEST DUP2 DUP9 ADD SWAP2 POP DUP9 PUSH1 0x1F DUP4 ADD SLT PUSH3 0x12B JUMPI PUSH0 DUP1 REVERT JUMPDEST DUP2 MLOAD DUP2 DUP2 GT ISZERO PUSH3 0x140 JUMPI PUSH3 0x140 PUSH3 0x8F JUMP JUMPDEST PUSH1 0x40 MLOAD PUSH1 0x1F DUP3 ADD PUSH1 0x1F NOT SWAP1 DUP2 AND PUSH1 0x3F ADD AND DUP2 ADD SWAP1 DUP4 DUP3 GT DUP2 DUP4 LT OR ISZERO PUSH3 0x16B JUMPI PUSH3 0x16B PUSH3 0x8F JUMP JUMPDEST DUP2 PUSH1 0x40 MSTORE DUP3 DUP2 MSTORE DUP12 DUP7 DUP5 DUP8 ADD ADD GT ISZERO PUSH3 0x183 JUMPI PUSH0 DUP1 REVERT JUMPDEST PUSH0 SWAP4 POP JUMPDEST DUP3 DUP5 LT ISZERO PUSH3 0x1A6 JUMPI DUP5 DUP5 ADD DUP7 ADD MLOAD DUP2 DUP6 ADD DUP8 ADD MSTORE SWAP3 DUP6 ADD SWAP3 PUSH3 0x187 JUMP JUMPDEST PUSH0 DUP7 DUP5 DUP4 ADD ADD MSTORE DUP1 SWAP9 POP POP POP POP POP POP POP PUSH3 0x1C4 PUSH1 0x40 DUP7 ADD PUSH3 0xA3 JUMP JUMPDEST SWAP2 POP PUSH3 0x1D4 PUSH1 0x60 DUP7 ADD PUSH3 0xBC JUMP JUMPDEST SWAP1 POP SWAP3 SWAP6 SWAP2 SWAP5 POP SWAP3 POP JUMP JUMPDEST PUSH1 0x1 DUP2 DUP2 SHR SWAP1 DUP3 AND DUP1 PUSH3 0x1F4 JUMPI PUSH1 0x7F DUP3 AND SWAP2 POP JUMPDEST PUSH1 0x20 DUP3 LT DUP2 SUB PUSH3 0x213 JUMPI PUSH4 0x4E487B71 PUSH1 0xE0 SHL PUSH0 MSTORE PUSH1 0x22 PUSH1 0x4 MSTORE PUSH1 0x24 PUSH0 REVERT JUMPDEST POP SWAP2 SWAP1 POP JUMP JUMPDEST PUSH1 0x1F DUP3 GT ISZERO PUSH3 0x266 JUMPI PUSH0 DUP2 DUP2 MSTORE PUSH1 0x20 DUP2 KECCAK256 PUSH1 0x1F DUP6 ADD PUSH1 0x5 SHR DUP2 ADD PUSH1 0x20 DUP7 LT ISZERO PUSH3 0x241 JUMPI POP DUP1 JUMPDEST PUSH1 0x1F DUP6 ADD PUSH1 0x5 SHR DUP3 ADD SWAP2 POP JUMPDEST DUP2 DUP2 LT ISZERO PUSH3 0x262 JUMPI DUP3 DUP2 SSTORE PUSH1 0x1 ADD PUSH3 0x24D JUMP JUMPDEST POP POP POP JUMPDEST POP POP POP JUMP JUMPDEST DUP2 MLOAD PUSH1 0x1 PUSH1 0x1 PUSH1 0x40 SHL SUB DUP2 GT ISZERO PUSH3 0x287 JUMPI PUSH3 0x287 PUSH3 0x8F JUMP JUMPDEST PUSH3 0x29F DUP2 PUSH3 0x298 DUP5 SLOAD PUSH3 0x1DF JUMP JUMPDEST DUP5 PUSH3 0x219 JUMP JUMPDEST PUSH1 0x20 DUP1 PUSH1 0x1F DUP4 GT PUSH1 0x1 DUP2 EQ PUSH3 0x2D5 JUMPI PUSH0 DUP5 ISZERO PUSH3 0x2BD JUMPI POP DUP6 DUP4 ADD MLOAD JUMPDEST PUSH0 NOT PUSH1 0x3 DUP7 SWAP1 SHL SHR NOT AND PUSH1 0x1 DUP6 SWAP1 SHL OR DUP6 SSTORE PUSH3 0x262 JUMP JUMPDEST PUSH0 DUP6 DUP2 MSTORE PUSH1 0x20 DUP2 KECCAK256 PUSH1 0x1F NOT DUP7 AND SWAP2 JUMPDEST DUP3 DUP2 LT ISZERO PUSH3 0x305 JUMPI DUP9 DUP7 ADD MLOAD DUP3 SSTORE SWAP5 DUP5 ADD SWAP5 PUSH1 0x1 SWAP1 SWAP2 ADD SWAP1 DUP5 ADD PUSH3 0x2E4 JUMP JUMPDEST POP DUP6 DUP3 LT ISZERO PUSH3 0x323 JUMPI DUP8 DUP6 ADD MLOAD PUSH0 NOT PUSH1 0x3 DUP9 SWAP1 SHL PUSH1 0xF8 AND SHR NOT AND DUP2 SSTORE JUMPDEST POP POP POP POP POP PUSH1 0x1 SWAP1 DUP2 SHL ADD SWAP1 SSTORE POP JUMP JUMPDEST DUP1 DUP3 MUL DUP2 ISZERO DUP3 DUP3 DIV DUP5 EQ OR PUSH3 0x357 JUMPI PUSH4 0x4E487B71 PUSH1 0xE0 SHL PUSH0 MSTORE PUSH1 0x11 PUSH1 0x4 MSTORE PUSH1 0x24 PUSH0 REVERT JUMPDEST SWAP3 SWAP2 POP POP JUMP JUMPDEST PUSH1 0x80 MLOAD PUSH2 0x11AE PUSH3 0x3A0 PUSH0 CODECOPY PUSH0 DUP2 DUP2 PUSH2 0x1D2 ADD MSTORE DUP2 DUP2 PUSH2 0x54D ADD MSTORE DUP2 DUP2 PUSH2 0x5EA ADD MSTORE DUP2 DUP2 PUSH2 0x70A ADD MSTORE DUP2 DUP2 PUSH2 0x8EB ADD MSTORE DUP2 DUP2 PUSH2 0xA82 ADD MSTORE PUSH2 0xC6C ADD MSTORE PUSH2 0x11AE PUSH0 RETURN INVALID PUSH1 0x80 PUSH1 0x40 MSTORE CALLVALUE DUP1 ISZERO PUSH2 0xF JUMPI PUSH0 DUP1 REVERT JUMPDEST POP PUSH1 0x4 CALLDATASIZE LT PUSH2 0x153 JUMPI PUSH0 CALLDATALOAD PUSH1 0xE0 SHR DUP1 PUSH4 0x75B92AA7 GT PUSH2 0xBF JUMPI DUP1 PUSH4 0xC9F72B67 GT PUSH2 0x79 JUMPI DUP1 PUSH4 0xC9F72B67 EQ PUSH2 0x2F7 JUMPI DUP1 PUSH4 0xCE7558DC EQ PUSH2 0x30A JUMPI DUP1 PUSH4 0xD87DB283 EQ PUSH2 0x31D JUMPI DUP1 PUSH4 0xE7723A9A EQ PUSH2 0x330 JUMPI DUP1 PUSH4 0xF6153CCD EQ PUSH2 0x343 JUMPI DUP1 PUSH4 0xF734DE51 EQ PUSH2 0x34C JUMPI PUSH0 DUP1 REVERT JUMPDEST DUP1 PUSH4 0x75B92AA7 EQ PUSH2 0x299 JUMPI DUP1 PUSH4 0xA0B22B1B EQ PUSH2 0x2AC JUMPI DUP1 PUSH4 0xAD46CF91 EQ PUSH2 0x2BF JUMPI DUP1 PUSH4 0xADE041B2 EQ PUSH2 0x2D2 JUMPI DUP1 PUSH4 0xB0C2BF06 EQ PUSH2 0x2E5 JUMPI DUP1 PUSH4 0xBD245A43 EQ PUSH2 0x2EE JUMPI PUSH0 DUP1 REVERT JUMPDEST DUP1 PUSH4 0x20A44C19 GT PUSH2 0x110 JUMPI DUP1 PUSH4 0x20A44C19 EQ PUSH2 0x20C JUMPI DUP1 PUSH4 0x2E80D9B6 EQ PUSH2 0x21F JUMPI DUP1 PUSH4 0x2FCC98D0 EQ PUSH2 0x243 JUMPI DUP1 PUSH4 0x32CABF26 EQ PUSH2 0x256 JUMPI DUP1 PUSH4 0x40DEE0B5 EQ PUSH2 0x269 JUMPI DUP1 PUSH4 0x587CDE1E EQ PUSH2 0x271 JUMPI PUSH0 DUP1 REVERT JUMPDEST DUP1 PUSH4 0x6FDDE03 EQ PUSH2 0x157 JUMPI DUP1 PUSH4 0xBB3BFA8 EQ PUSH2 0x175 JUMPI DUP1 PUSH4 0xC41963B EQ PUSH2 0x18A JUMPI DUP1 PUSH4 0xEBC6EF0 EQ PUSH2 0x1AD JUMPI DUP1 PUSH4 0x11206C3C EQ PUSH2 0x1C4 JUMPI DUP1 PUSH4 0x11DF9995 EQ PUSH2 0x1CD JUMPI JUMPDEST PUSH0 DUP1 REVERT JUMPDEST PUSH2 0x15F PUSH2 0x355 JUMP JUMPDEST PUSH1 0x40 MLOAD PUSH2 0x16C SWAP2 SWAP1 PUSH2 0xE8F JUMP JUMPDEST PUSH1 0x40 MLOAD DUP1 SWAP2 SUB SWAP1 RETURN JUMPDEST PUSH2 0x188 PUSH2 0x183 CALLDATASIZE PUSH1 0x4 PUSH2 0xEF5 JUMP JUMPDEST PUSH2 0x3E1 JUMP JUMPDEST STOP JUMPDEST PUSH2 0x19D PUSH2 0x198 CALLDATASIZE PUSH1 0x4 PUSH2 0xF2E JUMP JUMPDEST PUSH2 0x429 JUMP JUMPDEST PUSH1 0x40 MLOAD SWAP1 ISZERO ISZERO DUP2 MSTORE PUSH1 0x20 ADD PUSH2 0x16C JUMP JUMPDEST PUSH2 0x1B6 PUSH1 0x3 SLOAD DUP2 JUMP JUMPDEST PUSH1 0x40 MLOAD SWAP1 DUP2 MSTORE PUSH1 0x20 ADD PUSH2 0x16C JUMP JUMPDEST PUSH2 0x1B6 PUSH1 0x4 SLOAD DUP2 JUMP JUMPDEST PUSH2 0x1F4 PUSH32 0x0 DUP2 JUMP JUMPDEST PUSH1 0x40 MLOAD PUSH1 0x1 PUSH1 0x1 PUSH1 0xA0 SHL SUB SWAP1 SWAP2 AND DUP2 MSTORE PUSH1 0x20 ADD PUSH2 0x16C JUMP JUMPDEST PUSH2 0x188 PUSH2 0x21A CALLDATASIZE PUSH1 0x4 PUSH2 0xF95 JUMP JUMPDEST PUSH2 0x46E JUMP JUMPDEST PUSH0 SLOAD PUSH2 0x22E SWAP1 PUSH4 0xFFFFFFFF AND DUP2 JUMP JUMPDEST PUSH1 0x40 MLOAD PUSH4 0xFFFFFFFF SWAP1 SWAP2 AND DUP2 MSTORE PUSH1 0x20 ADD PUSH2 0x16C JUMP JUMPDEST PUSH2 0x19D PUSH2 0x251 CALLDATASIZE PUSH1 0x4 PUSH2 0xF2E JUMP JUMPDEST PUSH2 0x54A JUMP JUMPDEST PUSH2 0x1B6 PUSH2 0x264 CALLDATASIZE PUSH1 0x4 PUSH2 0xF2E JUMP JUMPDEST PUSH2 0x593 JUMP JUMPDEST PUSH2 0x1B6 PUSH2 0x5C7 JUMP JUMPDEST PUSH2 0x1F4 PUSH2 0x27F CALLDATASIZE PUSH1 0x4 PUSH2 0xF2E JUMP JUMPDEST PUSH1 0x5 PUSH1 0x20 MSTORE PUSH0 SWAP1 DUP2 MSTORE PUSH1 0x40 SWAP1 KECCAK256 SLOAD PUSH1 0x1 PUSH1 0x1 PUSH1 0xA0 SHL SUB AND DUP2 JUMP JUMPDEST PUSH2 0x188 PUSH2 0x2A7 CALLDATASIZE PUSH1 0x4 PUSH2 0xFDC JUMP JUMPDEST PUSH2 0x684 JUMP JUMPDEST PUSH2 0x19D PUSH2 0x2BA CALLDATASIZE PUSH1 0x4 PUSH2 0xFDC JUMP JUMPDEST PUSH2 0x6B5 JUMP JUMPDEST PUSH2 0x188 PUSH2 0x2CD CALLDATASIZE PUSH1 0x4 PUSH2 0x102A JUMP JUMPDEST PUSH2 0x6F5 JUMP JUMPDEST PUSH2 0x188 PUSH2 0x2E0 CALLDATASIZE PUSH1 0x4 PUSH2 0xF2E JUMP JUMPDEST PUSH2 0x7CF JUMP JUMPDEST PUSH2 0x1B6 PUSH1 0x1 SLOAD DUP2 JUMP JUMPDEST PUSH2 0x1B6 PUSH1 0x8 SLOAD DUP2 JUMP JUMPDEST PUSH2 0x1B6 PUSH2 0x305 CALLDATASIZE PUSH1 0x4 PUSH2 0xF2E JUMP JUMPDEST PUSH2 0x7FC JUMP JUMPDEST PUSH2 0x1B6 PUSH2 0x318 CALLDATASIZE PUSH1 0x4 PUSH2 0xF2E JUMP JUMPDEST PUSH2 0x847 JUMP JUMPDEST PUSH2 0x188 PUSH2 0x32B CALLDATASIZE PUSH1 0x4 PUSH2 0xF2E JUMP JUMPDEST PUSH2 0x95E JUMP JUMPDEST PUSH2 0x1B6 PUSH2 0x33E CALLDATASIZE PUSH1 0x4 PUSH2 0xFDC JUMP JUMPDEST PUSH2 0x988 JUMP JUMPDEST PUSH2 0x1B6 PUSH1 0x7 SLOAD DUP2 JUMP JUMPDEST PUSH2 0x1B6 PUSH1 0x9 SLOAD DUP2 JUMP JUMPDEST PUSH1 0x2 DUP1 SLOAD PUSH2 0x362 SWAP1 PUSH2 0x1052 JUMP JUMPDEST DUP1 PUSH1 0x1F ADD PUSH1 0x20 DUP1 SWAP2 DIV MUL PUSH1 0x20 ADD PUSH1 0x40 MLOAD SWAP1 DUP2 ADD PUSH1 0x40 MSTORE DUP1 SWAP3 SWAP2 SWAP1 DUP2 DUP2 MSTORE PUSH1 0x20 ADD DUP3 DUP1 SLOAD PUSH2 0x38E SWAP1 PUSH2 0x1052 JUMP JUMPDEST DUP1 ISZERO PUSH2 0x3D9 JUMPI DUP1 PUSH1 0x1F LT PUSH2 0x3B0 JUMPI PUSH2 0x100 DUP1 DUP4 SLOAD DIV MUL DUP4 MSTORE SWAP2 PUSH1 0x20 ADD SWAP2 PUSH2 0x3D9 JUMP JUMPDEST DUP3 ADD SWAP2 SWAP1 PUSH0 MSTORE PUSH1 0x20 PUSH0 KECCAK256 SWAP1 JUMPDEST DUP2 SLOAD DUP2 MSTORE SWAP1 PUSH1 0x1 ADD SWAP1 PUSH1 0x20 ADD DUP1 DUP4 GT PUSH2 0x3BC JUMPI DUP3 SWAP1 SUB PUSH1 0x1F AND DUP3 ADD SWAP2 JUMPDEST POP POP POP POP POP DUP2 JUMP JUMPDEST PUSH2 0x3EA CALLER PUSH2 0x54A JUMP JUMPDEST ISZERO ISZERO PUSH0 SUB PUSH2 0x40B JUMPI PUSH1 0x40 MLOAD PUSH4 0xD4679899 PUSH1 0xE0 SHL DUP2 MSTORE PUSH1 0x4 ADD PUSH1 0x40 MLOAD DUP1 SWAP2 SUB SWAP1 REVERT JUMPDEST PUSH0 PUSH2 0x416 DUP4 DUP4 PUSH2 0xA3C JUMP JUMPDEST SWAP1 POP PUSH2 0x423 DUP5 DUP4 DUP4 PUSH2 0xB62 JUMP JUMPDEST POP POP POP POP JUMP JUMPDEST PUSH1 0x1 SLOAD PUSH1 0x1 PUSH1 0x1 PUSH1 0xA0 SHL SUB DUP3 AND PUSH0 SWAP1 DUP2 MSTORE PUSH1 0x6 PUSH1 0x20 MSTORE PUSH1 0x40 DUP2 KECCAK256 SLOAD SWAP1 SWAP2 SWAP1 PUSH2 0x45D SWAP1 PUSH1 0x1 PUSH1 0x1 PUSH1 0x40 SHL SUB AND TIMESTAMP PUSH1 0x14 SHL PUSH2 0x109E JUMP JUMPDEST PUSH1 0x1 PUSH1 0x1 PUSH1 0x40 SHL SUB AND LT ISZERO SWAP3 SWAP2 POP POP JUMP JUMPDEST PUSH0 PUSH2 0x479 CALLER DUP4 PUSH2 0xBFB JUMP JUMPDEST SWAP1 POP PUSH0 DUP1 JUMPDEST DUP5 DUP2 LT DUP1 ISZERO PUSH2 0x48C JUMPI POP DUP3 DUP3 LT JUMPDEST ISZERO PUSH2 0x4E8 JUMPI PUSH2 0x4CA DUP7 DUP7 DUP4 DUP2 DUP2 LT PUSH2 0x4A6 JUMPI PUSH2 0x4A6 PUSH2 0x10BE JUMP JUMPDEST SWAP1 POP PUSH1 0x20 MUL ADD PUSH1 0x20 DUP2 ADD SWAP1 PUSH2 0x4BB SWAP2 SWAP1 PUSH2 0xF2E JUMP JUMPDEST PUSH2 0x4C5 DUP5 DUP7 PUSH2 0x10D2 JUMP JUMPDEST PUSH2 0xBFB JUMP JUMPDEST PUSH2 0x4D4 SWAP1 DUP4 PUSH2 0x10E5 JUMP JUMPDEST SWAP2 POP DUP1 PUSH2 0x4E0 DUP2 PUSH2 0x10F8 JUMP JUMPDEST SWAP2 POP POP PUSH2 0x47E JUMP JUMPDEST POP DUP1 PUSH0 SUB PUSH2 0x509 JUMPI PUSH1 0x40 MLOAD PUSH4 0xD9B91419 PUSH1 0xE0 SHL DUP2 MSTORE PUSH1 0x4 ADD PUSH1 0x40 MLOAD DUP1 SWAP2 SUB SWAP1 REVERT JUMPDEST DUP2 DUP2 PUSH2 0x513 PUSH2 0x5C7 JUMP JUMPDEST PUSH2 0x51D SWAP2 SWAP1 PUSH2 0x10D2 JUMP JUMPDEST PUSH2 0x527 SWAP2 SWAP1 PUSH2 0x10D2 JUMP JUMPDEST PUSH1 0x1 PUSH1 0x1 PUSH1 0xC0 SHL SUB AND PUSH1 0x3 SSTORE TIMESTAMP PUSH1 0x14 SHL PUSH1 0x1 PUSH1 0x1 PUSH1 0x40 SHL SUB AND PUSH1 0x4 SSTORE POP POP POP POP POP JUMP JUMPDEST PUSH0 PUSH32 0x0 PUSH1 0x1 PUSH1 0x1 PUSH1 0xA0 SHL SUB AND DUP3 PUSH1 0x1 PUSH1 0x1 PUSH1 0xA0 SHL SUB AND EQ PUSH2 0x58B JUMPI POP PUSH0 SWAP2 SWAP1 POP JUMP JUMPDEST POP PUSH1 0x1 SWAP2 SWAP1 POP JUMP JUMPDEST PUSH0 PUSH2 0x59C PUSH2 0x5C7 JUMP JUMPDEST PUSH2 0x5A5 DUP4 PUSH2 0x847 JUMP JUMPDEST PUSH2 0x5B7 SWAP1 PUSH8 0xDE0B6B3A7640000 PUSH2 0x1110 JUMP JUMPDEST PUSH2 0x5C1 SWAP2 SWAP1 PUSH2 0x113B JUMP JUMPDEST SWAP3 SWAP2 POP POP JUMP JUMPDEST PUSH0 PUSH1 0x4 SLOAD PUSH2 0x5D5 TIMESTAMP PUSH1 0x14 SHL SWAP1 JUMP JUMPDEST PUSH1 0x1 PUSH1 0x1 PUSH1 0x40 SHL SUB AND PUSH2 0x5E8 SWAP2 SWAP1 PUSH2 0x10D2 JUMP JUMPDEST PUSH32 0x0 PUSH1 0x1 PUSH1 0x1 PUSH1 0xA0 SHL SUB AND PUSH4 0x18160DDD PUSH1 0x40 MLOAD DUP2 PUSH4 0xFFFFFFFF AND PUSH1 0xE0 SHL DUP2 MSTORE PUSH1 0x4 ADD PUSH1 0x20 PUSH1 0x40 MLOAD DUP1 DUP4 SUB DUP2 DUP7 GAS STATICCALL ISZERO DUP1 ISZERO PUSH2 0x644 JUMPI RETURNDATASIZE PUSH0 DUP1 RETURNDATACOPY RETURNDATASIZE PUSH0 REVERT JUMPDEST POP POP POP POP PUSH1 0x40 MLOAD RETURNDATASIZE PUSH1 0x1F NOT PUSH1 0x1F DUP3 ADD AND DUP3 ADD DUP1 PUSH1 0x40 MSTORE POP DUP2 ADD SWAP1 PUSH2 0x668 SWAP2 SWAP1 PUSH2 0x114E JUMP JUMPDEST PUSH2 0x672 SWAP2 SWAP1 PUSH2 0x1110 JUMP JUMPDEST PUSH1 0x3 SLOAD PUSH2 0x67F SWAP2 SWAP1 PUSH2 0x10E5 JUMP JUMPDEST SWAP1 POP SWAP1 JUMP JUMPDEST PUSH2 0x68F DUP4 DUP4 DUP4 PUSH2 0x6B5 JUMP JUMPDEST ISZERO ISZERO PUSH0 SUB PUSH2 0x6B0 JUMPI PUSH1 0x40 MLOAD PUSH4 0xBCFCDC11 PUSH1 0xE0 SHL DUP2 MSTORE PUSH1 0x4 ADD PUSH1 0x40 MLOAD DUP1 SWAP2 SUB SWAP1 REVERT JUMPDEST POP POP POP JUMP JUMPDEST PUSH0 DUP1 PUSH2 0x6C2 DUP6 DUP6 DUP6 PUSH2 0x988 JUMP JUMPDEST SWAP1 POP PUSH2 0x6CC PUSH2 0x5C7 JUMP JUMPDEST PUSH0 SLOAD PUSH2 0x6DE SWAP2 SWAP1 PUSH4 0xFFFFFFFF AND PUSH2 0x1110 JUMP JUMPDEST PUSH2 0x6EB DUP3 PUSH3 0xF4240 PUSH2 0x1110 JUMP JUMPDEST GT SWAP6 SWAP5 POP POP POP POP POP JUMP JUMPDEST PUSH1 0x40 MLOAD PUSH4 0x56F020D9 PUSH1 0xE1 SHL DUP2 MSTORE CALLER PUSH1 0x4 DUP3 ADD MSTORE PUSH32 0x0 PUSH1 0x1 PUSH1 0x1 PUSH1 0xA0 SHL SUB AND SWAP1 PUSH4 0xADE041B2 SWAP1 PUSH1 0x24 ADD PUSH0 PUSH1 0x40 MLOAD DUP1 DUP4 SUB DUP2 DUP7 DUP1 EXTCODESIZE ISZERO DUP1 ISZERO PUSH2 0x752 JUMPI PUSH0 DUP1 REVERT JUMPDEST POP GAS STATICCALL ISZERO DUP1 ISZERO PUSH2 0x764 JUMPI RETURNDATASIZE PUSH0 DUP1 RETURNDATACOPY RETURNDATASIZE PUSH0 REVERT JUMPDEST POP POP POP POP DUP1 PUSH1 0x7 PUSH0 DUP3 DUP3 SLOAD PUSH2 0x779 SWAP2 SWAP1 PUSH2 0x10E5 JUMP JUMPDEST SWAP1 SWAP2 SSTORE POP POP PUSH1 0x7 SLOAD PUSH1 0x40 MLOAD PUSH1 0x1 PUSH1 0x1 PUSH1 0xA0 SHL SUB DUP5 AND SWAP2 PUSH32 0xAC17467909F103DAACBC1D9DC24C20E2624F5BE6442DB6C14BD5AB4B5B33F5E4 SWAP2 PUSH2 0x7C3 SWAP2 DUP6 DUP3 MSTORE PUSH1 0x20 DUP3 ADD MSTORE PUSH1 0x40 ADD SWAP1 JUMP JUMPDEST PUSH1 0x40 MLOAD DUP1 SWAP2 SUB SWAP1 LOG2 POP POP JUMP JUMPDEST PUSH2 0x7D8 CALLER PUSH2 0x54A JUMP JUMPDEST ISZERO ISZERO PUSH0 SUB PUSH2 0x7F9 JUMPI PUSH1 0x40 MLOAD PUSH4 0xD4679899 PUSH1 0xE0 SHL DUP2 MSTORE PUSH1 0x4 ADD PUSH1 0x40 MLOAD DUP1 SWAP2 SUB SWAP1 REVERT JUMPDEST POP JUMP JUMPDEST PUSH1 0x1 PUSH1 0x1 PUSH1 0xA0 SHL SUB DUP2 AND PUSH0 SWAP1 DUP2 MSTORE PUSH1 0x6 PUSH1 0x20 MSTORE PUSH1 0x40 DUP2 KECCAK256 SLOAD PUSH1 0x14 SWAP1 PUSH2 0x82C SWAP1 PUSH1 0x1 PUSH1 0x1 PUSH1 0x40 SHL SUB AND TIMESTAMP DUP4 SHL PUSH2 0x109E JUMP JUMPDEST PUSH1 0x1 PUSH1 0x1 PUSH1 0x40 SHL SUB AND SWAP1 SHR PUSH1 0x1 PUSH1 0x1 PUSH1 0x40 SHL SUB AND SWAP1 POP SWAP2 SWAP1 POP JUMP JUMPDEST PUSH1 0x1 SLOAD PUSH1 0x1 PUSH1 0x1 PUSH1 0xA0 SHL SUB DUP3 AND PUSH0 SWAP1 DUP2 MSTORE PUSH1 0x6 PUSH1 0x20 MSTORE PUSH1 0x40 DUP2 KECCAK256 SLOAD SWAP1 SWAP2 SWAP1 PUSH2 0x87B SWAP1 PUSH1 0x1 PUSH1 0x1 PUSH1 0x40 SHL SUB AND TIMESTAMP PUSH1 0x14 SHL PUSH2 0x109E JUMP JUMPDEST PUSH1 0x1 PUSH1 0x1 PUSH1 0x40 SHL SUB AND LT ISZERO PUSH2 0x891 JUMPI POP PUSH0 SWAP2 SWAP1 POP JUMP JUMPDEST PUSH1 0x1 PUSH1 0x1 PUSH1 0xA0 SHL SUB DUP3 AND PUSH0 SWAP1 DUP2 MSTORE PUSH1 0x6 PUSH1 0x20 MSTORE PUSH1 0x40 SWAP1 KECCAK256 SLOAD PUSH2 0x8BF SWAP1 PUSH1 0x1 PUSH1 0x1 PUSH1 0x40 SHL SUB AND TIMESTAMP PUSH1 0x14 SHL PUSH2 0x109E JUMP JUMPDEST PUSH1 0x40 MLOAD PUSH4 0x70A08231 PUSH1 0xE0 SHL DUP2 MSTORE PUSH1 0x1 PUSH1 0x1 PUSH1 0xA0 SHL SUB DUP5 DUP2 AND PUSH1 0x4 DUP4 ADD MSTORE PUSH1 0x1 PUSH1 0x1 PUSH1 0x40 SHL SUB SWAP3 SWAP1 SWAP3 AND SWAP2 PUSH32 0x0 AND SWAP1 PUSH4 0x70A08231 SWAP1 PUSH1 0x24 ADD PUSH1 0x20 PUSH1 0x40 MLOAD DUP1 DUP4 SUB DUP2 DUP7 GAS STATICCALL ISZERO DUP1 ISZERO PUSH2 0x930 JUMPI RETURNDATASIZE PUSH0 DUP1 RETURNDATACOPY RETURNDATASIZE PUSH0 REVERT JUMPDEST POP POP POP POP PUSH1 0x40 MLOAD RETURNDATASIZE PUSH1 0x1F NOT PUSH1 0x1F DUP3 ADD AND DUP3 ADD DUP1 PUSH1 0x40 MSTORE POP DUP2 ADD SWAP1 PUSH2 0x954 SWAP2 SWAP1 PUSH2 0x114E JUMP JUMPDEST PUSH2 0x5C1 SWAP2 SWAP1 PUSH2 0x1110 JUMP JUMPDEST PUSH2 0x967 DUP2 PUSH2 0x429 JUMP JUMPDEST ISZERO ISZERO PUSH0 SUB PUSH2 0x7F9 JUMPI PUSH1 0x40 MLOAD PUSH4 0x4EDF34E7 PUSH1 0xE1 SHL DUP2 MSTORE PUSH1 0x4 ADD PUSH1 0x40 MLOAD DUP1 SWAP2 SUB SWAP1 REVERT JUMPDEST PUSH0 PUSH2 0x993 DUP4 DUP4 PUSH2 0xD57 JUMP JUMPDEST PUSH2 0x99B JUMPI PUSH0 DUP1 REVERT JUMPDEST PUSH0 PUSH2 0x9A5 DUP6 PUSH2 0x847 JUMP JUMPDEST SWAP1 POP PUSH0 JUMPDEST DUP4 DUP2 LT ISZERO PUSH2 0xA33 JUMPI PUSH0 DUP6 DUP6 DUP4 DUP2 DUP2 LT PUSH2 0x9C4 JUMPI PUSH2 0x9C4 PUSH2 0x10BE JUMP JUMPDEST SWAP1 POP PUSH1 0x20 MUL ADD PUSH1 0x20 DUP2 ADD SWAP1 PUSH2 0x9D9 SWAP2 SWAP1 PUSH2 0xF2E JUMP JUMPDEST SWAP1 POP DUP7 PUSH1 0x1 PUSH1 0x1 PUSH1 0xA0 SHL SUB AND DUP2 PUSH1 0x1 PUSH1 0x1 PUSH1 0xA0 SHL SUB AND SUB PUSH2 0x9F8 JUMPI PUSH0 DUP1 REVERT JUMPDEST PUSH2 0xA02 DUP8 DUP3 PUSH2 0xE2C JUMP JUMPDEST PUSH2 0xA0A JUMPI PUSH0 DUP1 REVERT JUMPDEST PUSH2 0xA13 DUP2 PUSH2 0x847 JUMP JUMPDEST PUSH2 0xA1D SWAP1 DUP5 PUSH2 0x10E5 JUMP JUMPDEST SWAP3 POP POP DUP1 DUP1 PUSH2 0xA2B SWAP1 PUSH2 0x10F8 JUMP JUMPDEST SWAP2 POP POP PUSH2 0x9A9 JUMP JUMPDEST POP SWAP5 SWAP4 POP POP POP POP JUMP JUMPDEST PUSH0 PUSH1 0x1 PUSH1 0x1 PUSH1 0xA0 SHL SUB DUP4 AND PUSH2 0xA52 JUMPI POP PUSH0 PUSH2 0x5C1 JUMP JUMPDEST PUSH0 PUSH2 0xA5C DUP5 PUSH2 0x847 JUMP JUMPDEST PUSH1 0x40 MLOAD PUSH4 0x70A08231 PUSH1 0xE0 SHL DUP2 MSTORE PUSH1 0x1 PUSH1 0x1 PUSH1 0xA0 SHL SUB DUP7 DUP2 AND PUSH1 0x4 DUP4 ADD MSTORE SWAP2 SWAP3 POP PUSH0 SWAP2 DUP6 SWAP2 PUSH32 0x0 SWAP1 SWAP2 AND SWAP1 PUSH4 0x70A08231 SWAP1 PUSH1 0x24 ADD PUSH1 0x20 PUSH1 0x40 MLOAD DUP1 DUP4 SUB DUP2 DUP7 GAS STATICCALL ISZERO DUP1 ISZERO PUSH2 0xAC9 JUMPI RETURNDATASIZE PUSH0 DUP1 RETURNDATACOPY RETURNDATASIZE PUSH0 REVERT JUMPDEST POP POP POP POP PUSH1 0x40 MLOAD RETURNDATASIZE PUSH1 0x1F NOT PUSH1 0x1F DUP3 ADD AND DUP3 ADD DUP1 PUSH1 0x40 MSTORE POP DUP2 ADD SWAP1 PUSH2 0xAED SWAP2 SWAP1 PUSH2 0x114E JUMP JUMPDEST PUSH2 0xAF7 SWAP2 SWAP1 PUSH2 0x10E5 JUMP JUMPDEST SWAP1 POP PUSH2 0xB03 DUP2 DUP4 PUSH2 0x113B JUMP JUMPDEST PUSH2 0xB19 SWAP1 PUSH1 0x1 PUSH1 0x1 PUSH1 0x40 SHL SUB TIMESTAMP PUSH1 0x14 SHL AND PUSH2 0x10D2 JUMP JUMPDEST PUSH1 0x1 PUSH1 0x1 PUSH1 0xA0 SHL SUB DUP7 AND PUSH0 SWAP1 DUP2 MSTORE PUSH1 0x6 PUSH1 0x20 MSTORE PUSH1 0x40 SWAP1 KECCAK256 DUP1 SLOAD PUSH8 0xFFFFFFFFFFFFFFFF NOT AND PUSH1 0x1 PUSH1 0x1 PUSH1 0x40 SHL SUB SWAP3 SWAP1 SWAP3 AND SWAP2 SWAP1 SWAP2 OR SWAP1 SSTORE PUSH2 0xB59 DUP2 DUP4 PUSH2 0x1165 JUMP JUMPDEST SWAP6 SWAP5 POP POP POP POP POP JUMP JUMPDEST TIMESTAMP PUSH1 0x14 SHL PUSH0 PUSH1 0x1 PUSH1 0x1 PUSH1 0xA0 SHL SUB DUP6 AND ISZERO PUSH2 0xBBB JUMPI PUSH1 0x1 PUSH1 0x1 PUSH1 0xA0 SHL SUB DUP6 AND PUSH0 SWAP1 DUP2 MSTORE PUSH1 0x6 PUSH1 0x20 MSTORE PUSH1 0x40 SWAP1 KECCAK256 SLOAD DUP5 SWAP1 PUSH2 0xBA3 SWAP1 PUSH1 0x1 PUSH1 0x1 PUSH1 0x40 SHL SUB AND DUP5 PUSH2 0x109E JUMP JUMPDEST PUSH1 0x1 PUSH1 0x1 PUSH1 0x40 SHL SUB AND PUSH2 0xBB6 SWAP2 SWAP1 PUSH2 0x1110 JUMP JUMPDEST PUSH2 0xBBD JUMP JUMPDEST PUSH0 JUMPDEST SWAP1 POP DUP3 DUP2 PUSH2 0xBC9 PUSH2 0x5C7 JUMP JUMPDEST PUSH2 0xBD3 SWAP2 SWAP1 PUSH2 0x10D2 JUMP JUMPDEST PUSH2 0xBDD SWAP2 SWAP1 PUSH2 0x10D2 JUMP JUMPDEST PUSH1 0x1 PUSH1 0x1 PUSH1 0xC0 SHL SUB AND PUSH1 0x3 SSTORE POP PUSH1 0x1 PUSH1 0x1 PUSH1 0x40 SHL SUB AND PUSH1 0x4 SSTORE POP POP POP JUMP JUMPDEST PUSH0 DUP1 PUSH2 0xC06 DUP5 PUSH2 0x847 JUMP JUMPDEST SWAP1 POP DUP1 DUP4 LT PUSH2 0xC4D JUMPI PUSH1 0x1 PUSH1 0x1 PUSH1 0xA0 SHL SUB DUP5 AND PUSH0 SWAP1 DUP2 MSTORE PUSH1 0x6 PUSH1 0x20 MSTORE PUSH1 0x40 SWAP1 KECCAK256 DUP1 SLOAD PUSH8 0xFFFFFFFFFFFFFFFF NOT AND TIMESTAMP PUSH1 0x14 SHL PUSH1 0x1 PUSH1 0x1 PUSH1 0x40 SHL SUB AND OR SWAP1 SSTORE SWAP2 POP DUP2 SWAP1 POP PUSH2 0x5C1 JUMP JUMPDEST PUSH1 0x40 MLOAD PUSH4 0x70A08231 PUSH1 0xE0 SHL DUP2 MSTORE PUSH1 0x1 PUSH1 0x1 PUSH1 0xA0 SHL SUB DUP6 DUP2 AND PUSH1 0x4 DUP4 ADD MSTORE PUSH32 0x0 AND SWAP1 PUSH4 0x70A08231 SWAP1 PUSH1 0x24 ADD PUSH1 0x20 PUSH1 0x40 MLOAD DUP1 DUP4 SUB DUP2 DUP7 GAS STATICCALL ISZERO DUP1 ISZERO PUSH2 0xCB1 JUMPI RETURNDATASIZE PUSH0 DUP1 RETURNDATACOPY RETURNDATASIZE PUSH0 REVERT JUMPDEST POP POP POP POP PUSH1 0x40 MLOAD RETURNDATASIZE PUSH1 0x1F NOT PUSH1 0x1F DUP3 ADD AND DUP3 ADD DUP1 PUSH1 0x40 MSTORE POP DUP2 ADD SWAP1 PUSH2 0xCD5 SWAP2 SWAP1 PUSH2 0x114E JUMP JUMPDEST PUSH2 0xCDF DUP5 DUP4 PUSH2 0x10D2 JUMP JUMPDEST PUSH2 0xCE9 SWAP2 SWAP1 PUSH2 0x113B JUMP JUMPDEST PUSH2 0xCFF SWAP1 PUSH1 0x1 PUSH1 0x1 PUSH1 0x40 SHL SUB TIMESTAMP PUSH1 0x14 SHL AND PUSH2 0x10D2 JUMP JUMPDEST PUSH1 0x1 PUSH1 0x1 PUSH1 0xA0 SHL SUB DUP6 AND PUSH0 SWAP1 DUP2 MSTORE PUSH1 0x6 PUSH1 0x20 MSTORE PUSH1 0x40 SWAP1 KECCAK256 DUP1 SLOAD PUSH8 0xFFFFFFFFFFFFFFFF NOT AND PUSH1 0x1 PUSH1 0x1 PUSH1 0x40 SHL SUB SWAP3 SWAP1 SWAP3 AND SWAP2 SWAP1 SWAP2 OR SWAP1 SSTORE PUSH2 0xD3E DUP5 PUSH2 0x847 JUMP JUMPDEST PUSH2 0xD48 SWAP1 DUP3 PUSH2 0x10D2 JUMP JUMPDEST SWAP2 POP POP PUSH2 0x5C1 JUMP JUMPDEST POP SWAP3 SWAP2 POP POP JUMP JUMPDEST PUSH0 PUSH1 0x1 DUP3 GT PUSH2 0xD68 JUMPI POP PUSH1 0x1 PUSH2 0x5C1 JUMP JUMPDEST PUSH0 DUP4 DUP4 PUSH0 DUP2 DUP2 LT PUSH2 0xD7B JUMPI PUSH2 0xD7B PUSH2 0x10BE JUMP JUMPDEST SWAP1 POP PUSH1 0x20 MUL ADD PUSH1 0x20 DUP2 ADD SWAP1 PUSH2 0xD90 SWAP2 SWAP1 PUSH2 0xF2E JUMP JUMPDEST SWAP1 POP PUSH1 0x1 JUMPDEST DUP4 DUP2 LT ISZERO PUSH2 0xE21 JUMPI DUP2 PUSH1 0x1 PUSH1 0x1 PUSH1 0xA0 SHL SUB AND DUP6 DUP6 DUP4 DUP2 DUP2 LT PUSH2 0xDB9 JUMPI PUSH2 0xDB9 PUSH2 0x10BE JUMP JUMPDEST SWAP1 POP PUSH1 0x20 MUL ADD PUSH1 0x20 DUP2 ADD SWAP1 PUSH2 0xDCE SWAP2 SWAP1 PUSH2 0xF2E JUMP JUMPDEST PUSH1 0x1 PUSH1 0x1 PUSH1 0xA0 SHL SUB AND GT PUSH2 0xDE6 JUMPI PUSH0 SWAP3 POP POP POP PUSH2 0x5C1 JUMP JUMPDEST DUP5 DUP5 DUP3 DUP2 DUP2 LT PUSH2 0xDF8 JUMPI PUSH2 0xDF8 PUSH2 0x10BE JUMP JUMPDEST SWAP1 POP PUSH1 0x20 MUL ADD PUSH1 0x20 DUP2 ADD SWAP1 PUSH2 0xE0D SWAP2 SWAP1 PUSH2 0xF2E JUMP JUMPDEST SWAP2 POP DUP1 PUSH2 0xE19 DUP2 PUSH2 0x10F8 JUMP JUMPDEST SWAP2 POP POP PUSH2 0xD95 JUMP JUMPDEST POP PUSH1 0x1 SWAP2 POP POP PUSH2 0x5C1 JUMP JUMPDEST PUSH0 DUP3 PUSH1 0x1 PUSH1 0x1 PUSH1 0xA0 SHL SUB AND DUP3 PUSH1 0x1 PUSH1 0x1 PUSH1 0xA0 SHL SUB AND SUB PUSH2 0xE4E JUMPI POP PUSH1 0x1 PUSH2 0x5C1 JUMP JUMPDEST PUSH1 0x1 PUSH1 0x1 PUSH1 0xA0 SHL SUB DUP3 AND PUSH2 0xE63 JUMPI POP PUSH0 PUSH2 0x5C1 JUMP JUMPDEST PUSH1 0x1 PUSH1 0x1 PUSH1 0xA0 SHL SUB DUP1 DUP4 AND PUSH0 SWAP1 DUP2 MSTORE PUSH1 0x5 PUSH1 0x20 MSTORE PUSH1 0x40 SWAP1 KECCAK256 SLOAD PUSH2 0xE88 SWAP2 DUP6 SWAP2 AND PUSH2 0xE2C JUMP JUMPDEST SWAP1 POP PUSH2 0x5C1 JUMP JUMPDEST PUSH0 PUSH1 0x20 DUP1 DUP4 MSTORE DUP4 MLOAD DUP1 DUP3 DUP6 ADD MSTORE PUSH0 JUMPDEST DUP2 DUP2 LT ISZERO PUSH2 0xEBA JUMPI DUP6 DUP2 ADD DUP4 ADD MLOAD DUP6 DUP3 ADD PUSH1 0x40 ADD MSTORE DUP3 ADD PUSH2 0xE9E JUMP JUMPDEST POP PUSH0 PUSH1 0x40 DUP3 DUP7 ADD ADD MSTORE PUSH1 0x40 PUSH1 0x1F NOT PUSH1 0x1F DUP4 ADD AND DUP6 ADD ADD SWAP3 POP POP POP SWAP3 SWAP2 POP POP JUMP JUMPDEST DUP1 CALLDATALOAD PUSH1 0x1 PUSH1 0x1 PUSH1 0xA0 SHL SUB DUP2 AND DUP2 EQ PUSH2 0xEF0 JUMPI PUSH0 DUP1 REVERT JUMPDEST SWAP2 SWAP1 POP JUMP JUMPDEST PUSH0 DUP1 PUSH0 PUSH1 0x60 DUP5 DUP7 SUB SLT ISZERO PUSH2 0xF07 JUMPI PUSH0 DUP1 REVERT JUMPDEST PUSH2 0xF10 DUP5 PUSH2 0xEDA JUMP JUMPDEST SWAP3 POP PUSH2 0xF1E PUSH1 0x20 DUP6 ADD PUSH2 0xEDA JUMP JUMPDEST SWAP2 POP PUSH1 0x40 DUP5 ADD CALLDATALOAD SWAP1 POP SWAP3 POP SWAP3 POP SWAP3 JUMP JUMPDEST PUSH0 PUSH1 0x20 DUP3 DUP5 SUB SLT ISZERO PUSH2 0xF3E JUMPI PUSH0 DUP1 REVERT JUMPDEST PUSH2 0xF47 DUP3 PUSH2 0xEDA JUMP JUMPDEST SWAP4 SWAP3 POP POP POP JUMP JUMPDEST PUSH0 DUP1 DUP4 PUSH1 0x1F DUP5 ADD SLT PUSH2 0xF5E JUMPI PUSH0 DUP1 REVERT JUMPDEST POP DUP2 CALLDATALOAD PUSH1 0x1 PUSH1 0x1 PUSH1 0x40 SHL SUB DUP2 GT ISZERO PUSH2 0xF74 JUMPI PUSH0 DUP1 REVERT JUMPDEST PUSH1 0x20 DUP4 ADD SWAP2 POP DUP4 PUSH1 0x20 DUP3 PUSH1 0x5 SHL DUP6 ADD ADD GT ISZERO PUSH2 0xF8E JUMPI PUSH0 DUP1 REVERT JUMPDEST SWAP3 POP SWAP3 SWAP1 POP JUMP JUMPDEST PUSH0 DUP1 PUSH0 PUSH1 0x40 DUP5 DUP7 SUB SLT ISZERO PUSH2 0xFA7 JUMPI PUSH0 DUP1 REVERT JUMPDEST DUP4 CALLDATALOAD PUSH1 0x1 PUSH1 0x1 PUSH1 0x40 SHL SUB DUP2 GT ISZERO PUSH2 0xFBC JUMPI PUSH0 DUP1 REVERT JUMPDEST PUSH2 0xFC8 DUP7 DUP3 DUP8 ADD PUSH2 0xF4E JUMP JUMPDEST SWAP1 SWAP8 SWAP1 SWAP7 POP PUSH1 0x20 SWAP6 SWAP1 SWAP6 ADD CALLDATALOAD SWAP5 SWAP4 POP POP POP POP JUMP JUMPDEST PUSH0 DUP1 PUSH0 PUSH1 0x40 DUP5 DUP7 SUB SLT ISZERO PUSH2 0xFEE JUMPI PUSH0 DUP1 REVERT JUMPDEST PUSH2 0xFF7 DUP5 PUSH2 0xEDA JUMP JUMPDEST SWAP3 POP PUSH1 0x20 DUP5 ADD CALLDATALOAD PUSH1 0x1 PUSH1 0x1 PUSH1 0x40 SHL SUB DUP2 GT ISZERO PUSH2 0x1011 JUMPI PUSH0 DUP1 REVERT JUMPDEST PUSH2 0x101D DUP7 DUP3 DUP8 ADD PUSH2 0xF4E JUMP JUMPDEST SWAP5 SWAP8 SWAP1 SWAP7 POP SWAP4 SWAP5 POP POP POP POP JUMP JUMPDEST PUSH0 DUP1 PUSH1 0x40 DUP4 DUP6 SUB SLT ISZERO PUSH2 0x103B JUMPI PUSH0 DUP1 REVERT JUMPDEST PUSH2 0x1044 DUP4 PUSH2 0xEDA JUMP JUMPDEST SWAP5 PUSH1 0x20 SWAP4 SWAP1 SWAP4 ADD CALLDATALOAD SWAP4 POP POP POP JUMP JUMPDEST PUSH1 0x1 DUP2 DUP2 SHR SWAP1 DUP3 AND DUP1 PUSH2 0x1066 JUMPI PUSH1 0x7F DUP3 AND SWAP2 POP JUMPDEST PUSH1 0x20 DUP3 LT DUP2 SUB PUSH2 0x1084 JUMPI PUSH4 0x4E487B71 PUSH1 0xE0 SHL PUSH0 MSTORE PUSH1 0x22 PUSH1 0x4 MSTORE PUSH1 0x24 PUSH0 REVERT JUMPDEST POP SWAP2 SWAP1 POP JUMP JUMPDEST PUSH4 0x4E487B71 PUSH1 0xE0 SHL PUSH0 MSTORE PUSH1 0x11 PUSH1 0x4 MSTORE PUSH1 0x24 PUSH0 REVERT JUMPDEST PUSH1 0x1 PUSH1 0x1 PUSH1 0x40 SHL SUB DUP3 DUP2 AND DUP3 DUP3 AND SUB SWAP1 DUP1 DUP3 GT ISZERO PUSH2 0xD50 JUMPI PUSH2 0xD50 PUSH2 0x108A JUMP JUMPDEST PUSH4 0x4E487B71 PUSH1 0xE0 SHL PUSH0 MSTORE PUSH1 0x32 PUSH1 0x4 MSTORE PUSH1 0x24 PUSH0 REVERT JUMPDEST DUP2 DUP2 SUB DUP2 DUP2 GT ISZERO PUSH2 0x5C1 JUMPI PUSH2 0x5C1 PUSH2 0x108A JUMP JUMPDEST DUP1 DUP3 ADD DUP1 DUP3 GT ISZERO PUSH2 0x5C1 JUMPI PUSH2 0x5C1 PUSH2 0x108A JUMP JUMPDEST PUSH0 PUSH1 0x1 DUP3 ADD PUSH2 0x1109 JUMPI PUSH2 0x1109 PUSH2 0x108A JUMP JUMPDEST POP PUSH1 0x1 ADD SWAP1 JUMP JUMPDEST DUP1 DUP3 MUL DUP2 ISZERO DUP3 DUP3 DIV DUP5 EQ OR PUSH2 0x5C1 JUMPI PUSH2 0x5C1 PUSH2 0x108A JUMP JUMPDEST PUSH4 0x4E487B71 PUSH1 0xE0 SHL PUSH0 MSTORE PUSH1 0x12 PUSH1 0x4 MSTORE PUSH1 0x24 PUSH0 REVERT JUMPDEST PUSH0 DUP3 PUSH2 0x1149 JUMPI PUSH2 0x1149 PUSH2 0x1127 JUMP JUMPDEST POP DIV SWAP1 JUMP JUMPDEST PUSH0 PUSH1 0x20 DUP3 DUP5 SUB SLT ISZERO PUSH2 0x115E JUMPI PUSH0 DUP1 REVERT JUMPDEST POP MLOAD SWAP2 SWAP1 POP JUMP JUMPDEST PUSH0 DUP3 PUSH2 0x1173 JUMPI PUSH2 0x1173 PUSH2 0x1127 JUMP JUMPDEST POP MOD SWAP1 JUMP INVALID LOG2 PUSH5 0x6970667358 0x22 SLT KECCAK256 SMOD DUP4 0xEC PUSH11 0xC3F548543AE4383DEFEB32 0xD 0xDC SWAP2 DUP9 0xB1 ADD 0xCE SELFBALANCE BLOCKHASH EXTCODEHASH 0xC3 DUP7 BLOCKHASH ADDMOD SGT ADDRESS PUSH23 0x64736F6C63430008140033000000000000000000000000 "
		},
		"gasEstimates": {
			"creation": {
				"codeDepositCost": "905200",
				"executionCost": "infinite",
				"totalCost": "infinite"
			},
			"external": {
				"MIN_HOLDING_DURATION()": "2405",
				"QUORUM()": "2356",
				"_update(address,address,uint256)": "infinite",
				"checkCanActivate(address,address[])": "infinite",
				"checkHoldingDuration(address)": "4896",
				"checkOnlyCoin(address)": "infinite",
				"coin()": "infinite",
				"declareDeposit(address,uint256)": "infinite",
				"delegates(address)": "2688",
				"holdingDuration(address)": "2759",
				"name()": "infinite",
				"reduceTracks(address[],uint256)": "infinite",
				"relativeTracks(address)": "infinite",
				"totalAllocate()": "2427",
				"totalAllocateClaim()": "2426",
				"totalDeposit()": "2404",
				"totalTracks()": "infinite",
				"totalTracksAnchorTime()": "2406",
				"totalTracksAtAnchor()": "2384",
				"tracks(address)": "infinite",
				"tracksDelegated(address,address[])": "infinite",
				"verifyCanActivate(address,address[])": "infinite",
				"verifyHoldingDuration(address)": "4924",
				"verifyOnlyCoin(address)": "infinite"
			}
		},
		"methodIdentifiers": {
			"MIN_HOLDING_DURATION()": "b0c2bf06",
			"QUORUM()": "2e80d9b6",
			"_update(address,address,uint256)": "0bb3bfa8",
			"checkCanActivate(address,address[])": "a0b22b1b",
			"checkHoldingDuration(address)": "0c41963b",
			"checkOnlyCoin(address)": "2fcc98d0",
			"coin()": "11df9995",
			"declareDeposit(address,uint256)": "ad46cf91",
			"delegates(address)": "587cde1e",
			"holdingDuration(address)": "c9f72b67",
			"name()": "06fdde03",
			"reduceTracks(address[],uint256)": "20a44c19",
			"relativeTracks(address)": "32cabf26",
			"totalAllocate()": "bd245a43",
			"totalAllocateClaim()": "f734de51",
			"totalDeposit()": "f6153ccd",
			"totalTracks()": "40dee0b5",
			"totalTracksAnchorTime()": "11206c3c",
			"totalTracksAtAnchor()": "0ebc6ef0",
			"tracks(address)": "ce7558dc",
			"tracksDelegated(address,address[])": "e7723a9a",
			"verifyCanActivate(address,address[])": "75b92aa7",
			"verifyHoldingDuration(address)": "d87db283",
			"verifyOnlyCoin(address)": "ade041b2"
		}
	},
	"abi": [
		{
			"inputs": [
				{
					"internalType": "contract IStablecoin",
					"name": "_coin",
					"type": "address"
				},
				{
					"internalType": "string",
					"name": "_name",
					"type": "string"
				},
				{
					"internalType": "uint32",
					"name": "_quorum",
					"type": "uint32"
				},
				{
					"internalType": "uint8",
					"name": "_days",
					"type": "uint8"
				}
			],
			"stateMutability": "nonpayable",
			"type": "constructor"
		},
		{
			"inputs": [
				{
					"internalType": "address",
					"name": "caller",
					"type": "address"
				}
			],
			"name": "MinterExpired",
			"type": "error"
		},
		{
			"inputs": [
				{
					"internalType": "address",
					"name": "caller",
					"type": "address"
				}
			],
			"name": "MoverExpired",
			"type": "error"
		},
		{
			"inputs": [],
			"name": "NoChange",
			"type": "error"
		},
		{
			"inputs": [],
			"name": "NotActive",
			"type": "error"
		},
		{
			"inputs": [],
			"name": "NotAvailable",
			"type": "error"
		},
		{
			"inputs": [],
			"name": "NotCoin",
			"type": "error"
		},
		{
			"inputs": [
				{
					"internalType": "address",
					"name": "account",
					"type": "address"
				}
			],
			"name": "NotMinter",
			"type": "error"
		},
		{
			"inputs": [
				{
					"internalType": "address",
					"name": "account",
					"type": "address"
				}
			],
			"name": "NotMover",
			"type": "error"
		},
		{
			"inputs": [],
			"name": "NotPassedDuration",
			"type": "error"
		},
		{
			"inputs": [],
			"name": "NotQualified",
			"type": "error"
		},
		{
			"inputs": [],
			"name": "NotServed",
			"type": "error"
		},
		{
			"anonymous": false,
			"inputs": [
				{
					"indexed": true,
					"internalType": "address",
					"name": "sender",
					"type": "address"
				},
				{
					"indexed": false,
					"internalType": "uint256",
					"name": "value",
					"type": "uint256"
				},
				{
					"indexed": false,
					"internalType": "uint256",
					"name": "total",
					"type": "uint256"
				}
			],
			"name": "DepositFund",
			"type": "event"
		},
		{
			"inputs": [],
			"name": "MIN_HOLDING_DURATION",
			"outputs": [
				{
					"internalType": "uint256",
					"name": "",
					"type": "uint256"
				}
			],
			"stateMutability": "view",
			"type": "function"
		},
		{
			"inputs": [],
			"name": "QUORUM",
			"outputs": [
				{
					"internalType": "uint32",
					"name": "",
					"type": "uint32"
				}
			],
			"stateMutability": "view",
			"type": "function"
		},
		{
			"inputs": [
				{
					"internalType": "address",
					"name": "from",
					"type": "address"
				},
				{
					"internalType": "address",
					"name": "to",
					"type": "address"
				},
				{
					"internalType": "uint256",
					"name": "amount",
					"type": "uint256"
				}
			],
			"name": "_update",
			"outputs": [],
			"stateMutability": "nonpayable",
			"type": "function"
		},
		{
			"inputs": [
				{
					"internalType": "address",
					"name": "holder",
					"type": "address"
				},
				{
					"internalType": "address[]",
					"name": "helpers",
					"type": "address[]"
				}
			],
			"name": "checkCanActivate",
			"outputs": [
				{
					"internalType": "bool",
					"name": "",
					"type": "bool"
				}
			],
			"stateMutability": "view",
			"type": "function"
		},
		{
			"inputs": [
				{
					"internalType": "address",
					"name": "holder",
					"type": "address"
				}
			],
			"name": "checkHoldingDuration",
			"outputs": [
				{
					"internalType": "bool",
					"name": "",
					"type": "bool"
				}
			],
			"stateMutability": "view",
			"type": "function"
		},
		{
			"inputs": [
				{
					"internalType": "address",
					"name": "toCheck",
					"type": "address"
				}
			],
			"name": "checkOnlyCoin",
			"outputs": [
				{
					"internalType": "bool",
					"name": "",
					"type": "bool"
				}
			],
			"stateMutability": "view",
			"type": "function"
		},
		{
			"inputs": [],
			"name": "coin",
			"outputs": [
				{
					"internalType": "contract IStablecoin",
					"name": "",
					"type": "address"
				}
			],
			"stateMutability": "view",
			"type": "function"
		},
		{
			"inputs": [
				{
					"internalType": "address",
					"name": "from",
					"type": "address"
				},
				{
					"internalType": "uint256",
					"name": "value",
					"type": "uint256"
				}
			],
			"name": "declareDeposit",
			"outputs": [],
			"stateMutability": "nonpayable",
			"type": "function"
		},
		{
			"inputs": [
				{
					"internalType": "address",
					"name": "owner",
					"type": "address"
				}
			],
			"name": "delegates",
			"outputs": [
				{
					"internalType": "address",
					"name": "delegate",
					"type": "address"
				}
			],
			"stateMutability": "view",
			"type": "function"
		},
		{
			"inputs": [
				{
					"internalType": "address",
					"name": "holder",
					"type": "address"
				}
			],
			"name": "holdingDuration",
			"outputs": [
				{
					"internalType": "uint256",
					"name": "",
					"type": "uint256"
				}
			],
			"stateMutability": "view",
			"type": "function"
		},
		{
			"inputs": [],
			"name": "name",
			"outputs": [
				{
					"internalType": "string",
					"name": "",
					"type": "string"
				}
			],
			"stateMutability": "view",
			"type": "function"
		},
		{
			"inputs": [
				{
					"internalType": "address[]",
					"name": "targets",
					"type": "address[]"
				},
				{
					"internalType": "uint256",
					"name": "tracksToDestroy",
					"type": "uint256"
				}
			],
			"name": "reduceTracks",
			"outputs": [],
			"stateMutability": "nonpayable",
			"type": "function"
		},
		{
			"inputs": [
				{
					"internalType": "address",
					"name": "holder",
					"type": "address"
				}
			],
			"name": "relativeTracks",
			"outputs": [
				{
					"internalType": "uint256",
					"name": "",
					"type": "uint256"
				}
			],
			"stateMutability": "view",
			"type": "function"
		},
		{
			"inputs": [],
			"name": "totalAllocate",
			"outputs": [
				{
					"internalType": "uint256",
					"name": "",
					"type": "uint256"
				}
			],
			"stateMutability": "view",
			"type": "function"
		},
		{
			"inputs": [],
			"name": "totalAllocateClaim",
			"outputs": [
				{
					"internalType": "uint256",
					"name": "",
					"type": "uint256"
				}
			],
			"stateMutability": "view",
			"type": "function"
		},
		{
			"inputs": [],
			"name": "totalDeposit",
			"outputs": [
				{
					"internalType": "uint256",
					"name": "",
					"type": "uint256"
				}
			],
			"stateMutability": "view",
			"type": "function"
		},
		{
			"inputs": [],
			"name": "totalTracks",
			"outputs": [
				{
					"internalType": "uint256",
					"name": "",
					"type": "uint256"
				}
			],
			"stateMutability": "view",
			"type": "function"
		},
		{
			"inputs": [],
			"name": "totalTracksAnchorTime",
			"outputs": [
				{
					"internalType": "uint256",
					"name": "",
					"type": "uint256"
				}
			],
			"stateMutability": "view",
			"type": "function"
		},
		{
			"inputs": [],
			"name": "totalTracksAtAnchor",
			"outputs": [
				{
					"internalType": "uint256",
					"name": "",
					"type": "uint256"
				}
			],
			"stateMutability": "view",
			"type": "function"
		},
		{
			"inputs": [
				{
					"internalType": "address",
					"name": "holder",
					"type": "address"
				}
			],
			"name": "tracks",
			"outputs": [
				{
					"internalType": "uint256",
					"name": "",
					"type": "uint256"
				}
			],
			"stateMutability": "view",
			"type": "function"
		},
		{
			"inputs": [
				{
					"internalType": "address",
					"name": "sender",
					"type": "address"
				},
				{
					"internalType": "address[]",
					"name": "helpers",
					"type": "address[]"
				}
			],
			"name": "tracksDelegated",
			"outputs": [
				{
					"internalType": "uint256",
					"name": "",
					"type": "uint256"
				}
			],
			"stateMutability": "view",
			"type": "function"
		},
		{
			"inputs": [
				{
					"internalType": "address",
					"name": "holder",
					"type": "address"
				},
				{
					"internalType": "address[]",
					"name": "helpers",
					"type": "address[]"
				}
			],
			"name": "verifyCanActivate",
			"outputs": [],
			"stateMutability": "view",
			"type": "function"
		},
		{
			"inputs": [
				{
					"internalType": "address",
					"name": "holder",
					"type": "address"
				}
			],
			"name": "verifyHoldingDuration",
			"outputs": [],
			"stateMutability": "view",
			"type": "function"
		},
		{
			"inputs": [
				{
					"internalType": "address",
					"name": "toCheck",
					"type": "address"
				}
			],
			"name": "verifyOnlyCoin",
			"outputs": [],
			"stateMutability": "view",
			"type": "function"
		}
	]
}