{
	"data": {
		"bytecode": {
			"linkReferences": {},
			"object": "60e0604052611388600d55683635c9adc5dea00000600e5534801562000023575f80fd5b506040518060400160405280600a81526020016929ba30b13632b1b7b4b760b11b8152506040518060400160405280600481526020016314d5109360e21b81525081600390816200007591906200029b565b5060046200008482826200029b565b50505030614e20605a6040516200009b90620001d1565b6001600160a01b03909316835260806020840181905260059084015264566f74657360d81b60a084015263ffffffff909116604083015260ff16606082015260c001604051809103905ff080158015620000f7573d5f803e3d5ffd5b506001600160a01b031660805260405130905f906003906200011990620001df565b6001600160a01b03909316835260806020840181905260079084015266536176696e677360c81b60a084015263ffffffff909116604083015260ff16606082015260c001604051809103905ff08015801562000177573d5f803e3d5ffd5b506001600160a01b031660a05260405130906200019490620001ed565b6001600160a01b039091168152602001604051809103905ff080158015620001be573d5f803e3d5ffd5b506001600160a01b031660c05262000363565b6113eb8062001f7883390190565b61154e806200336383390190565b6102cb80620048b183390190565b634e487b7160e01b5f52604160045260245ffd5b600181811c908216806200022457607f821691505b6020821081036200024357634e487b7160e01b5f52602260045260245ffd5b50919050565b601f82111562000296575f81815260208120601f850160051c81016020861015620002715750805b601f850160051c820191505b8181101562000292578281556001016200027d565b5050505b505050565b81516001600160401b03811115620002b757620002b7620001fb565b620002cf81620002c884546200020f565b8462000249565b602080601f83116001811462000305575f8415620002ed5750858301515b5f19600386901b1c1916600185901b17855562000292565b5f85815260208120601f198616915b82811015620003355788860151825594840194600190910190840162000314565b50858210156200035357878501515f19600388901b60f8161c191681555b5050505050600190811b01905550565b60805160a05160c051611bab620003cd5f395f818161052301528181610d8c01528181610e360152610e6601525f81816104e401528181610f0601528181610f3901526115ce01525f8181610587015281816109c601528181611190015261154b0152611bab5ff3fe608060405234801561000f575f80fd5b506004361061026b575f3560e01c8063860015191161014b578063c86d6ae4116100bf578063e168c3ec11610084578063e168c3ec14610582578063e8893a64146105a9578063ec3e1e2c146105bc578063f4703eb9146105c5578063f4a3dd4e146105e4578063fc4ee32f146105f7575f80fd5b8063c86d6ae4146104df578063c89f2ce41461051e578063d018e42314610545578063d1e5e46f14610564578063dd62ed3e1461056f575f80fd5b80639c6ba002116101105780639c6ba00214610467578063a9059cbb1461047a578063aa271e1a1461048d578063ade041b2146104af578063b789bb1a146104c2578063ba035212146104d5575f80fd5b8063860015191461043b57806386f90145146104445780638b7a55131461044d57806395d89b411461045657806396e68d6d1461045e575f80fd5b80632fcc98d0116101e2578063452ec4fe116101a7578063452ec4fe146103b057806347ff7f53146103d25780635ad6410a146103e557806370a08231146103f857806379a93b69146104205780637eb7047a14610428575f80fd5b80632fcc98d014610349578063313ce5671461035c57806333246cc81461036b5780633d0dc9691461037e57806340c10f191461039d575f80fd5b8063162389491161023357806316238949146102eb57806318160ddd146102fe578063183000b314610306578063219502f11461030f57806323b872dd1461031757806325d069bc1461032a575f80fd5b80630310b56b1461026f57806306fdde0314610297578063095ea7b3146102ac5780630d457ee1146102bf57806314e9b812146102d6575b5f80fd5b61028261027d366004611761565b61060a565b60405190151581526020015b60405180910390f35b61029f6106ac565b60405161028e919061177a565b6102826102ba3660046117c5565b61073c565b6102c8600c5481565b60405190815260200161028e565b6102e96102e4366004611761565b610755565b005b6102e96102f9366004611761565b6107b5565b6002546102c8565b6102c8600e5481565b6102e96107e1565b6102826103253660046117ed565b61088b565b6102c8610338366004611761565b600a6020525f908152604090205481565b610282610357366004611761565b6108ae565b6040516012815260200161028e565b6102e961037936600461186b565b6108c6565b6102c861038c366004611761565b60066020525f908152604090205481565b6102e96103ab3660046117c5565b610975565b6102826103be366004611761565b60086020525f908152604090205460ff1681565b6102e96103e0366004611908565b6109af565b6102e96103f3366004611761565b610786565b6102c8610406366004611761565b6001600160a01b03165f9081526020819052604090205490565b6102c8600381565b6102e961043636600461186b565b610c85565b6102c8600b5481565b6102c860115481565b6102c860105481565b61029f610d27565b6102c8600d5481565b6102e96104753660046117c5565b610d36565b6102826104883660046117c5565b61102f565b61028261049b366004611761565b60056020525f908152604090205460ff1681565b6102e96104bd366004611761565b61103c565b6102826104d0366004611761565b611066565b6102c862278d0081565b6105067f000000000000000000000000000000000000000000000000000000000000000081565b6040516001600160a01b03909116815260200161028e565b6105067f000000000000000000000000000000000000000000000000000000000000000081565b6102c8610553366004611761565b60076020525f908152604090205481565b6102c86303c2670081565b6102c861057d366004611995565b611100565b6105067f000000000000000000000000000000000000000000000000000000000000000081565b6102826105b7366004611761565b611148565b6102c8600f5481565b6102c86105d3366004611761565b60096020525f908152604090205481565b6102e96105f23660046119c6565b611179565b6102e96106053660046117c5565b61128a565b6001600160a01b0381165f9081526008602052604081205460ff161515810361063457505f919050565b6001600160a01b0382165f90815260096020526040812054900361065957505f919050565b6001600160a01b0382165f9081526009602052604090205442101561067f57505f919050565b6001600160a01b0382165f908152600a602052604090205442106106a457505f919050565b506001919050565b6060600380546106bb90611a15565b80601f01602080910402602001604051908101604052809291908181526020018280546106e790611a15565b80156107325780601f1061070957610100808354040283529160200191610732565b820191905f5260205f20905b81548152906001019060200180831161071557829003601f168201915b5050505050905090565b5f33610749818585611327565b60019150505b92915050565b61075e33611066565b15155f0361078657604051631b0e18f960e11b81523360048201526024015b60405180910390fd5b61078f3361060a565b15155f036107b2576040516328c9252560e21b815233600482015260240161077d565b50565b6107be33611066565b15155f036107b257604051631b0e18f960e11b815233600482015260240161077d565b42601154101561080457604051634065aaf160e11b815260040160405180910390fd5b600f54600d5414801561081a5750601054600e54145b156108385760405163a88ee57760e01b815260040160405180910390fd5b600f54600d819055601054600e81905560405133927fbfc9279d3d1f16151de729ef01bcfc1b24e915f8ab81ec8082e305c75f58d6519261088192918252602082015260400190565b60405180910390a2565b5f33610898858285611339565b6108a385858561139c565b506001949350505050565b5f6001600160a01b03821630146106a457505f919050565b5f6108d060025490565b11156108ef5760405163a88ee57760e01b815260040160405180910390fd5b6001600160a01b0383165f818152600560209081526040808320805460ff191660019081179091556006835281842042908190556007909352928190205f1990819055905133937ffdd005e1146a6c5ae78784f84b0d58180f3a0c9ae99a3dbf3605095d22e6115c936109689389938993929190611a4d565b60405180910390a3505050565b61097e33611066565b15155f036109a157604051631b0e18f960e11b815233600482015260240161077d565b6109ab82826113f9565b5050565b60405163a0b22b1b60e01b81526001600160a01b037f0000000000000000000000000000000000000000000000000000000000000000169063a0b22b1b906109ff90339086908690600401611a91565b602060405180830381865afa158015610a1a573d5f803e3d5ffd5b505050506040513d601f19601f82011682018060405250810190610a3e9190611aea565b50848015610a565750610a5086611066565b15156001145b15610b0f576001600160a01b0386165f908152600660209081526040808320546007909252822054610a889190611b19565b6001600160a01b0388165f9081526006602052604081205491925090610aae9042611b19565b905081610abc826002611b2c565b11610ada5760405163039464f160e31b815260040160405180910390fd5b610ae5816003611b2c565b610aef9042611b43565b6001600160a01b0389165f9081526007602052604090205550610c0f9050565b848015610b225750610b2086611066565b155b15610ba7576001600160a01b0386165f908152600560205260409020805460ff19166001179055610b5662278d0042611b43565b6001600160a01b0387165f908152600660205260409020556303c26700610b8062278d0042611b43565b610b8a9190611b43565b6001600160a01b0387165f90815260076020526040902055610c0f565b84158015610bbf5750610bb986611066565b15156001145b15610bd157610b8a62278d0042611b43565b84158015610be55750610be386611066565b155b15610c0f576001600160a01b0386165f908152600660209081526040808320546007909252909120555b6001600160a01b0386165f81815260056020908152604080832054600683528184205460079093529281902054905133937ffdd005e1146a6c5ae78784f84b0d58180f3a0c9ae99a3dbf3605095d22e6115c93610c75938b938b9360ff16929190611a4d565b60405180910390a3505050505050565b5f610c8f60025490565b1115610cae5760405163a88ee57760e01b815260040160405180910390fd5b6001600160a01b0383165f818152600860209081526040808320805460ff19166001908117909155600983528184204290819055600a909352928190205f1990819055905133937fb2e7f823e96d3bd287e8ee64d40608a5c532476149a41c7dd7a557985b491e1a936109689389938993929190611a4d565b6060600480546106bb90611a15565b610d3f3361060a565b15155f03610d62576040516328c9252560e21b815233600482015260240161077d565b805f03610d825760405163a88ee57760e01b815260040160405180910390fd5b6001600160a01b037f0000000000000000000000000000000000000000000000000000000000000000165f9081526020819052604081205490505f620f4240600d54610dcd60025490565b610dd79190611b2c565b610de19190611b56565b90505f600e548310610df3575f610e01565b82600e54610e019190611b19565b90505f828410610e11575f610e1b565b610e1b8484611b19565b90505f610e28838361142d565b90508015610ef857610e64877f0000000000000000000000000000000000000000000000000000000000000000610e5f898561143c565b61139c565b7f00000000000000000000000000000000000000000000000000000000000000006001600160a01b031663ad46cf9188610e9e898561143c565b6040516001600160e01b031960e085901b1681526001600160a01b03909216600483015260248201526044015f604051808303815f87803b158015610ee1575f80fd5b505af1158015610ef3573d5f803e3d5ffd5b505050505b80861115610fc357610f2f877f0000000000000000000000000000000000000000000000000000000000000000610e5f848a611b19565b6001600160a01b037f00000000000000000000000000000000000000000000000000000000000000001663ad46cf9188610f69848a611b19565b6040516001600160e01b031960e085901b1681526001600160a01b03909216600483015260248201526044015f604051808303815f87803b158015610fac575f80fd5b505af1158015610fbe573d5f803e3d5ffd5b505050505b85600b5f828254610fd49190611b43565b9091555050600b546040516001600160a01b038916917f4a5329f094d9d45ec63a89b111fbeeaa9693d75a353400344d82b145489129539161101e918a8252602082015260400190565b60405180910390a250505050505050565b5f3361074981858561139c565b611045336108ae565b15155f036107b25760405163d467989960e01b815260040160405180910390fd5b6001600160a01b0381165f9081526005602052604081205460ff161515810361109057505f919050565b6001600160a01b0382165f9081526006602052604081205490036110b557505f919050565b6001600160a01b0382165f908152600660205260409020544210156110db57505f919050565b6001600160a01b0382165f9081526007602052604090205442106106a457505f919050565b5f61110a8261060a565b151560010361111b57505f1961074f565b6001600160a01b038084165f908152600160209081526040808320938616835292905220545b9392505050565b5f61115282611066565b15155f0361116157505f919050565b61116a8261060a565b15155f036106a457505f919050565b6040516375b92aa760e01b81526001600160a01b037f000000000000000000000000000000000000000000000000000000000000000016906375b92aa7906111c990339086908690600401611a91565b5f6040518083038186803b1580156111df575f80fd5b505afa1580156111f1573d5f803e3d5ffd5b5050505083600d541480611206575082600e54145b156112245760405163a88ee57760e01b815260040160405180910390fd5b600f849055601083905561123b62278d0042611b43565b601181905560408051868152602081018690529081019190915233907ffc439f40636a3fd4c5e780f0af1c0d34e617e1ba806b9d9a32eabbe8936ab4b29060600160405180910390a250505050565b61129333611066565b15155f036112b657604051631b0e18f960e11b815233600482015260240161077d565b6112c082826113f9565b80600c5f8282546112d19190611b43565b9091555050600c546040516001600160a01b038416917f34d58fa80f2d74611b3929c54b79a282aa2cf5433e31a08b0816e8b193217e059161131b91858252602082015260400190565b60405180910390a25050565b611334838383600161144b565b505050565b5f6113448484611100565b90505f198114611396578181101561138857604051637dc7a0d960e11b81526001600160a01b0384166004820152602481018290526044810183905260640161077d565b61139684848484035f61144b565b50505050565b6001600160a01b0383166113c557604051634b637e8f60e11b81525f600482015260240161077d565b6001600160a01b0382166113ee5760405163ec442f0560e01b81525f600482015260240161077d565b61133483838361151d565b6001600160a01b0382166114225760405163ec442f0560e01b81525f600482015260240161077d565b6109ab5f838361151d565b5f828218828411028218611141565b5f828218828410028218611141565b6001600160a01b0384166114745760405163e602df0560e01b81525f600482015260240161077d565b6001600160a01b03831661149d57604051634a1406b160e11b81525f600482015260240161077d565b6001600160a01b038085165f908152600160209081526040808320938716835292905220829055801561139657826001600160a01b0316846001600160a01b03167f8c5be1e5ebec7d5bd14f71427d1e84f3dd0314c0f7b2291e5b200ac8c7c3b9258460405161150f91815260200190565b60405180910390a350505050565b60405163017677f560e31b81526001600160a01b0384811660048301528381166024830152604482018390527f00000000000000000000000000000000000000000000000000000000000000001690630bb3bfa8906064015f604051808303815f87803b15801561158c575f80fd5b505af115801561159e573d5f803e3d5ffd5b505060405163017677f560e31b81526001600160a01b0386811660048301528581166024830152604482018590527f0000000000000000000000000000000000000000000000000000000000000000169250630bb3bfa891506064015f604051808303815f87803b158015611611575f80fd5b505af1158015611623573d5f803e3d5ffd5b505050506113348383836001600160a01b038316611657578060025f82825461164c9190611b43565b909155506116c79050565b6001600160a01b0383165f90815260208190526040902054818110156116a95760405163391434e360e21b81526001600160a01b0385166004820152602481018290526044810183905260640161077d565b6001600160a01b0384165f9081526020819052604090209082900390555b6001600160a01b0382166116e357600280548290039055611701565b6001600160a01b0382165f9081526020819052604090208054820190555b816001600160a01b0316836001600160a01b03167fddf252ad1be2c89b69c2b068fc378daa952ba7f163c4a11628f55a4df523b3ef8360405161096891815260200190565b80356001600160a01b038116811461175c575f80fd5b919050565b5f60208284031215611771575f80fd5b61114182611746565b5f6020808352835180828501525f5b818110156117a557858101830151858201604001528201611789565b505f604082860101526040601f19601f8301168501019250505092915050565b5f80604083850312156117d6575f80fd5b6117df83611746565b946020939093013593505050565b5f805f606084860312156117ff575f80fd5b61180884611746565b925061181660208501611746565b9150604084013590509250925092565b5f8083601f840112611836575f80fd5b50813567ffffffffffffffff81111561184d575f80fd5b602083019150836020828501011115611864575f80fd5b9250929050565b5f805f6040848603121561187d575f80fd5b61188684611746565b9250602084013567ffffffffffffffff8111156118a1575f80fd5b6118ad86828701611826565b9497909650939450505050565b80151581146107b2575f80fd5b5f8083601f8401126118d7575f80fd5b50813567ffffffffffffffff8111156118ee575f80fd5b6020830191508360208260051b8501011115611864575f80fd5b5f805f805f806080878903121561191d575f80fd5b61192687611746565b95506020870135611936816118ba565b9450604087013567ffffffffffffffff80821115611952575f80fd5b61195e8a838b01611826565b90965094506060890135915080821115611976575f80fd5b5061198389828a016118c7565b979a9699509497509295939492505050565b5f80604083850312156119a6575f80fd5b6119af83611746565b91506119bd60208401611746565b90509250929050565b5f805f80606085870312156119d9575f80fd5b8435935060208501359250604085013567ffffffffffffffff8111156119fd575f80fd5b611a09878288016118c7565b95989497509550505050565b600181811c90821680611a2957607f821691505b602082108103611a4757634e487b7160e01b5f52602260045260245ffd5b50919050565b60808152846080820152848660a08301375f60a0868301810191909152931515602082015260408101929092526060820152601f909201601f191690910101919050565b6001600160a01b038481168252604060208084018290529083018490525f91859160608501845b87811015611add5783611aca86611746565b1682529382019390820190600101611ab8565b5098975050505050505050565b5f60208284031215611afa575f80fd5b8151611141816118ba565b634e487b7160e01b5f52601160045260245ffd5b8181038181111561074f5761074f611b05565b808202811582820484141761074f5761074f611b05565b8082018082111561074f5761074f611b05565b5f82611b7057634e487b7160e01b5f52601260045260245ffd5b50049056fea264697066735822122079762bfdeacda9c6573c173d73585a3c229b19dbe130ad47f1d347f43064abf864736f6c6343000814003360a060405234801562000010575f80fd5b50604051620013eb380380620013eb8339810160408190526200003391620000cd565b6001600160a01b0384166080528383838360026200005284826200026b565b505f805463ffffffff191663ffffffff841617905560146200007b60ff83166201518062000333565b901b600155506200035d9650505050505050565b634e487b7160e01b5f52604160045260245ffd5b805163ffffffff81168114620000b7575f80fd5b919050565b805160ff81168114620000b7575f80fd5b5f805f8060808587031215620000e1575f80fd5b84516001600160a01b0381168114620000f8575f80fd5b602086810151919550906001600160401b038082111562000117575f80fd5b818801915088601f8301126200012b575f80fd5b8151818111156200014057620001406200008f565b604051601f8201601f19908116603f011681019083821181831017156200016b576200016b6200008f565b816040528281528b8684870101111562000183575f80fd5b5f93505b82841015620001a6578484018601518185018701529285019262000187565b5f868483010152809850505050505050620001c460408601620000a3565b9150620001d460608601620000bc565b905092959194509250565b600181811c90821680620001f457607f821691505b6020821081036200021357634e487b7160e01b5f52602260045260245ffd5b50919050565b601f82111562000266575f81815260208120601f850160051c81016020861015620002415750805b601f850160051c820191505b8181101562000262578281556001016200024d565b5050505b505050565b81516001600160401b038111156200028757620002876200008f565b6200029f81620002988454620001df565b8462000219565b602080601f831160018114620002d5575f8415620002bd5750858301515b5f19600386901b1c1916600185901b17855562000262565b5f85815260208120601f198616915b828110156200030557888601518255948401946001909101908401620002e4565b50858210156200032357878501515f19600388901b60f8161c191681555b5050505050600190811b01905550565b80820281158282048414176200035757634e487b7160e01b5f52601160045260245ffd5b92915050565b608051611052620003995f395f81816101a6015281816104f301528181610590015281816107b70152818161094e0152610b3801526110525ff3fe608060405234801561000f575f80fd5b5060043610610127575f3560e01c806340dee0b5116100a9578063b0c2bf061161006e578063b0c2bf06146102a6578063c9f72b67146102af578063ce7558dc146102c2578063d87db283146102d5578063e7723a9a146102e8575f80fd5b806340dee0b51461023d578063587cde1e1461024557806375b92aa71461026d578063a0b22b1b14610280578063ade041b214610293575f80fd5b806311df9995116100ef57806311df9995146101a157806320a44c19146101e05780632e80d9b6146101f35780632fcc98d01461021757806332cabf261461022a575f80fd5b806306fdde031461012b5780630bb3bfa8146101495780630c41963b1461015e5780630ebc6ef01461018157806311206c3c14610198575b5f80fd5b6101336102fb565b6040516101409190610d5b565b60405180910390f35b61015c610157366004610dc1565b610387565b005b61017161016c366004610dfa565b6103cf565b6040519015158152602001610140565b61018a60035481565b604051908152602001610140565b61018a60045481565b6101c87f000000000000000000000000000000000000000000000000000000000000000081565b6040516001600160a01b039091168152602001610140565b61015c6101ee366004610e61565b610414565b5f546102029063ffffffff1681565b60405163ffffffff9091168152602001610140565b610171610225366004610dfa565b6104f0565b61018a610238366004610dfa565b610539565b61018a61056d565b6101c8610253366004610dfa565b60056020525f90815260409020546001600160a01b031681565b61015c61027b366004610ea8565b61062a565b61017161028e366004610ea8565b61065b565b61015c6102a1366004610dfa565b61069b565b61018a60015481565b61018a6102bd366004610dfa565b6106c8565b61018a6102d0366004610dfa565b610713565b61015c6102e3366004610dfa565b61082a565b61018a6102f6366004610ea8565b610854565b6002805461030890610ef6565b80601f016020809104026020016040519081016040528092919081815260200182805461033490610ef6565b801561037f5780601f106103565761010080835404028352916020019161037f565b820191905f5260205f20905b81548152906001019060200180831161036257829003601f168201915b505050505081565b610390336104f0565b15155f036103b15760405163d467989960e01b815260040160405180910390fd5b5f6103bc8383610908565b90506103c9848383610a2e565b50505050565b6001546001600160a01b0382165f90815260066020526040812054909190610403906001600160401b03164260141b610f42565b6001600160401b0316101592915050565b5f61041f3383610ac7565b90505f805b848110801561043257508282105b1561048e5761047086868381811061044c5761044c610f62565b90506020020160208101906104619190610dfa565b61046b8486610f76565b610ac7565b61047a9083610f89565b91508061048681610f9c565b915050610424565b50805f036104af5760405163d9b9141960e01b815260040160405180910390fd5b81816104b961056d565b6104c39190610f76565b6104cd9190610f76565b6001600160c01b03166003554260141b6001600160401b03166004555050505050565b5f7f00000000000000000000000000000000000000000000000000000000000000006001600160a01b0316826001600160a01b03161461053157505f919050565b506001919050565b5f61054261056d565b61054b83610713565b61055d90670de0b6b3a7640000610fb4565b6105679190610fdf565b92915050565b5f60045461057b4260141b90565b6001600160401b031661058e9190610f76565b7f00000000000000000000000000000000000000000000000000000000000000006001600160a01b03166318160ddd6040518163ffffffff1660e01b8152600401602060405180830381865afa1580156105ea573d5f803e3d5ffd5b505050506040513d601f19601f8201168201806040525081019061060e9190610ff2565b6106189190610fb4565b6003546106259190610f89565b905090565b61063583838361065b565b15155f036106565760405163bcfcdc1160e01b815260040160405180910390fd5b505050565b5f80610668858585610854565b905061067261056d565b5f54610684919063ffffffff16610fb4565b61069182620f4240610fb4565b1195945050505050565b6106a4336104f0565b15155f036106c55760405163d467989960e01b815260040160405180910390fd5b50565b6001600160a01b0381165f908152600660205260408120546014906106f8906001600160401b031642831b610f42565b6001600160401b0316901c6001600160401b03169050919050565b6001546001600160a01b0382165f90815260066020526040812054909190610747906001600160401b03164260141b610f42565b6001600160401b0316101561075d57505f919050565b6001600160a01b0382165f9081526006602052604090205461078b906001600160401b03164260141b610f42565b6040516370a0823160e01b81526001600160a01b0384811660048301526001600160401b0392909216917f000000000000000000000000000000000000000000000000000000000000000016906370a0823190602401602060405180830381865afa1580156107fc573d5f803e3d5ffd5b505050506040513d601f19601f820116820180604052508101906108209190610ff2565b6105679190610fb4565b610833816103cf565b15155f036106c557604051634edf34e760e11b815260040160405180910390fd5b5f61085f8383610c23565b610867575f80fd5b5f61087185610713565b90505f5b838110156108ff575f85858381811061089057610890610f62565b90506020020160208101906108a59190610dfa565b9050866001600160a01b0316816001600160a01b0316036108c4575f80fd5b6108ce8782610cf8565b6108d6575f80fd5b6108df81610713565b6108e99084610f89565b92505080806108f790610f9c565b915050610875565b50949350505050565b5f6001600160a01b03831661091e57505f610567565b5f61092884610713565b6040516370a0823160e01b81526001600160a01b0386811660048301529192505f9185917f0000000000000000000000000000000000000000000000000000000000000000909116906370a0823190602401602060405180830381865afa158015610995573d5f803e3d5ffd5b505050506040513d601f19601f820116820180604052508101906109b99190610ff2565b6109c39190610f89565b90506109cf8183610fdf565b6109e5906001600160401b034260141b16610f76565b6001600160a01b0386165f908152600660205260409020805467ffffffffffffffff19166001600160401b0392909216919091179055610a258183611009565b95945050505050565b4260141b5f6001600160a01b03851615610a87576001600160a01b0385165f908152600660205260409020548490610a6f906001600160401b031684610f42565b6001600160401b0316610a829190610fb4565b610a89565b5f5b90508281610a9561056d565b610a9f9190610f76565b610aa99190610f76565b6001600160c01b0316600355506001600160401b0316600455505050565b5f80610ad284610713565b9050808310610b19576001600160a01b0384165f908152600660205260409020805467ffffffffffffffff19164260141b6001600160401b03161790559150819050610567565b6040516370a0823160e01b81526001600160a01b0385811660048301527f000000000000000000000000000000000000000000000000000000000000000016906370a0823190602401602060405180830381865afa158015610b7d573d5f803e3d5ffd5b505050506040513d601f19601f82011682018060405250810190610ba19190610ff2565b610bab8483610f76565b610bb59190610fdf565b610bcb906001600160401b034260141b16610f76565b6001600160a01b0385165f908152600660205260409020805467ffffffffffffffff19166001600160401b0392909216919091179055610c0a84610713565b610c149082610f76565b915050610567565b5092915050565b5f60018211610c3457506001610567565b5f83835f818110610c4757610c47610f62565b9050602002016020810190610c5c9190610dfa565b905060015b83811015610ced57816001600160a01b0316858583818110610c8557610c85610f62565b9050602002016020810190610c9a9190610dfa565b6001600160a01b031611610cb2575f92505050610567565b848482818110610cc457610cc4610f62565b9050602002016020810190610cd99190610dfa565b915080610ce581610f9c565b915050610c61565b506001915050610567565b5f826001600160a01b0316826001600160a01b031603610d1a57506001610567565b6001600160a01b038216610d2f57505f610567565b6001600160a01b038083165f90815260056020526040902054610d5491859116610cf8565b9050610567565b5f6020808352835180828501525f5b81811015610d8657858101830151858201604001528201610d6a565b505f604082860101526040601f19601f8301168501019250505092915050565b80356001600160a01b0381168114610dbc575f80fd5b919050565b5f805f60608486031215610dd3575f80fd5b610ddc84610da6565b9250610dea60208501610da6565b9150604084013590509250925092565b5f60208284031215610e0a575f80fd5b610e1382610da6565b9392505050565b5f8083601f840112610e2a575f80fd5b5081356001600160401b03811115610e40575f80fd5b6020830191508360208260051b8501011115610e5a575f80fd5b9250929050565b5f805f60408486031215610e73575f80fd5b83356001600160401b03811115610e88575f80fd5b610e9486828701610e1a565b909790965060209590950135949350505050565b5f805f60408486031215610eba575f80fd5b610ec384610da6565b925060208401356001600160401b03811115610edd575f80fd5b610ee986828701610e1a565b9497909650939450505050565b600181811c90821680610f0a57607f821691505b602082108103610f2857634e487b7160e01b5f52602260045260245ffd5b50919050565b634e487b7160e01b5f52601160045260245ffd5b6001600160401b03828116828216039080821115610c1c57610c1c610f2e565b634e487b7160e01b5f52603260045260245ffd5b8181038181111561056757610567610f2e565b8082018082111561056757610567610f2e565b5f60018201610fad57610fad610f2e565b5060010190565b808202811582820484141761056757610567610f2e565b634e487b7160e01b5f52601260045260245ffd5b5f82610fed57610fed610fcb565b500490565b5f60208284031215611002575f80fd5b5051919050565b5f8261101757611017610fcb565b50069056fea2646970667358221220ac79c9b598aa5ab55125612688a0b1a04fa12b9b62b6709681f991d1e716a2c364736f6c6343000814003360a060405234801562000010575f80fd5b506040516200154e3803806200154e8339810160408190526200003391620000cd565b6001600160a01b0384166080528383838360026200005284826200026b565b505f805463ffffffff191663ffffffff841617905560146200007b60ff83166201518062000333565b901b600155506200035d9650505050505050565b634e487b7160e01b5f52604160045260245ffd5b805163ffffffff81168114620000b7575f80fd5b919050565b805160ff81168114620000b7575f80fd5b5f805f8060808587031215620000e1575f80fd5b84516001600160a01b0381168114620000f8575f80fd5b602086810151919550906001600160401b038082111562000117575f80fd5b818801915088601f8301126200012b575f80fd5b8151818111156200014057620001406200008f565b604051601f8201601f19908116603f011681019083821181831017156200016b576200016b6200008f565b816040528281528b8684870101111562000183575f80fd5b5f93505b82841015620001a6578484018601518185018701529285019262000187565b5f868483010152809850505050505050620001c460408601620000a3565b9150620001d460608601620000bc565b905092959194509250565b600181811c90821680620001f457607f821691505b6020821081036200021357634e487b7160e01b5f52602260045260245ffd5b50919050565b601f82111562000266575f81815260208120601f850160051c81016020861015620002415750805b601f850160051c820191505b8181101562000262578281556001016200024d565b5050505b505050565b81516001600160401b038111156200028757620002876200008f565b6200029f81620002988454620001df565b8462000219565b602080601f831160018114620002d5575f8415620002bd5750858301515b5f19600386901b1c1916600185901b17855562000262565b5f85815260208120601f198616915b828110156200030557888601518255948401946001909101908401620002e4565b50858210156200032357878501515f19600388901b60f8161c191681555b5050505050600190811b01905550565b80820281158282048414176200035757634e487b7160e01b5f52601160045260245ffd5b92915050565b6080516111ae620003a05f395f81816101d20152818161054d015281816105ea0152818161070a015281816108eb01528181610a820152610c6c01526111ae5ff3fe608060405234801561000f575f80fd5b5060043610610153575f3560e01c806375b92aa7116100bf578063c9f72b6711610079578063c9f72b67146102f7578063ce7558dc1461030a578063d87db2831461031d578063e7723a9a14610330578063f6153ccd14610343578063f734de511461034c575f80fd5b806375b92aa714610299578063a0b22b1b146102ac578063ad46cf91146102bf578063ade041b2146102d2578063b0c2bf06146102e5578063bd245a43146102ee575f80fd5b806320a44c191161011057806320a44c191461020c5780632e80d9b61461021f5780632fcc98d01461024357806332cabf261461025657806340dee0b514610269578063587cde1e14610271575f80fd5b806306fdde03146101575780630bb3bfa8146101755780630c41963b1461018a5780630ebc6ef0146101ad57806311206c3c146101c457806311df9995146101cd575b5f80fd5b61015f610355565b60405161016c9190610e8f565b60405180910390f35b610188610183366004610ef5565b6103e1565b005b61019d610198366004610f2e565b610429565b604051901515815260200161016c565b6101b660035481565b60405190815260200161016c565b6101b660045481565b6101f47f000000000000000000000000000000000000000000000000000000000000000081565b6040516001600160a01b03909116815260200161016c565b61018861021a366004610f95565b61046e565b5f5461022e9063ffffffff1681565b60405163ffffffff909116815260200161016c565b61019d610251366004610f2e565b61054a565b6101b6610264366004610f2e565b610593565b6101b66105c7565b6101f461027f366004610f2e565b60056020525f90815260409020546001600160a01b031681565b6101886102a7366004610fdc565b610684565b61019d6102ba366004610fdc565b6106b5565b6101886102cd36600461102a565b6106f5565b6101886102e0366004610f2e565b6107cf565b6101b660015481565b6101b660085481565b6101b6610305366004610f2e565b6107fc565b6101b6610318366004610f2e565b610847565b61018861032b366004610f2e565b61095e565b6101b661033e366004610fdc565b610988565b6101b660075481565b6101b660095481565b6002805461036290611052565b80601f016020809104026020016040519081016040528092919081815260200182805461038e90611052565b80156103d95780601f106103b0576101008083540402835291602001916103d9565b820191905f5260205f20905b8154815290600101906020018083116103bc57829003601f168201915b505050505081565b6103ea3361054a565b15155f0361040b5760405163d467989960e01b815260040160405180910390fd5b5f6104168383610a3c565b9050610423848383610b62565b50505050565b6001546001600160a01b0382165f9081526006602052604081205490919061045d906001600160401b03164260141b61109e565b6001600160401b0316101592915050565b5f6104793383610bfb565b90505f805b848110801561048c57508282105b156104e8576104ca8686838181106104a6576104a66110be565b90506020020160208101906104bb9190610f2e565b6104c584866110d2565b610bfb565b6104d490836110e5565b9150806104e0816110f8565b91505061047e565b50805f036105095760405163d9b9141960e01b815260040160405180910390fd5b81816105136105c7565b61051d91906110d2565b61052791906110d2565b6001600160c01b03166003554260141b6001600160401b03166004555050505050565b5f7f00000000000000000000000000000000000000000000000000000000000000006001600160a01b0316826001600160a01b03161461058b57505f919050565b506001919050565b5f61059c6105c7565b6105a583610847565b6105b790670de0b6b3a7640000611110565b6105c1919061113b565b92915050565b5f6004546105d54260141b90565b6001600160401b03166105e891906110d2565b7f00000000000000000000000000000000000000000000000000000000000000006001600160a01b03166318160ddd6040518163ffffffff1660e01b8152600401602060405180830381865afa158015610644573d5f803e3d5ffd5b505050506040513d601f19601f82011682018060405250810190610668919061114e565b6106729190611110565b60035461067f91906110e5565b905090565b61068f8383836106b5565b15155f036106b05760405163bcfcdc1160e01b815260040160405180910390fd5b505050565b5f806106c2858585610988565b90506106cc6105c7565b5f546106de919063ffffffff16611110565b6106eb82620f4240611110565b1195945050505050565b6040516356f020d960e11b81523360048201527f00000000000000000000000000000000000000000000000000000000000000006001600160a01b03169063ade041b2906024015f6040518083038186803b158015610752575f80fd5b505afa158015610764573d5f803e3d5ffd5b505050508060075f82825461077991906110e5565b90915550506007546040516001600160a01b038416917fac17467909f103daacbc1d9dc24c20e2624f5be6442db6c14bd5ab4b5b33f5e4916107c391858252602082015260400190565b60405180910390a25050565b6107d83361054a565b15155f036107f95760405163d467989960e01b815260040160405180910390fd5b50565b6001600160a01b0381165f9081526006602052604081205460149061082c906001600160401b031642831b61109e565b6001600160401b0316901c6001600160401b03169050919050565b6001546001600160a01b0382165f9081526006602052604081205490919061087b906001600160401b03164260141b61109e565b6001600160401b0316101561089157505f919050565b6001600160a01b0382165f908152600660205260409020546108bf906001600160401b03164260141b61109e565b6040516370a0823160e01b81526001600160a01b0384811660048301526001600160401b0392909216917f000000000000000000000000000000000000000000000000000000000000000016906370a0823190602401602060405180830381865afa158015610930573d5f803e3d5ffd5b505050506040513d601f19601f82011682018060405250810190610954919061114e565b6105c19190611110565b61096781610429565b15155f036107f957604051634edf34e760e11b815260040160405180910390fd5b5f6109938383610d57565b61099b575f80fd5b5f6109a585610847565b90505f5b83811015610a33575f8585838181106109c4576109c46110be565b90506020020160208101906109d99190610f2e565b9050866001600160a01b0316816001600160a01b0316036109f8575f80fd5b610a028782610e2c565b610a0a575f80fd5b610a1381610847565b610a1d90846110e5565b9250508080610a2b906110f8565b9150506109a9565b50949350505050565b5f6001600160a01b038316610a5257505f6105c1565b5f610a5c84610847565b6040516370a0823160e01b81526001600160a01b0386811660048301529192505f9185917f0000000000000000000000000000000000000000000000000000000000000000909116906370a0823190602401602060405180830381865afa158015610ac9573d5f803e3d5ffd5b505050506040513d601f19601f82011682018060405250810190610aed919061114e565b610af791906110e5565b9050610b03818361113b565b610b19906001600160401b034260141b166110d2565b6001600160a01b0386165f908152600660205260409020805467ffffffffffffffff19166001600160401b0392909216919091179055610b598183611165565b95945050505050565b4260141b5f6001600160a01b03851615610bbb576001600160a01b0385165f908152600660205260409020548490610ba3906001600160401b03168461109e565b6001600160401b0316610bb69190611110565b610bbd565b5f5b90508281610bc96105c7565b610bd391906110d2565b610bdd91906110d2565b6001600160c01b0316600355506001600160401b0316600455505050565b5f80610c0684610847565b9050808310610c4d576001600160a01b0384165f908152600660205260409020805467ffffffffffffffff19164260141b6001600160401b031617905591508190506105c1565b6040516370a0823160e01b81526001600160a01b0385811660048301527f000000000000000000000000000000000000000000000000000000000000000016906370a0823190602401602060405180830381865afa158015610cb1573d5f803e3d5ffd5b505050506040513d601f19601f82011682018060405250810190610cd5919061114e565b610cdf84836110d2565b610ce9919061113b565b610cff906001600160401b034260141b166110d2565b6001600160a01b0385165f908152600660205260409020805467ffffffffffffffff19166001600160401b0392909216919091179055610d3e84610847565b610d4890826110d2565b9150506105c1565b5092915050565b5f60018211610d68575060016105c1565b5f83835f818110610d7b57610d7b6110be565b9050602002016020810190610d909190610f2e565b905060015b83811015610e2157816001600160a01b0316858583818110610db957610db96110be565b9050602002016020810190610dce9190610f2e565b6001600160a01b031611610de6575f925050506105c1565b848482818110610df857610df86110be565b9050602002016020810190610e0d9190610f2e565b915080610e19816110f8565b915050610d95565b5060019150506105c1565b5f826001600160a01b0316826001600160a01b031603610e4e575060016105c1565b6001600160a01b038216610e6357505f6105c1565b6001600160a01b038083165f90815260056020526040902054610e8891859116610e2c565b90506105c1565b5f6020808352835180828501525f5b81811015610eba57858101830151858201604001528201610e9e565b505f604082860101526040601f19601f8301168501019250505092915050565b80356001600160a01b0381168114610ef0575f80fd5b919050565b5f805f60608486031215610f07575f80fd5b610f1084610eda565b9250610f1e60208501610eda565b9150604084013590509250925092565b5f60208284031215610f3e575f80fd5b610f4782610eda565b9392505050565b5f8083601f840112610f5e575f80fd5b5081356001600160401b03811115610f74575f80fd5b6020830191508360208260051b8501011115610f8e575f80fd5b9250929050565b5f805f60408486031215610fa7575f80fd5b83356001600160401b03811115610fbc575f80fd5b610fc886828701610f4e565b909790965060209590950135949350505050565b5f805f60408486031215610fee575f80fd5b610ff784610eda565b925060208401356001600160401b03811115611011575f80fd5b61101d86828701610f4e565b9497909650939450505050565b5f806040838503121561103b575f80fd5b61104483610eda565b946020939093013593505050565b600181811c9082168061106657607f821691505b60208210810361108457634e487b7160e01b5f52602260045260245ffd5b50919050565b634e487b7160e01b5f52601160045260245ffd5b6001600160401b03828116828216039080821115610d5057610d5061108a565b634e487b7160e01b5f52603260045260245ffd5b818103818111156105c1576105c161108a565b808201808211156105c1576105c161108a565b5f600182016111095761110961108a565b5060010190565b80820281158282048414176105c1576105c161108a565b634e487b7160e01b5f52601260045260245ffd5b5f8261114957611149611127565b500490565b5f6020828403121561115e575f80fd5b5051919050565b5f8261117357611173611127565b50069056fea26469706673582212200783ec6ac3f548543ae4383defeb320ddc9188b101ce47403fc386400813307664736f6c6343000814003360a060405234801561000f575f80fd5b506040516102cb3803806102cb83398101604081905261002e9161003f565b6001600160a01b031660805261006c565b5f6020828403121561004f575f80fd5b81516001600160a01b0381168114610065575f80fd5b9392505050565b6080516102426100895f395f8181605e015260ef01526102425ff3fe608060405234801561000f575f80fd5b5060043610610055575f3560e01c806311df999514610059578063ad46cf911461009d578063bd245a43146100b2578063f6153ccd146100c9578063f734de51146100d1575b5f80fd5b6100807f000000000000000000000000000000000000000000000000000000000000000081565b6040516001600160a01b0390911681526020015b60405180910390f35b6100b06100ab3660046101b2565b6100da565b005b6100bb60015481565b604051908152602001610094565b6100bb5f5481565b6100bb60025481565b6040516356f020d960e11b81523360048201527f00000000000000000000000000000000000000000000000000000000000000006001600160a01b03169063ade041b2906024015f6040518083038186803b158015610137575f80fd5b505afa158015610149573d5f803e3d5ffd5b50505050805f8082825461015d91906101e7565b90915550505f546040516001600160a01b038416917fac17467909f103daacbc1d9dc24c20e2624f5be6442db6c14bd5ab4b5b33f5e4916101a691858252602082015260400190565b60405180910390a25050565b5f80604083850312156101c3575f80fd5b82356001600160a01b03811681146101d9575f80fd5b946020939093013593505050565b8082018082111561020657634e487b7160e01b5f52601160045260245ffd5b9291505056fea264697066735822122063c5adca85bce856301ce891b8c7316219db496944f8528088c29464b92447db64736f6c63430008140033",
			"opcodes": "PUSH1 0xE0 PUSH1 0x40 MSTORE PUSH2 0x1388 PUSH1 0xD SSTORE PUSH9 0x3635C9ADC5DEA00000 PUSH1 0xE SSTORE CALLVALUE DUP1 ISZERO PUSH3 0x23 JUMPI PUSH0 DUP1 REVERT JUMPDEST POP PUSH1 0x40 MLOAD DUP1 PUSH1 0x40 ADD PUSH1 0x40 MSTORE DUP1 PUSH1 0xA DUP2 MSTORE PUSH1 0x20 ADD PUSH10 0x29BA30B13632B1B7B4B7 PUSH1 0xB1 SHL DUP2 MSTORE POP PUSH1 0x40 MLOAD DUP1 PUSH1 0x40 ADD PUSH1 0x40 MSTORE DUP1 PUSH1 0x4 DUP2 MSTORE PUSH1 0x20 ADD PUSH4 0x14D51093 PUSH1 0xE2 SHL DUP2 MSTORE POP DUP2 PUSH1 0x3 SWAP1 DUP2 PUSH3 0x75 SWAP2 SWAP1 PUSH3 0x29B JUMP JUMPDEST POP PUSH1 0x4 PUSH3 0x84 DUP3 DUP3 PUSH3 0x29B JUMP JUMPDEST POP POP POP ADDRESS PUSH2 0x4E20 PUSH1 0x5A PUSH1 0x40 MLOAD PUSH3 0x9B SWAP1 PUSH3 0x1D1 JUMP JUMPDEST PUSH1 0x1 PUSH1 0x1 PUSH1 0xA0 SHL SUB SWAP1 SWAP4 AND DUP4 MSTORE PUSH1 0x80 PUSH1 0x20 DUP5 ADD DUP2 SWAP1 MSTORE PUSH1 0x5 SWAP1 DUP5 ADD MSTORE PUSH5 0x566F746573 PUSH1 0xD8 SHL PUSH1 0xA0 DUP5 ADD MSTORE PUSH4 0xFFFFFFFF SWAP1 SWAP2 AND PUSH1 0x40 DUP4 ADD MSTORE PUSH1 0xFF AND PUSH1 0x60 DUP3 ADD MSTORE PUSH1 0xC0 ADD PUSH1 0x40 MLOAD DUP1 SWAP2 SUB SWAP1 PUSH0 CREATE DUP1 ISZERO DUP1 ISZERO PUSH3 0xF7 JUMPI RETURNDATASIZE PUSH0 DUP1 RETURNDATACOPY RETURNDATASIZE PUSH0 REVERT JUMPDEST POP PUSH1 0x1 PUSH1 0x1 PUSH1 0xA0 SHL SUB AND PUSH1 0x80 MSTORE PUSH1 0x40 MLOAD ADDRESS SWAP1 PUSH0 SWAP1 PUSH1 0x3 SWAP1 PUSH3 0x119 SWAP1 PUSH3 0x1DF JUMP JUMPDEST PUSH1 0x1 PUSH1 0x1 PUSH1 0xA0 SHL SUB SWAP1 SWAP4 AND DUP4 MSTORE PUSH1 0x80 PUSH1 0x20 DUP5 ADD DUP2 SWAP1 MSTORE PUSH1 0x7 SWAP1 DUP5 ADD MSTORE PUSH7 0x536176696E6773 PUSH1 0xC8 SHL PUSH1 0xA0 DUP5 ADD MSTORE PUSH4 0xFFFFFFFF SWAP1 SWAP2 AND PUSH1 0x40 DUP4 ADD MSTORE PUSH1 0xFF AND PUSH1 0x60 DUP3 ADD MSTORE PUSH1 0xC0 ADD PUSH1 0x40 MLOAD DUP1 SWAP2 SUB SWAP1 PUSH0 CREATE DUP1 ISZERO DUP1 ISZERO PUSH3 0x177 JUMPI RETURNDATASIZE PUSH0 DUP1 RETURNDATACOPY RETURNDATASIZE PUSH0 REVERT JUMPDEST POP PUSH1 0x1 PUSH1 0x1 PUSH1 0xA0 SHL SUB AND PUSH1 0xA0 MSTORE PUSH1 0x40 MLOAD ADDRESS SWAP1 PUSH3 0x194 SWAP1 PUSH3 0x1ED JUMP JUMPDEST PUSH1 0x1 PUSH1 0x1 PUSH1 0xA0 SHL SUB SWAP1 SWAP2 AND DUP2 MSTORE PUSH1 0x20 ADD PUSH1 0x40 MLOAD DUP1 SWAP2 SUB SWAP1 PUSH0 CREATE DUP1 ISZERO DUP1 ISZERO PUSH3 0x1BE JUMPI RETURNDATASIZE PUSH0 DUP1 RETURNDATACOPY RETURNDATASIZE PUSH0 REVERT JUMPDEST POP PUSH1 0x1 PUSH1 0x1 PUSH1 0xA0 SHL SUB AND PUSH1 0xC0 MSTORE PUSH3 0x363 JUMP JUMPDEST PUSH2 0x13EB DUP1 PUSH3 0x1F78 DUP4 CODECOPY ADD SWAP1 JUMP JUMPDEST PUSH2 0x154E DUP1 PUSH3 0x3363 DUP4 CODECOPY ADD SWAP1 JUMP JUMPDEST PUSH2 0x2CB DUP1 PUSH3 0x48B1 DUP4 CODECOPY ADD SWAP1 JUMP JUMPDEST PUSH4 0x4E487B71 PUSH1 0xE0 SHL PUSH0 MSTORE PUSH1 0x41 PUSH1 0x4 MSTORE PUSH1 0x24 PUSH0 REVERT JUMPDEST PUSH1 0x1 DUP2 DUP2 SHR SWAP1 DUP3 AND DUP1 PUSH3 0x224 JUMPI PUSH1 0x7F DUP3 AND SWAP2 POP JUMPDEST PUSH1 0x20 DUP3 LT DUP2 SUB PUSH3 0x243 JUMPI PUSH4 0x4E487B71 PUSH1 0xE0 SHL PUSH0 MSTORE PUSH1 0x22 PUSH1 0x4 MSTORE PUSH1 0x24 PUSH0 REVERT JUMPDEST POP SWAP2 SWAP1 POP JUMP JUMPDEST PUSH1 0x1F DUP3 GT ISZERO PUSH3 0x296 JUMPI PUSH0 DUP2 DUP2 MSTORE PUSH1 0x20 DUP2 KECCAK256 PUSH1 0x1F DUP6 ADD PUSH1 0x5 SHR DUP2 ADD PUSH1 0x20 DUP7 LT ISZERO PUSH3 0x271 JUMPI POP DUP1 JUMPDEST PUSH1 0x1F DUP6 ADD PUSH1 0x5 SHR DUP3 ADD SWAP2 POP JUMPDEST DUP2 DUP2 LT ISZERO PUSH3 0x292 JUMPI DUP3 DUP2 SSTORE PUSH1 0x1 ADD PUSH3 0x27D JUMP JUMPDEST POP POP POP JUMPDEST POP POP POP JUMP JUMPDEST DUP2 MLOAD PUSH1 0x1 PUSH1 0x1 PUSH1 0x40 SHL SUB DUP2 GT ISZERO PUSH3 0x2B7 JUMPI PUSH3 0x2B7 PUSH3 0x1FB JUMP JUMPDEST PUSH3 0x2CF DUP2 PUSH3 0x2C8 DUP5 SLOAD PUSH3 0x20F JUMP JUMPDEST DUP5 PUSH3 0x249 JUMP JUMPDEST PUSH1 0x20 DUP1 PUSH1 0x1F DUP4 GT PUSH1 0x1 DUP2 EQ PUSH3 0x305 JUMPI PUSH0 DUP5 ISZERO PUSH3 0x2ED JUMPI POP DUP6 DUP4 ADD MLOAD JUMPDEST PUSH0 NOT PUSH1 0x3 DUP7 SWAP1 SHL SHR NOT AND PUSH1 0x1 DUP6 SWAP1 SHL OR DUP6 SSTORE PUSH3 0x292 JUMP JUMPDEST PUSH0 DUP6 DUP2 MSTORE PUSH1 0x20 DUP2 KECCAK256 PUSH1 0x1F NOT DUP7 AND SWAP2 JUMPDEST DUP3 DUP2 LT ISZERO PUSH3 0x335 JUMPI DUP9 DUP7 ADD MLOAD DUP3 SSTORE SWAP5 DUP5 ADD SWAP5 PUSH1 0x1 SWAP1 SWAP2 ADD SWAP1 DUP5 ADD PUSH3 0x314 JUMP JUMPDEST POP DUP6 DUP3 LT ISZERO PUSH3 0x353 JUMPI DUP8 DUP6 ADD MLOAD PUSH0 NOT PUSH1 0x3 DUP9 SWAP1 SHL PUSH1 0xF8 AND SHR NOT AND DUP2 SSTORE JUMPDEST POP POP POP POP POP PUSH1 0x1 SWAP1 DUP2 SHL ADD SWAP1 SSTORE POP JUMP JUMPDEST PUSH1 0x80 MLOAD PUSH1 0xA0 MLOAD PUSH1 0xC0 MLOAD PUSH2 0x1BAB PUSH3 0x3CD PUSH0 CODECOPY PUSH0 DUP2 DUP2 PUSH2 0x523 ADD MSTORE DUP2 DUP2 PUSH2 0xD8C ADD MSTORE DUP2 DUP2 PUSH2 0xE36 ADD MSTORE PUSH2 0xE66 ADD MSTORE PUSH0 DUP2 DUP2 PUSH2 0x4E4 ADD MSTORE DUP2 DUP2 PUSH2 0xF06 ADD MSTORE DUP2 DUP2 PUSH2 0xF39 ADD MSTORE PUSH2 0x15CE ADD MSTORE PUSH0 DUP2 DUP2 PUSH2 0x587 ADD MSTORE DUP2 DUP2 PUSH2 0x9C6 ADD MSTORE DUP2 DUP2 PUSH2 0x1190 ADD MSTORE PUSH2 0x154B ADD MSTORE PUSH2 0x1BAB PUSH0 RETURN INVALID PUSH1 0x80 PUSH1 0x40 MSTORE CALLVALUE DUP1 ISZERO PUSH2 0xF JUMPI PUSH0 DUP1 REVERT JUMPDEST POP PUSH1 0x4 CALLDATASIZE LT PUSH2 0x26B JUMPI PUSH0 CALLDATALOAD PUSH1 0xE0 SHR DUP1 PUSH4 0x86001519 GT PUSH2 0x14B JUMPI DUP1 PUSH4 0xC86D6AE4 GT PUSH2 0xBF JUMPI DUP1 PUSH4 0xE168C3EC GT PUSH2 0x84 JUMPI DUP1 PUSH4 0xE168C3EC EQ PUSH2 0x582 JUMPI DUP1 PUSH4 0xE8893A64 EQ PUSH2 0x5A9 JUMPI DUP1 PUSH4 0xEC3E1E2C EQ PUSH2 0x5BC JUMPI DUP1 PUSH4 0xF4703EB9 EQ PUSH2 0x5C5 JUMPI DUP1 PUSH4 0xF4A3DD4E EQ PUSH2 0x5E4 JUMPI DUP1 PUSH4 0xFC4EE32F EQ PUSH2 0x5F7 JUMPI PUSH0 DUP1 REVERT JUMPDEST DUP1 PUSH4 0xC86D6AE4 EQ PUSH2 0x4DF JUMPI DUP1 PUSH4 0xC89F2CE4 EQ PUSH2 0x51E JUMPI DUP1 PUSH4 0xD018E423 EQ PUSH2 0x545 JUMPI DUP1 PUSH4 0xD1E5E46F EQ PUSH2 0x564 JUMPI DUP1 PUSH4 0xDD62ED3E EQ PUSH2 0x56F JUMPI PUSH0 DUP1 REVERT JUMPDEST DUP1 PUSH4 0x9C6BA002 GT PUSH2 0x110 JUMPI DUP1 PUSH4 0x9C6BA002 EQ PUSH2 0x467 JUMPI DUP1 PUSH4 0xA9059CBB EQ PUSH2 0x47A JUMPI DUP1 PUSH4 0xAA271E1A EQ PUSH2 0x48D JUMPI DUP1 PUSH4 0xADE041B2 EQ PUSH2 0x4AF JUMPI DUP1 PUSH4 0xB789BB1A EQ PUSH2 0x4C2 JUMPI DUP1 PUSH4 0xBA035212 EQ PUSH2 0x4D5 JUMPI PUSH0 DUP1 REVERT JUMPDEST DUP1 PUSH4 0x86001519 EQ PUSH2 0x43B JUMPI DUP1 PUSH4 0x86F90145 EQ PUSH2 0x444 JUMPI DUP1 PUSH4 0x8B7A5513 EQ PUSH2 0x44D JUMPI DUP1 PUSH4 0x95D89B41 EQ PUSH2 0x456 JUMPI DUP1 PUSH4 0x96E68D6D EQ PUSH2 0x45E JUMPI PUSH0 DUP1 REVERT JUMPDEST DUP1 PUSH4 0x2FCC98D0 GT PUSH2 0x1E2 JUMPI DUP1 PUSH4 0x452EC4FE GT PUSH2 0x1A7 JUMPI DUP1 PUSH4 0x452EC4FE EQ PUSH2 0x3B0 JUMPI DUP1 PUSH4 0x47FF7F53 EQ PUSH2 0x3D2 JUMPI DUP1 PUSH4 0x5AD6410A EQ PUSH2 0x3E5 JUMPI DUP1 PUSH4 0x70A08231 EQ PUSH2 0x3F8 JUMPI DUP1 PUSH4 0x79A93B69 EQ PUSH2 0x420 JUMPI DUP1 PUSH4 0x7EB7047A EQ PUSH2 0x428 JUMPI PUSH0 DUP1 REVERT JUMPDEST DUP1 PUSH4 0x2FCC98D0 EQ PUSH2 0x349 JUMPI DUP1 PUSH4 0x313CE567 EQ PUSH2 0x35C JUMPI DUP1 PUSH4 0x33246CC8 EQ PUSH2 0x36B JUMPI DUP1 PUSH4 0x3D0DC969 EQ PUSH2 0x37E JUMPI DUP1 PUSH4 0x40C10F19 EQ PUSH2 0x39D JUMPI PUSH0 DUP1 REVERT JUMPDEST DUP1 PUSH4 0x16238949 GT PUSH2 0x233 JUMPI DUP1 PUSH4 0x16238949 EQ PUSH2 0x2EB JUMPI DUP1 PUSH4 0x18160DDD EQ PUSH2 0x2FE JUMPI DUP1 PUSH4 0x183000B3 EQ PUSH2 0x306 JUMPI DUP1 PUSH4 0x219502F1 EQ PUSH2 0x30F JUMPI DUP1 PUSH4 0x23B872DD EQ PUSH2 0x317 JUMPI DUP1 PUSH4 0x25D069BC EQ PUSH2 0x32A JUMPI PUSH0 DUP1 REVERT JUMPDEST DUP1 PUSH4 0x310B56B EQ PUSH2 0x26F JUMPI DUP1 PUSH4 0x6FDDE03 EQ PUSH2 0x297 JUMPI DUP1 PUSH4 0x95EA7B3 EQ PUSH2 0x2AC JUMPI DUP1 PUSH4 0xD457EE1 EQ PUSH2 0x2BF JUMPI DUP1 PUSH4 0x14E9B812 EQ PUSH2 0x2D6 JUMPI JUMPDEST PUSH0 DUP1 REVERT JUMPDEST PUSH2 0x282 PUSH2 0x27D CALLDATASIZE PUSH1 0x4 PUSH2 0x1761 JUMP JUMPDEST PUSH2 0x60A JUMP JUMPDEST PUSH1 0x40 MLOAD SWAP1 ISZERO ISZERO DUP2 MSTORE PUSH1 0x20 ADD JUMPDEST PUSH1 0x40 MLOAD DUP1 SWAP2 SUB SWAP1 RETURN JUMPDEST PUSH2 0x29F PUSH2 0x6AC JUMP JUMPDEST PUSH1 0x40 MLOAD PUSH2 0x28E SWAP2 SWAP1 PUSH2 0x177A JUMP JUMPDEST PUSH2 0x282 PUSH2 0x2BA CALLDATASIZE PUSH1 0x4 PUSH2 0x17C5 JUMP JUMPDEST PUSH2 0x73C JUMP JUMPDEST PUSH2 0x2C8 PUSH1 0xC SLOAD DUP2 JUMP JUMPDEST PUSH1 0x40 MLOAD SWAP1 DUP2 MSTORE PUSH1 0x20 ADD PUSH2 0x28E JUMP JUMPDEST PUSH2 0x2E9 PUSH2 0x2E4 CALLDATASIZE PUSH1 0x4 PUSH2 0x1761 JUMP JUMPDEST PUSH2 0x755 JUMP JUMPDEST STOP JUMPDEST PUSH2 0x2E9 PUSH2 0x2F9 CALLDATASIZE PUSH1 0x4 PUSH2 0x1761 JUMP JUMPDEST PUSH2 0x7B5 JUMP JUMPDEST PUSH1 0x2 SLOAD PUSH2 0x2C8 JUMP JUMPDEST PUSH2 0x2C8 PUSH1 0xE SLOAD DUP2 JUMP JUMPDEST PUSH2 0x2E9 PUSH2 0x7E1 JUMP JUMPDEST PUSH2 0x282 PUSH2 0x325 CALLDATASIZE PUSH1 0x4 PUSH2 0x17ED JUMP JUMPDEST PUSH2 0x88B JUMP JUMPDEST PUSH2 0x2C8 PUSH2 0x338 CALLDATASIZE PUSH1 0x4 PUSH2 0x1761 JUMP JUMPDEST PUSH1 0xA PUSH1 0x20 MSTORE PUSH0 SWAP1 DUP2 MSTORE PUSH1 0x40 SWAP1 KECCAK256 SLOAD DUP2 JUMP JUMPDEST PUSH2 0x282 PUSH2 0x357 CALLDATASIZE PUSH1 0x4 PUSH2 0x1761 JUMP JUMPDEST PUSH2 0x8AE JUMP JUMPDEST PUSH1 0x40 MLOAD PUSH1 0x12 DUP2 MSTORE PUSH1 0x20 ADD PUSH2 0x28E JUMP JUMPDEST PUSH2 0x2E9 PUSH2 0x379 CALLDATASIZE PUSH1 0x4 PUSH2 0x186B JUMP JUMPDEST PUSH2 0x8C6 JUMP JUMPDEST PUSH2 0x2C8 PUSH2 0x38C CALLDATASIZE PUSH1 0x4 PUSH2 0x1761 JUMP JUMPDEST PUSH1 0x6 PUSH1 0x20 MSTORE PUSH0 SWAP1 DUP2 MSTORE PUSH1 0x40 SWAP1 KECCAK256 SLOAD DUP2 JUMP JUMPDEST PUSH2 0x2E9 PUSH2 0x3AB CALLDATASIZE PUSH1 0x4 PUSH2 0x17C5 JUMP JUMPDEST PUSH2 0x975 JUMP JUMPDEST PUSH2 0x282 PUSH2 0x3BE CALLDATASIZE PUSH1 0x4 PUSH2 0x1761 JUMP JUMPDEST PUSH1 0x8 PUSH1 0x20 MSTORE PUSH0 SWAP1 DUP2 MSTORE PUSH1 0x40 SWAP1 KECCAK256 SLOAD PUSH1 0xFF AND DUP2 JUMP JUMPDEST PUSH2 0x2E9 PUSH2 0x3E0 CALLDATASIZE PUSH1 0x4 PUSH2 0x1908 JUMP JUMPDEST PUSH2 0x9AF JUMP JUMPDEST PUSH2 0x2E9 PUSH2 0x3F3 CALLDATASIZE PUSH1 0x4 PUSH2 0x1761 JUMP JUMPDEST PUSH2 0x786 JUMP JUMPDEST PUSH2 0x2C8 PUSH2 0x406 CALLDATASIZE PUSH1 0x4 PUSH2 0x1761 JUMP JUMPDEST PUSH1 0x1 PUSH1 0x1 PUSH1 0xA0 SHL SUB AND PUSH0 SWAP1 DUP2 MSTORE PUSH1 0x20 DUP2 SWAP1 MSTORE PUSH1 0x40 SWAP1 KECCAK256 SLOAD SWAP1 JUMP JUMPDEST PUSH2 0x2C8 PUSH1 0x3 DUP2 JUMP JUMPDEST PUSH2 0x2E9 PUSH2 0x436 CALLDATASIZE PUSH1 0x4 PUSH2 0x186B JUMP JUMPDEST PUSH2 0xC85 JUMP JUMPDEST PUSH2 0x2C8 PUSH1 0xB SLOAD DUP2 JUMP JUMPDEST PUSH2 0x2C8 PUSH1 0x11 SLOAD DUP2 JUMP JUMPDEST PUSH2 0x2C8 PUSH1 0x10 SLOAD DUP2 JUMP JUMPDEST PUSH2 0x29F PUSH2 0xD27 JUMP JUMPDEST PUSH2 0x2C8 PUSH1 0xD SLOAD DUP2 JUMP JUMPDEST PUSH2 0x2E9 PUSH2 0x475 CALLDATASIZE PUSH1 0x4 PUSH2 0x17C5 JUMP JUMPDEST PUSH2 0xD36 JUMP JUMPDEST PUSH2 0x282 PUSH2 0x488 CALLDATASIZE PUSH1 0x4 PUSH2 0x17C5 JUMP JUMPDEST PUSH2 0x102F JUMP JUMPDEST PUSH2 0x282 PUSH2 0x49B CALLDATASIZE PUSH1 0x4 PUSH2 0x1761 JUMP JUMPDEST PUSH1 0x5 PUSH1 0x20 MSTORE PUSH0 SWAP1 DUP2 MSTORE PUSH1 0x40 SWAP1 KECCAK256 SLOAD PUSH1 0xFF AND DUP2 JUMP JUMPDEST PUSH2 0x2E9 PUSH2 0x4BD CALLDATASIZE PUSH1 0x4 PUSH2 0x1761 JUMP JUMPDEST PUSH2 0x103C JUMP JUMPDEST PUSH2 0x282 PUSH2 0x4D0 CALLDATASIZE PUSH1 0x4 PUSH2 0x1761 JUMP JUMPDEST PUSH2 0x1066 JUMP JUMPDEST PUSH2 0x2C8 PUSH3 0x278D00 DUP2 JUMP JUMPDEST PUSH2 0x506 PUSH32 0x0 DUP2 JUMP JUMPDEST PUSH1 0x40 MLOAD PUSH1 0x1 PUSH1 0x1 PUSH1 0xA0 SHL SUB SWAP1 SWAP2 AND DUP2 MSTORE PUSH1 0x20 ADD PUSH2 0x28E JUMP JUMPDEST PUSH2 0x506 PUSH32 0x0 DUP2 JUMP JUMPDEST PUSH2 0x2C8 PUSH2 0x553 CALLDATASIZE PUSH1 0x4 PUSH2 0x1761 JUMP JUMPDEST PUSH1 0x7 PUSH1 0x20 MSTORE PUSH0 SWAP1 DUP2 MSTORE PUSH1 0x40 SWAP1 KECCAK256 SLOAD DUP2 JUMP JUMPDEST PUSH2 0x2C8 PUSH4 0x3C26700 DUP2 JUMP JUMPDEST PUSH2 0x2C8 PUSH2 0x57D CALLDATASIZE PUSH1 0x4 PUSH2 0x1995 JUMP JUMPDEST PUSH2 0x1100 JUMP JUMPDEST PUSH2 0x506 PUSH32 0x0 DUP2 JUMP JUMPDEST PUSH2 0x282 PUSH2 0x5B7 CALLDATASIZE PUSH1 0x4 PUSH2 0x1761 JUMP JUMPDEST PUSH2 0x1148 JUMP JUMPDEST PUSH2 0x2C8 PUSH1 0xF SLOAD DUP2 JUMP JUMPDEST PUSH2 0x2C8 PUSH2 0x5D3 CALLDATASIZE PUSH1 0x4 PUSH2 0x1761 JUMP JUMPDEST PUSH1 0x9 PUSH1 0x20 MSTORE PUSH0 SWAP1 DUP2 MSTORE PUSH1 0x40 SWAP1 KECCAK256 SLOAD DUP2 JUMP JUMPDEST PUSH2 0x2E9 PUSH2 0x5F2 CALLDATASIZE PUSH1 0x4 PUSH2 0x19C6 JUMP JUMPDEST PUSH2 0x1179 JUMP JUMPDEST PUSH2 0x2E9 PUSH2 0x605 CALLDATASIZE PUSH1 0x4 PUSH2 0x17C5 JUMP JUMPDEST PUSH2 0x128A JUMP JUMPDEST PUSH1 0x1 PUSH1 0x1 PUSH1 0xA0 SHL SUB DUP2 AND PUSH0 SWAP1 DUP2 MSTORE PUSH1 0x8 PUSH1 0x20 MSTORE PUSH1 0x40 DUP2 KECCAK256 SLOAD PUSH1 0xFF AND ISZERO ISZERO DUP2 SUB PUSH2 0x634 JUMPI POP PUSH0 SWAP2 SWAP1 POP JUMP JUMPDEST PUSH1 0x1 PUSH1 0x1 PUSH1 0xA0 SHL SUB DUP3 AND PUSH0 SWAP1 DUP2 MSTORE PUSH1 0x9 PUSH1 0x20 MSTORE PUSH1 0x40 DUP2 KECCAK256 SLOAD SWAP1 SUB PUSH2 0x659 JUMPI POP PUSH0 SWAP2 SWAP1 POP JUMP JUMPDEST PUSH1 0x1 PUSH1 0x1 PUSH1 0xA0 SHL SUB DUP3 AND PUSH0 SWAP1 DUP2 MSTORE PUSH1 0x9 PUSH1 0x20 MSTORE PUSH1 0x40 SWAP1 KECCAK256 SLOAD TIMESTAMP LT ISZERO PUSH2 0x67F JUMPI POP PUSH0 SWAP2 SWAP1 POP JUMP JUMPDEST PUSH1 0x1 PUSH1 0x1 PUSH1 0xA0 SHL SUB DUP3 AND PUSH0 SWAP1 DUP2 MSTORE PUSH1 0xA PUSH1 0x20 MSTORE PUSH1 0x40 SWAP1 KECCAK256 SLOAD TIMESTAMP LT PUSH2 0x6A4 JUMPI POP PUSH0 SWAP2 SWAP1 POP JUMP JUMPDEST POP PUSH1 0x1 SWAP2 SWAP1 POP JUMP JUMPDEST PUSH1 0x60 PUSH1 0x3 DUP1 SLOAD PUSH2 0x6BB SWAP1 PUSH2 0x1A15 JUMP JUMPDEST DUP1 PUSH1 0x1F ADD PUSH1 0x20 DUP1 SWAP2 DIV MUL PUSH1 0x20 ADD PUSH1 0x40 MLOAD SWAP1 DUP2 ADD PUSH1 0x40 MSTORE DUP1 SWAP3 SWAP2 SWAP1 DUP2 DUP2 MSTORE PUSH1 0x20 ADD DUP3 DUP1 SLOAD PUSH2 0x6E7 SWAP1 PUSH2 0x1A15 JUMP JUMPDEST DUP1 ISZERO PUSH2 0x732 JUMPI DUP1 PUSH1 0x1F LT PUSH2 0x709 JUMPI PUSH2 0x100 DUP1 DUP4 SLOAD DIV MUL DUP4 MSTORE SWAP2 PUSH1 0x20 ADD SWAP2 PUSH2 0x732 JUMP JUMPDEST DUP3 ADD SWAP2 SWAP1 PUSH0 MSTORE PUSH1 0x20 PUSH0 KECCAK256 SWAP1 JUMPDEST DUP2 SLOAD DUP2 MSTORE SWAP1 PUSH1 0x1 ADD SWAP1 PUSH1 0x20 ADD DUP1 DUP4 GT PUSH2 0x715 JUMPI DUP3 SWAP1 SUB PUSH1 0x1F AND DUP3 ADD SWAP2 JUMPDEST POP POP POP POP POP SWAP1 POP SWAP1 JUMP JUMPDEST PUSH0 CALLER PUSH2 0x749 DUP2 DUP6 DUP6 PUSH2 0x1327 JUMP JUMPDEST PUSH1 0x1 SWAP2 POP POP JUMPDEST SWAP3 SWAP2 POP POP JUMP JUMPDEST PUSH2 0x75E CALLER PUSH2 0x1066 JUMP JUMPDEST ISZERO ISZERO PUSH0 SUB PUSH2 0x786 JUMPI PUSH1 0x40 MLOAD PUSH4 0x1B0E18F9 PUSH1 0xE1 SHL DUP2 MSTORE CALLER PUSH1 0x4 DUP3 ADD MSTORE PUSH1 0x24 ADD JUMPDEST PUSH1 0x40 MLOAD DUP1 SWAP2 SUB SWAP1 REVERT JUMPDEST PUSH2 0x78F CALLER PUSH2 0x60A JUMP JUMPDEST ISZERO ISZERO PUSH0 SUB PUSH2 0x7B2 JUMPI PUSH1 0x40 MLOAD PUSH4 0x28C92525 PUSH1 0xE2 SHL DUP2 MSTORE CALLER PUSH1 0x4 DUP3 ADD MSTORE PUSH1 0x24 ADD PUSH2 0x77D JUMP JUMPDEST POP JUMP JUMPDEST PUSH2 0x7BE CALLER PUSH2 0x1066 JUMP JUMPDEST ISZERO ISZERO PUSH0 SUB PUSH2 0x7B2 JUMPI PUSH1 0x40 MLOAD PUSH4 0x1B0E18F9 PUSH1 0xE1 SHL DUP2 MSTORE CALLER PUSH1 0x4 DUP3 ADD MSTORE PUSH1 0x24 ADD PUSH2 0x77D JUMP JUMPDEST TIMESTAMP PUSH1 0x11 SLOAD LT ISZERO PUSH2 0x804 JUMPI PUSH1 0x40 MLOAD PUSH4 0x4065AAF1 PUSH1 0xE1 SHL DUP2 MSTORE PUSH1 0x4 ADD PUSH1 0x40 MLOAD DUP1 SWAP2 SUB SWAP1 REVERT JUMPDEST PUSH1 0xF SLOAD PUSH1 0xD SLOAD EQ DUP1 ISZERO PUSH2 0x81A JUMPI POP PUSH1 0x10 SLOAD PUSH1 0xE SLOAD EQ JUMPDEST ISZERO PUSH2 0x838 JUMPI PUSH1 0x40 MLOAD PUSH4 0xA88EE577 PUSH1 0xE0 SHL DUP2 MSTORE PUSH1 0x4 ADD PUSH1 0x40 MLOAD DUP1 SWAP2 SUB SWAP1 REVERT JUMPDEST PUSH1 0xF SLOAD PUSH1 0xD DUP2 SWAP1 SSTORE PUSH1 0x10 SLOAD PUSH1 0xE DUP2 SWAP1 SSTORE PUSH1 0x40 MLOAD CALLER SWAP3 PUSH32 0xBFC9279D3D1F16151DE729EF01BCFC1B24E915F8AB81EC8082E305C75F58D651 SWAP3 PUSH2 0x881 SWAP3 SWAP2 DUP3 MSTORE PUSH1 0x20 DUP3 ADD MSTORE PUSH1 0x40 ADD SWAP1 JUMP JUMPDEST PUSH1 0x40 MLOAD DUP1 SWAP2 SUB SWAP1 LOG2 JUMP JUMPDEST PUSH0 CALLER PUSH2 0x898 DUP6 DUP3 DUP6 PUSH2 0x1339 JUMP JUMPDEST PUSH2 0x8A3 DUP6 DUP6 DUP6 PUSH2 0x139C JUMP JUMPDEST POP PUSH1 0x1 SWAP5 SWAP4 POP POP POP POP JUMP JUMPDEST PUSH0 PUSH1 0x1 PUSH1 0x1 PUSH1 0xA0 SHL SUB DUP3 AND ADDRESS EQ PUSH2 0x6A4 JUMPI POP PUSH0 SWAP2 SWAP1 POP JUMP JUMPDEST PUSH0 PUSH2 0x8D0 PUSH1 0x2 SLOAD SWAP1 JUMP JUMPDEST GT ISZERO PUSH2 0x8EF JUMPI PUSH1 0x40 MLOAD PUSH4 0xA88EE577 PUSH1 0xE0 SHL DUP2 MSTORE PUSH1 0x4 ADD PUSH1 0x40 MLOAD DUP1 SWAP2 SUB SWAP1 REVERT JUMPDEST PUSH1 0x1 PUSH1 0x1 PUSH1 0xA0 SHL SUB DUP4 AND PUSH0 DUP2 DUP2 MSTORE PUSH1 0x5 PUSH1 0x20 SWAP1 DUP2 MSTORE PUSH1 0x40 DUP1 DUP4 KECCAK256 DUP1 SLOAD PUSH1 0xFF NOT AND PUSH1 0x1 SWAP1 DUP2 OR SWAP1 SWAP2 SSTORE PUSH1 0x6 DUP4 MSTORE DUP2 DUP5 KECCAK256 TIMESTAMP SWAP1 DUP2 SWAP1 SSTORE PUSH1 0x7 SWAP1 SWAP4 MSTORE SWAP3 DUP2 SWAP1 KECCAK256 PUSH0 NOT SWAP1 DUP2 SWAP1 SSTORE SWAP1 MLOAD CALLER SWAP4 PUSH32 0xFDD005E1146A6C5AE78784F84B0D58180F3A0C9AE99A3DBF3605095D22E6115C SWAP4 PUSH2 0x968 SWAP4 DUP10 SWAP4 DUP10 SWAP4 SWAP3 SWAP2 SWAP1 PUSH2 0x1A4D JUMP JUMPDEST PUSH1 0x40 MLOAD DUP1 SWAP2 SUB SWAP1 LOG3 POP POP POP JUMP JUMPDEST PUSH2 0x97E CALLER PUSH2 0x1066 JUMP JUMPDEST ISZERO ISZERO PUSH0 SUB PUSH2 0x9A1 JUMPI PUSH1 0x40 MLOAD PUSH4 0x1B0E18F9 PUSH1 0xE1 SHL DUP2 MSTORE CALLER PUSH1 0x4 DUP3 ADD MSTORE PUSH1 0x24 ADD PUSH2 0x77D JUMP JUMPDEST PUSH2 0x9AB DUP3 DUP3 PUSH2 0x13F9 JUMP JUMPDEST POP POP JUMP JUMPDEST PUSH1 0x40 MLOAD PUSH4 0xA0B22B1B PUSH1 0xE0 SHL DUP2 MSTORE PUSH1 0x1 PUSH1 0x1 PUSH1 0xA0 SHL SUB PUSH32 0x0 AND SWAP1 PUSH4 0xA0B22B1B SWAP1 PUSH2 0x9FF SWAP1 CALLER SWAP1 DUP7 SWAP1 DUP7 SWAP1 PUSH1 0x4 ADD PUSH2 0x1A91 JUMP JUMPDEST PUSH1 0x20 PUSH1 0x40 MLOAD DUP1 DUP4 SUB DUP2 DUP7 GAS STATICCALL ISZERO DUP1 ISZERO PUSH2 0xA1A JUMPI RETURNDATASIZE PUSH0 DUP1 RETURNDATACOPY RETURNDATASIZE PUSH0 REVERT JUMPDEST POP POP POP POP PUSH1 0x40 MLOAD RETURNDATASIZE PUSH1 0x1F NOT PUSH1 0x1F DUP3 ADD AND DUP3 ADD DUP1 PUSH1 0x40 MSTORE POP DUP2 ADD SWAP1 PUSH2 0xA3E SWAP2 SWAP1 PUSH2 0x1AEA JUMP JUMPDEST POP DUP5 DUP1 ISZERO PUSH2 0xA56 JUMPI POP PUSH2 0xA50 DUP7 PUSH2 0x1066 JUMP JUMPDEST ISZERO ISZERO PUSH1 0x1 EQ JUMPDEST ISZERO PUSH2 0xB0F JUMPI PUSH1 0x1 PUSH1 0x1 PUSH1 0xA0 SHL SUB DUP7 AND PUSH0 SWAP1 DUP2 MSTORE PUSH1 0x6 PUSH1 0x20 SWAP1 DUP2 MSTORE PUSH1 0x40 DUP1 DUP4 KECCAK256 SLOAD PUSH1 0x7 SWAP1 SWAP3 MSTORE DUP3 KECCAK256 SLOAD PUSH2 0xA88 SWAP2 SWAP1 PUSH2 0x1B19 JUMP JUMPDEST PUSH1 0x1 PUSH1 0x1 PUSH1 0xA0 SHL SUB DUP9 AND PUSH0 SWAP1 DUP2 MSTORE PUSH1 0x6 PUSH1 0x20 MSTORE PUSH1 0x40 DUP2 KECCAK256 SLOAD SWAP2 SWAP3 POP SWAP1 PUSH2 0xAAE SWAP1 TIMESTAMP PUSH2 0x1B19 JUMP JUMPDEST SWAP1 POP DUP2 PUSH2 0xABC DUP3 PUSH1 0x2 PUSH2 0x1B2C JUMP JUMPDEST GT PUSH2 0xADA JUMPI PUSH1 0x40 MLOAD PUSH4 0x39464F1 PUSH1 0xE3 SHL DUP2 MSTORE PUSH1 0x4 ADD PUSH1 0x40 MLOAD DUP1 SWAP2 SUB SWAP1 REVERT JUMPDEST PUSH2 0xAE5 DUP2 PUSH1 0x3 PUSH2 0x1B2C JUMP JUMPDEST PUSH2 0xAEF SWAP1 TIMESTAMP PUSH2 0x1B43 JUMP JUMPDEST PUSH1 0x1 PUSH1 0x1 PUSH1 0xA0 SHL SUB DUP10 AND PUSH0 SWAP1 DUP2 MSTORE PUSH1 0x7 PUSH1 0x20 MSTORE PUSH1 0x40 SWAP1 KECCAK256 SSTORE POP PUSH2 0xC0F SWAP1 POP JUMP JUMPDEST DUP5 DUP1 ISZERO PUSH2 0xB22 JUMPI POP PUSH2 0xB20 DUP7 PUSH2 0x1066 JUMP JUMPDEST ISZERO JUMPDEST ISZERO PUSH2 0xBA7 JUMPI PUSH1 0x1 PUSH1 0x1 PUSH1 0xA0 SHL SUB DUP7 AND PUSH0 SWAP1 DUP2 MSTORE PUSH1 0x5 PUSH1 0x20 MSTORE PUSH1 0x40 SWAP1 KECCAK256 DUP1 SLOAD PUSH1 0xFF NOT AND PUSH1 0x1 OR SWAP1 SSTORE PUSH2 0xB56 PUSH3 0x278D00 TIMESTAMP PUSH2 0x1B43 JUMP JUMPDEST PUSH1 0x1 PUSH1 0x1 PUSH1 0xA0 SHL SUB DUP8 AND PUSH0 SWAP1 DUP2 MSTORE PUSH1 0x6 PUSH1 0x20 MSTORE PUSH1 0x40 SWAP1 KECCAK256 SSTORE PUSH4 0x3C26700 PUSH2 0xB80 PUSH3 0x278D00 TIMESTAMP PUSH2 0x1B43 JUMP JUMPDEST PUSH2 0xB8A SWAP2 SWAP1 PUSH2 0x1B43 JUMP JUMPDEST PUSH1 0x1 PUSH1 0x1 PUSH1 0xA0 SHL SUB DUP8 AND PUSH0 SWAP1 DUP2 MSTORE PUSH1 0x7 PUSH1 0x20 MSTORE PUSH1 0x40 SWAP1 KECCAK256 SSTORE PUSH2 0xC0F JUMP JUMPDEST DUP5 ISZERO DUP1 ISZERO PUSH2 0xBBF JUMPI POP PUSH2 0xBB9 DUP7 PUSH2 0x1066 JUMP JUMPDEST ISZERO ISZERO PUSH1 0x1 EQ JUMPDEST ISZERO PUSH2 0xBD1 JUMPI PUSH2 0xB8A PUSH3 0x278D00 TIMESTAMP PUSH2 0x1B43 JUMP JUMPDEST DUP5 ISZERO DUP1 ISZERO PUSH2 0xBE5 JUMPI POP PUSH2 0xBE3 DUP7 PUSH2 0x1066 JUMP JUMPDEST ISZERO JUMPDEST ISZERO PUSH2 0xC0F JUMPI PUSH1 0x1 PUSH1 0x1 PUSH1 0xA0 SHL SUB DUP7 AND PUSH0 SWAP1 DUP2 MSTORE PUSH1 0x6 PUSH1 0x20 SWAP1 DUP2 MSTORE PUSH1 0x40 DUP1 DUP4 KECCAK256 SLOAD PUSH1 0x7 SWAP1 SWAP3 MSTORE SWAP1 SWAP2 KECCAK256 SSTORE JUMPDEST PUSH1 0x1 PUSH1 0x1 PUSH1 0xA0 SHL SUB DUP7 AND PUSH0 DUP2 DUP2 MSTORE PUSH1 0x5 PUSH1 0x20 SWAP1 DUP2 MSTORE PUSH1 0x40 DUP1 DUP4 KECCAK256 SLOAD PUSH1 0x6 DUP4 MSTORE DUP2 DUP5 KECCAK256 SLOAD PUSH1 0x7 SWAP1 SWAP4 MSTORE SWAP3 DUP2 SWAP1 KECCAK256 SLOAD SWAP1 MLOAD CALLER SWAP4 PUSH32 0xFDD005E1146A6C5AE78784F84B0D58180F3A0C9AE99A3DBF3605095D22E6115C SWAP4 PUSH2 0xC75 SWAP4 DUP12 SWAP4 DUP12 SWAP4 PUSH1 0xFF AND SWAP3 SWAP2 SWAP1 PUSH2 0x1A4D JUMP JUMPDEST PUSH1 0x40 MLOAD DUP1 SWAP2 SUB SWAP1 LOG3 POP POP POP POP POP POP JUMP JUMPDEST PUSH0 PUSH2 0xC8F PUSH1 0x2 SLOAD SWAP1 JUMP JUMPDEST GT ISZERO PUSH2 0xCAE JUMPI PUSH1 0x40 MLOAD PUSH4 0xA88EE577 PUSH1 0xE0 SHL DUP2 MSTORE PUSH1 0x4 ADD PUSH1 0x40 MLOAD DUP1 SWAP2 SUB SWAP1 REVERT JUMPDEST PUSH1 0x1 PUSH1 0x1 PUSH1 0xA0 SHL SUB DUP4 AND PUSH0 DUP2 DUP2 MSTORE PUSH1 0x8 PUSH1 0x20 SWAP1 DUP2 MSTORE PUSH1 0x40 DUP1 DUP4 KECCAK256 DUP1 SLOAD PUSH1 0xFF NOT AND PUSH1 0x1 SWAP1 DUP2 OR SWAP1 SWAP2 SSTORE PUSH1 0x9 DUP4 MSTORE DUP2 DUP5 KECCAK256 TIMESTAMP SWAP1 DUP2 SWAP1 SSTORE PUSH1 0xA SWAP1 SWAP4 MSTORE SWAP3 DUP2 SWAP1 KECCAK256 PUSH0 NOT SWAP1 DUP2 SWAP1 SSTORE SWAP1 MLOAD CALLER SWAP4 PUSH32 0xB2E7F823E96D3BD287E8EE64D40608A5C532476149A41C7DD7A557985B491E1A SWAP4 PUSH2 0x968 SWAP4 DUP10 SWAP4 DUP10 SWAP4 SWAP3 SWAP2 SWAP1 PUSH2 0x1A4D JUMP JUMPDEST PUSH1 0x60 PUSH1 0x4 DUP1 SLOAD PUSH2 0x6BB SWAP1 PUSH2 0x1A15 JUMP JUMPDEST PUSH2 0xD3F CALLER PUSH2 0x60A JUMP JUMPDEST ISZERO ISZERO PUSH0 SUB PUSH2 0xD62 JUMPI PUSH1 0x40 MLOAD PUSH4 0x28C92525 PUSH1 0xE2 SHL DUP2 MSTORE CALLER PUSH1 0x4 DUP3 ADD MSTORE PUSH1 0x24 ADD PUSH2 0x77D JUMP JUMPDEST DUP1 PUSH0 SUB PUSH2 0xD82 JUMPI PUSH1 0x40 MLOAD PUSH4 0xA88EE577 PUSH1 0xE0 SHL DUP2 MSTORE PUSH1 0x4 ADD PUSH1 0x40 MLOAD DUP1 SWAP2 SUB SWAP1 REVERT JUMPDEST PUSH1 0x1 PUSH1 0x1 PUSH1 0xA0 SHL SUB PUSH32 0x0 AND PUSH0 SWAP1 DUP2 MSTORE PUSH1 0x20 DUP2 SWAP1 MSTORE PUSH1 0x40 DUP2 KECCAK256 SLOAD SWAP1 POP PUSH0 PUSH3 0xF4240 PUSH1 0xD SLOAD PUSH2 0xDCD PUSH1 0x2 SLOAD SWAP1 JUMP JUMPDEST PUSH2 0xDD7 SWAP2 SWAP1 PUSH2 0x1B2C JUMP JUMPDEST PUSH2 0xDE1 SWAP2 SWAP1 PUSH2 0x1B56 JUMP JUMPDEST SWAP1 POP PUSH0 PUSH1 0xE SLOAD DUP4 LT PUSH2 0xDF3 JUMPI PUSH0 PUSH2 0xE01 JUMP JUMPDEST DUP3 PUSH1 0xE SLOAD PUSH2 0xE01 SWAP2 SWAP1 PUSH2 0x1B19 JUMP JUMPDEST SWAP1 POP PUSH0 DUP3 DUP5 LT PUSH2 0xE11 JUMPI PUSH0 PUSH2 0xE1B JUMP JUMPDEST PUSH2 0xE1B DUP5 DUP5 PUSH2 0x1B19 JUMP JUMPDEST SWAP1 POP PUSH0 PUSH2 0xE28 DUP4 DUP4 PUSH2 0x142D JUMP JUMPDEST SWAP1 POP DUP1 ISZERO PUSH2 0xEF8 JUMPI PUSH2 0xE64 DUP8 PUSH32 0x0 PUSH2 0xE5F DUP10 DUP6 PUSH2 0x143C JUMP JUMPDEST PUSH2 0x139C JUMP JUMPDEST PUSH32 0x0 PUSH1 0x1 PUSH1 0x1 PUSH1 0xA0 SHL SUB AND PUSH4 0xAD46CF91 DUP9 PUSH2 0xE9E DUP10 DUP6 PUSH2 0x143C JUMP JUMPDEST PUSH1 0x40 MLOAD PUSH1 0x1 PUSH1 0x1 PUSH1 0xE0 SHL SUB NOT PUSH1 0xE0 DUP6 SWAP1 SHL AND DUP2 MSTORE PUSH1 0x1 PUSH1 0x1 PUSH1 0xA0 SHL SUB SWAP1 SWAP3 AND PUSH1 0x4 DUP4 ADD MSTORE PUSH1 0x24 DUP3 ADD MSTORE PUSH1 0x44 ADD PUSH0 PUSH1 0x40 MLOAD DUP1 DUP4 SUB DUP2 PUSH0 DUP8 DUP1 EXTCODESIZE ISZERO DUP1 ISZERO PUSH2 0xEE1 JUMPI PUSH0 DUP1 REVERT JUMPDEST POP GAS CALL ISZERO DUP1 ISZERO PUSH2 0xEF3 JUMPI RETURNDATASIZE PUSH0 DUP1 RETURNDATACOPY RETURNDATASIZE PUSH0 REVERT JUMPDEST POP POP POP POP JUMPDEST DUP1 DUP7 GT ISZERO PUSH2 0xFC3 JUMPI PUSH2 0xF2F DUP8 PUSH32 0x0 PUSH2 0xE5F DUP5 DUP11 PUSH2 0x1B19 JUMP JUMPDEST PUSH1 0x1 PUSH1 0x1 PUSH1 0xA0 SHL SUB PUSH32 0x0 AND PUSH4 0xAD46CF91 DUP9 PUSH2 0xF69 DUP5 DUP11 PUSH2 0x1B19 JUMP JUMPDEST PUSH1 0x40 MLOAD PUSH1 0x1 PUSH1 0x1 PUSH1 0xE0 SHL SUB NOT PUSH1 0xE0 DUP6 SWAP1 SHL AND DUP2 MSTORE PUSH1 0x1 PUSH1 0x1 PUSH1 0xA0 SHL SUB SWAP1 SWAP3 AND PUSH1 0x4 DUP4 ADD MSTORE PUSH1 0x24 DUP3 ADD MSTORE PUSH1 0x44 ADD PUSH0 PUSH1 0x40 MLOAD DUP1 DUP4 SUB DUP2 PUSH0 DUP8 DUP1 EXTCODESIZE ISZERO DUP1 ISZERO PUSH2 0xFAC JUMPI PUSH0 DUP1 REVERT JUMPDEST POP GAS CALL ISZERO DUP1 ISZERO PUSH2 0xFBE JUMPI RETURNDATASIZE PUSH0 DUP1 RETURNDATACOPY RETURNDATASIZE PUSH0 REVERT JUMPDEST POP POP POP POP JUMPDEST DUP6 PUSH1 0xB PUSH0 DUP3 DUP3 SLOAD PUSH2 0xFD4 SWAP2 SWAP1 PUSH2 0x1B43 JUMP JUMPDEST SWAP1 SWAP2 SSTORE POP POP PUSH1 0xB SLOAD PUSH1 0x40 MLOAD PUSH1 0x1 PUSH1 0x1 PUSH1 0xA0 SHL SUB DUP10 AND SWAP2 PUSH32 0x4A5329F094D9D45EC63A89B111FBEEAA9693D75A353400344D82B14548912953 SWAP2 PUSH2 0x101E SWAP2 DUP11 DUP3 MSTORE PUSH1 0x20 DUP3 ADD MSTORE PUSH1 0x40 ADD SWAP1 JUMP JUMPDEST PUSH1 0x40 MLOAD DUP1 SWAP2 SUB SWAP1 LOG2 POP POP POP POP POP POP POP JUMP JUMPDEST PUSH0 CALLER PUSH2 0x749 DUP2 DUP6 DUP6 PUSH2 0x139C JUMP JUMPDEST PUSH2 0x1045 CALLER PUSH2 0x8AE JUMP JUMPDEST ISZERO ISZERO PUSH0 SUB PUSH2 0x7B2 JUMPI PUSH1 0x40 MLOAD PUSH4 0xD4679899 PUSH1 0xE0 SHL DUP2 MSTORE PUSH1 0x4 ADD PUSH1 0x40 MLOAD DUP1 SWAP2 SUB SWAP1 REVERT JUMPDEST PUSH1 0x1 PUSH1 0x1 PUSH1 0xA0 SHL SUB DUP2 AND PUSH0 SWAP1 DUP2 MSTORE PUSH1 0x5 PUSH1 0x20 MSTORE PUSH1 0x40 DUP2 KECCAK256 SLOAD PUSH1 0xFF AND ISZERO ISZERO DUP2 SUB PUSH2 0x1090 JUMPI POP PUSH0 SWAP2 SWAP1 POP JUMP JUMPDEST PUSH1 0x1 PUSH1 0x1 PUSH1 0xA0 SHL SUB DUP3 AND PUSH0 SWAP1 DUP2 MSTORE PUSH1 0x6 PUSH1 0x20 MSTORE PUSH1 0x40 DUP2 KECCAK256 SLOAD SWAP1 SUB PUSH2 0x10B5 JUMPI POP PUSH0 SWAP2 SWAP1 POP JUMP JUMPDEST PUSH1 0x1 PUSH1 0x1 PUSH1 0xA0 SHL SUB DUP3 AND PUSH0 SWAP1 DUP2 MSTORE PUSH1 0x6 PUSH1 0x20 MSTORE PUSH1 0x40 SWAP1 KECCAK256 SLOAD TIMESTAMP LT ISZERO PUSH2 0x10DB JUMPI POP PUSH0 SWAP2 SWAP1 POP JUMP JUMPDEST PUSH1 0x1 PUSH1 0x1 PUSH1 0xA0 SHL SUB DUP3 AND PUSH0 SWAP1 DUP2 MSTORE PUSH1 0x7 PUSH1 0x20 MSTORE PUSH1 0x40 SWAP1 KECCAK256 SLOAD TIMESTAMP LT PUSH2 0x6A4 JUMPI POP PUSH0 SWAP2 SWAP1 POP JUMP JUMPDEST PUSH0 PUSH2 0x110A DUP3 PUSH2 0x60A JUMP JUMPDEST ISZERO ISZERO PUSH1 0x1 SUB PUSH2 0x111B JUMPI POP PUSH0 NOT PUSH2 0x74F JUMP JUMPDEST PUSH1 0x1 PUSH1 0x1 PUSH1 0xA0 SHL SUB DUP1 DUP5 AND PUSH0 SWAP1 DUP2 MSTORE PUSH1 0x1 PUSH1 0x20 SWAP1 DUP2 MSTORE PUSH1 0x40 DUP1 DUP4 KECCAK256 SWAP4 DUP7 AND DUP4 MSTORE SWAP3 SWAP1 MSTORE KECCAK256 SLOAD JUMPDEST SWAP4 SWAP3 POP POP POP JUMP JUMPDEST PUSH0 PUSH2 0x1152 DUP3 PUSH2 0x1066 JUMP JUMPDEST ISZERO ISZERO PUSH0 SUB PUSH2 0x1161 JUMPI POP PUSH0 SWAP2 SWAP1 POP JUMP JUMPDEST PUSH2 0x116A DUP3 PUSH2 0x60A JUMP JUMPDEST ISZERO ISZERO PUSH0 SUB PUSH2 0x6A4 JUMPI POP PUSH0 SWAP2 SWAP1 POP JUMP JUMPDEST PUSH1 0x40 MLOAD PUSH4 0x75B92AA7 PUSH1 0xE0 SHL DUP2 MSTORE PUSH1 0x1 PUSH1 0x1 PUSH1 0xA0 SHL SUB PUSH32 0x0 AND SWAP1 PUSH4 0x75B92AA7 SWAP1 PUSH2 0x11C9 SWAP1 CALLER SWAP1 DUP7 SWAP1 DUP7 SWAP1 PUSH1 0x4 ADD PUSH2 0x1A91 JUMP JUMPDEST PUSH0 PUSH1 0x40 MLOAD DUP1 DUP4 SUB DUP2 DUP7 DUP1 EXTCODESIZE ISZERO DUP1 ISZERO PUSH2 0x11DF JUMPI PUSH0 DUP1 REVERT JUMPDEST POP GAS STATICCALL ISZERO DUP1 ISZERO PUSH2 0x11F1 JUMPI RETURNDATASIZE PUSH0 DUP1 RETURNDATACOPY RETURNDATASIZE PUSH0 REVERT JUMPDEST POP POP POP POP DUP4 PUSH1 0xD SLOAD EQ DUP1 PUSH2 0x1206 JUMPI POP DUP3 PUSH1 0xE SLOAD EQ JUMPDEST ISZERO PUSH2 0x1224 JUMPI PUSH1 0x40 MLOAD PUSH4 0xA88EE577 PUSH1 0xE0 SHL DUP2 MSTORE PUSH1 0x4 ADD PUSH1 0x40 MLOAD DUP1 SWAP2 SUB SWAP1 REVERT JUMPDEST PUSH1 0xF DUP5 SWAP1 SSTORE PUSH1 0x10 DUP4 SWAP1 SSTORE PUSH2 0x123B PUSH3 0x278D00 TIMESTAMP PUSH2 0x1B43 JUMP JUMPDEST PUSH1 0x11 DUP2 SWAP1 SSTORE PUSH1 0x40 DUP1 MLOAD DUP7 DUP2 MSTORE PUSH1 0x20 DUP2 ADD DUP7 SWAP1 MSTORE SWAP1 DUP2 ADD SWAP2 SWAP1 SWAP2 MSTORE CALLER SWAP1 PUSH32 0xFC439F40636A3FD4C5E780F0AF1C0D34E617E1BA806B9D9A32EABBE8936AB4B2 SWAP1 PUSH1 0x60 ADD PUSH1 0x40 MLOAD DUP1 SWAP2 SUB SWAP1 LOG2 POP POP POP POP JUMP JUMPDEST PUSH2 0x1293 CALLER PUSH2 0x1066 JUMP JUMPDEST ISZERO ISZERO PUSH0 SUB PUSH2 0x12B6 JUMPI PUSH1 0x40 MLOAD PUSH4 0x1B0E18F9 PUSH1 0xE1 SHL DUP2 MSTORE CALLER PUSH1 0x4 DUP3 ADD MSTORE PUSH1 0x24 ADD PUSH2 0x77D JUMP JUMPDEST PUSH2 0x12C0 DUP3 DUP3 PUSH2 0x13F9 JUMP JUMPDEST DUP1 PUSH1 0xC PUSH0 DUP3 DUP3 SLOAD PUSH2 0x12D1 SWAP2 SWAP1 PUSH2 0x1B43 JUMP JUMPDEST SWAP1 SWAP2 SSTORE POP POP PUSH1 0xC SLOAD PUSH1 0x40 MLOAD PUSH1 0x1 PUSH1 0x1 PUSH1 0xA0 SHL SUB DUP5 AND SWAP2 PUSH32 0x34D58FA80F2D74611B3929C54B79A282AA2CF5433E31A08B0816E8B193217E05 SWAP2 PUSH2 0x131B SWAP2 DUP6 DUP3 MSTORE PUSH1 0x20 DUP3 ADD MSTORE PUSH1 0x40 ADD SWAP1 JUMP JUMPDEST PUSH1 0x40 MLOAD DUP1 SWAP2 SUB SWAP1 LOG2 POP POP JUMP JUMPDEST PUSH2 0x1334 DUP4 DUP4 DUP4 PUSH1 0x1 PUSH2 0x144B JUMP JUMPDEST POP POP POP JUMP JUMPDEST PUSH0 PUSH2 0x1344 DUP5 DUP5 PUSH2 0x1100 JUMP JUMPDEST SWAP1 POP PUSH0 NOT DUP2 EQ PUSH2 0x1396 JUMPI DUP2 DUP2 LT ISZERO PUSH2 0x1388 JUMPI PUSH1 0x40 MLOAD PUSH4 0x7DC7A0D9 PUSH1 0xE1 SHL DUP2 MSTORE PUSH1 0x1 PUSH1 0x1 PUSH1 0xA0 SHL SUB DUP5 AND PUSH1 0x4 DUP3 ADD MSTORE PUSH1 0x24 DUP2 ADD DUP3 SWAP1 MSTORE PUSH1 0x44 DUP2 ADD DUP4 SWAP1 MSTORE PUSH1 0x64 ADD PUSH2 0x77D JUMP JUMPDEST PUSH2 0x1396 DUP5 DUP5 DUP5 DUP5 SUB PUSH0 PUSH2 0x144B JUMP JUMPDEST POP POP POP POP JUMP JUMPDEST PUSH1 0x1 PUSH1 0x1 PUSH1 0xA0 SHL SUB DUP4 AND PUSH2 0x13C5 JUMPI PUSH1 0x40 MLOAD PUSH4 0x4B637E8F PUSH1 0xE1 SHL DUP2 MSTORE PUSH0 PUSH1 0x4 DUP3 ADD MSTORE PUSH1 0x24 ADD PUSH2 0x77D JUMP JUMPDEST PUSH1 0x1 PUSH1 0x1 PUSH1 0xA0 SHL SUB DUP3 AND PUSH2 0x13EE JUMPI PUSH1 0x40 MLOAD PUSH4 0xEC442F05 PUSH1 0xE0 SHL DUP2 MSTORE PUSH0 PUSH1 0x4 DUP3 ADD MSTORE PUSH1 0x24 ADD PUSH2 0x77D JUMP JUMPDEST PUSH2 0x1334 DUP4 DUP4 DUP4 PUSH2 0x151D JUMP JUMPDEST PUSH1 0x1 PUSH1 0x1 PUSH1 0xA0 SHL SUB DUP3 AND PUSH2 0x1422 JUMPI PUSH1 0x40 MLOAD PUSH4 0xEC442F05 PUSH1 0xE0 SHL DUP2 MSTORE PUSH0 PUSH1 0x4 DUP3 ADD MSTORE PUSH1 0x24 ADD PUSH2 0x77D JUMP JUMPDEST PUSH2 0x9AB PUSH0 DUP4 DUP4 PUSH2 0x151D JUMP JUMPDEST PUSH0 DUP3 DUP3 XOR DUP3 DUP5 GT MUL DUP3 XOR PUSH2 0x1141 JUMP JUMPDEST PUSH0 DUP3 DUP3 XOR DUP3 DUP5 LT MUL DUP3 XOR PUSH2 0x1141 JUMP JUMPDEST PUSH1 0x1 PUSH1 0x1 PUSH1 0xA0 SHL SUB DUP5 AND PUSH2 0x1474 JUMPI PUSH1 0x40 MLOAD PUSH4 0xE602DF05 PUSH1 0xE0 SHL DUP2 MSTORE PUSH0 PUSH1 0x4 DUP3 ADD MSTORE PUSH1 0x24 ADD PUSH2 0x77D JUMP JUMPDEST PUSH1 0x1 PUSH1 0x1 PUSH1 0xA0 SHL SUB DUP4 AND PUSH2 0x149D JUMPI PUSH1 0x40 MLOAD PUSH4 0x4A1406B1 PUSH1 0xE1 SHL DUP2 MSTORE PUSH0 PUSH1 0x4 DUP3 ADD MSTORE PUSH1 0x24 ADD PUSH2 0x77D JUMP JUMPDEST PUSH1 0x1 PUSH1 0x1 PUSH1 0xA0 SHL SUB DUP1 DUP6 AND PUSH0 SWAP1 DUP2 MSTORE PUSH1 0x1 PUSH1 0x20 SWAP1 DUP2 MSTORE PUSH1 0x40 DUP1 DUP4 KECCAK256 SWAP4 DUP8 AND DUP4 MSTORE SWAP3 SWAP1 MSTORE KECCAK256 DUP3 SWAP1 SSTORE DUP1 ISZERO PUSH2 0x1396 JUMPI DUP3 PUSH1 0x1 PUSH1 0x1 PUSH1 0xA0 SHL SUB AND DUP5 PUSH1 0x1 PUSH1 0x1 PUSH1 0xA0 SHL SUB AND PUSH32 0x8C5BE1E5EBEC7D5BD14F71427D1E84F3DD0314C0F7B2291E5B200AC8C7C3B925 DUP5 PUSH1 0x40 MLOAD PUSH2 0x150F SWAP2 DUP2 MSTORE PUSH1 0x20 ADD SWAP1 JUMP JUMPDEST PUSH1 0x40 MLOAD DUP1 SWAP2 SUB SWAP1 LOG3 POP POP POP POP JUMP JUMPDEST PUSH1 0x40 MLOAD PUSH4 0x17677F5 PUSH1 0xE3 SHL DUP2 MSTORE PUSH1 0x1 PUSH1 0x1 PUSH1 0xA0 SHL SUB DUP5 DUP2 AND PUSH1 0x4 DUP4 ADD MSTORE DUP4 DUP2 AND PUSH1 0x24 DUP4 ADD MSTORE PUSH1 0x44 DUP3 ADD DUP4 SWAP1 MSTORE PUSH32 0x0 AND SWAP1 PUSH4 0xBB3BFA8 SWAP1 PUSH1 0x64 ADD PUSH0 PUSH1 0x40 MLOAD DUP1 DUP4 SUB DUP2 PUSH0 DUP8 DUP1 EXTCODESIZE ISZERO DUP1 ISZERO PUSH2 0x158C JUMPI PUSH0 DUP1 REVERT JUMPDEST POP GAS CALL ISZERO DUP1 ISZERO PUSH2 0x159E JUMPI RETURNDATASIZE PUSH0 DUP1 RETURNDATACOPY RETURNDATASIZE PUSH0 REVERT JUMPDEST POP POP PUSH1 0x40 MLOAD PUSH4 0x17677F5 PUSH1 0xE3 SHL DUP2 MSTORE PUSH1 0x1 PUSH1 0x1 PUSH1 0xA0 SHL SUB DUP7 DUP2 AND PUSH1 0x4 DUP4 ADD MSTORE DUP6 DUP2 AND PUSH1 0x24 DUP4 ADD MSTORE PUSH1 0x44 DUP3 ADD DUP6 SWAP1 MSTORE PUSH32 0x0 AND SWAP3 POP PUSH4 0xBB3BFA8 SWAP2 POP PUSH1 0x64 ADD PUSH0 PUSH1 0x40 MLOAD DUP1 DUP4 SUB DUP2 PUSH0 DUP8 DUP1 EXTCODESIZE ISZERO DUP1 ISZERO PUSH2 0x1611 JUMPI PUSH0 DUP1 REVERT JUMPDEST POP GAS CALL ISZERO DUP1 ISZERO PUSH2 0x1623 JUMPI RETURNDATASIZE PUSH0 DUP1 RETURNDATACOPY RETURNDATASIZE PUSH0 REVERT JUMPDEST POP POP POP POP PUSH2 0x1334 DUP4 DUP4 DUP4 PUSH1 0x1 PUSH1 0x1 PUSH1 0xA0 SHL SUB DUP4 AND PUSH2 0x1657 JUMPI DUP1 PUSH1 0x2 PUSH0 DUP3 DUP3 SLOAD PUSH2 0x164C SWAP2 SWAP1 PUSH2 0x1B43 JUMP JUMPDEST SWAP1 SWAP2 SSTORE POP PUSH2 0x16C7 SWAP1 POP JUMP JUMPDEST PUSH1 0x1 PUSH1 0x1 PUSH1 0xA0 SHL SUB DUP4 AND PUSH0 SWAP1 DUP2 MSTORE PUSH1 0x20 DUP2 SWAP1 MSTORE PUSH1 0x40 SWAP1 KECCAK256 SLOAD DUP2 DUP2 LT ISZERO PUSH2 0x16A9 JUMPI PUSH1 0x40 MLOAD PUSH4 0x391434E3 PUSH1 0xE2 SHL DUP2 MSTORE PUSH1 0x1 PUSH1 0x1 PUSH1 0xA0 SHL SUB DUP6 AND PUSH1 0x4 DUP3 ADD MSTORE PUSH1 0x24 DUP2 ADD DUP3 SWAP1 MSTORE PUSH1 0x44 DUP2 ADD DUP4 SWAP1 MSTORE PUSH1 0x64 ADD PUSH2 0x77D JUMP JUMPDEST PUSH1 0x1 PUSH1 0x1 PUSH1 0xA0 SHL SUB DUP5 AND PUSH0 SWAP1 DUP2 MSTORE PUSH1 0x20 DUP2 SWAP1 MSTORE PUSH1 0x40 SWAP1 KECCAK256 SWAP1 DUP3 SWAP1 SUB SWAP1 SSTORE JUMPDEST PUSH1 0x1 PUSH1 0x1 PUSH1 0xA0 SHL SUB DUP3 AND PUSH2 0x16E3 JUMPI PUSH1 0x2 DUP1 SLOAD DUP3 SWAP1 SUB SWAP1 SSTORE PUSH2 0x1701 JUMP JUMPDEST PUSH1 0x1 PUSH1 0x1 PUSH1 0xA0 SHL SUB DUP3 AND PUSH0 SWAP1 DUP2 MSTORE PUSH1 0x20 DUP2 SWAP1 MSTORE PUSH1 0x40 SWAP1 KECCAK256 DUP1 SLOAD DUP3 ADD SWAP1 SSTORE JUMPDEST DUP2 PUSH1 0x1 PUSH1 0x1 PUSH1 0xA0 SHL SUB AND DUP4 PUSH1 0x1 PUSH1 0x1 PUSH1 0xA0 SHL SUB AND PUSH32 0xDDF252AD1BE2C89B69C2B068FC378DAA952BA7F163C4A11628F55A4DF523B3EF DUP4 PUSH1 0x40 MLOAD PUSH2 0x968 SWAP2 DUP2 MSTORE PUSH1 0x20 ADD SWAP1 JUMP JUMPDEST DUP1 CALLDATALOAD PUSH1 0x1 PUSH1 0x1 PUSH1 0xA0 SHL SUB DUP2 AND DUP2 EQ PUSH2 0x175C JUMPI PUSH0 DUP1 REVERT JUMPDEST SWAP2 SWAP1 POP JUMP JUMPDEST PUSH0 PUSH1 0x20 DUP3 DUP5 SUB SLT ISZERO PUSH2 0x1771 JUMPI PUSH0 DUP1 REVERT JUMPDEST PUSH2 0x1141 DUP3 PUSH2 0x1746 JUMP JUMPDEST PUSH0 PUSH1 0x20 DUP1 DUP4 MSTORE DUP4 MLOAD DUP1 DUP3 DUP6 ADD MSTORE PUSH0 JUMPDEST DUP2 DUP2 LT ISZERO PUSH2 0x17A5 JUMPI DUP6 DUP2 ADD DUP4 ADD MLOAD DUP6 DUP3 ADD PUSH1 0x40 ADD MSTORE DUP3 ADD PUSH2 0x1789 JUMP JUMPDEST POP PUSH0 PUSH1 0x40 DUP3 DUP7 ADD ADD MSTORE PUSH1 0x40 PUSH1 0x1F NOT PUSH1 0x1F DUP4 ADD AND DUP6 ADD ADD SWAP3 POP POP POP SWAP3 SWAP2 POP POP JUMP JUMPDEST PUSH0 DUP1 PUSH1 0x40 DUP4 DUP6 SUB SLT ISZERO PUSH2 0x17D6 JUMPI PUSH0 DUP1 REVERT JUMPDEST PUSH2 0x17DF DUP4 PUSH2 0x1746 JUMP JUMPDEST SWAP5 PUSH1 0x20 SWAP4 SWAP1 SWAP4 ADD CALLDATALOAD SWAP4 POP POP POP JUMP JUMPDEST PUSH0 DUP1 PUSH0 PUSH1 0x60 DUP5 DUP7 SUB SLT ISZERO PUSH2 0x17FF JUMPI PUSH0 DUP1 REVERT JUMPDEST PUSH2 0x1808 DUP5 PUSH2 0x1746 JUMP JUMPDEST SWAP3 POP PUSH2 0x1816 PUSH1 0x20 DUP6 ADD PUSH2 0x1746 JUMP JUMPDEST SWAP2 POP PUSH1 0x40 DUP5 ADD CALLDATALOAD SWAP1 POP SWAP3 POP SWAP3 POP SWAP3 JUMP JUMPDEST PUSH0 DUP1 DUP4 PUSH1 0x1F DUP5 ADD SLT PUSH2 0x1836 JUMPI PUSH0 DUP1 REVERT JUMPDEST POP DUP2 CALLDATALOAD PUSH8 0xFFFFFFFFFFFFFFFF DUP2 GT ISZERO PUSH2 0x184D JUMPI PUSH0 DUP1 REVERT JUMPDEST PUSH1 0x20 DUP4 ADD SWAP2 POP DUP4 PUSH1 0x20 DUP3 DUP6 ADD ADD GT ISZERO PUSH2 0x1864 JUMPI PUSH0 DUP1 REVERT JUMPDEST SWAP3 POP SWAP3 SWAP1 POP JUMP JUMPDEST PUSH0 DUP1 PUSH0 PUSH1 0x40 DUP5 DUP7 SUB SLT ISZERO PUSH2 0x187D JUMPI PUSH0 DUP1 REVERT JUMPDEST PUSH2 0x1886 DUP5 PUSH2 0x1746 JUMP JUMPDEST SWAP3 POP PUSH1 0x20 DUP5 ADD CALLDATALOAD PUSH8 0xFFFFFFFFFFFFFFFF DUP2 GT ISZERO PUSH2 0x18A1 JUMPI PUSH0 DUP1 REVERT JUMPDEST PUSH2 0x18AD DUP7 DUP3 DUP8 ADD PUSH2 0x1826 JUMP JUMPDEST SWAP5 SWAP8 SWAP1 SWAP7 POP SWAP4 SWAP5 POP POP POP POP JUMP JUMPDEST DUP1 ISZERO ISZERO DUP2 EQ PUSH2 0x7B2 JUMPI PUSH0 DUP1 REVERT JUMPDEST PUSH0 DUP1 DUP4 PUSH1 0x1F DUP5 ADD SLT PUSH2 0x18D7 JUMPI PUSH0 DUP1 REVERT JUMPDEST POP DUP2 CALLDATALOAD PUSH8 0xFFFFFFFFFFFFFFFF DUP2 GT ISZERO PUSH2 0x18EE JUMPI PUSH0 DUP1 REVERT JUMPDEST PUSH1 0x20 DUP4 ADD SWAP2 POP DUP4 PUSH1 0x20 DUP3 PUSH1 0x5 SHL DUP6 ADD ADD GT ISZERO PUSH2 0x1864 JUMPI PUSH0 DUP1 REVERT JUMPDEST PUSH0 DUP1 PUSH0 DUP1 PUSH0 DUP1 PUSH1 0x80 DUP8 DUP10 SUB SLT ISZERO PUSH2 0x191D JUMPI PUSH0 DUP1 REVERT JUMPDEST PUSH2 0x1926 DUP8 PUSH2 0x1746 JUMP JUMPDEST SWAP6 POP PUSH1 0x20 DUP8 ADD CALLDATALOAD PUSH2 0x1936 DUP2 PUSH2 0x18BA JUMP JUMPDEST SWAP5 POP PUSH1 0x40 DUP8 ADD CALLDATALOAD PUSH8 0xFFFFFFFFFFFFFFFF DUP1 DUP3 GT ISZERO PUSH2 0x1952 JUMPI PUSH0 DUP1 REVERT JUMPDEST PUSH2 0x195E DUP11 DUP4 DUP12 ADD PUSH2 0x1826 JUMP JUMPDEST SWAP1 SWAP7 POP SWAP5 POP PUSH1 0x60 DUP10 ADD CALLDATALOAD SWAP2 POP DUP1 DUP3 GT ISZERO PUSH2 0x1976 JUMPI PUSH0 DUP1 REVERT JUMPDEST POP PUSH2 0x1983 DUP10 DUP3 DUP11 ADD PUSH2 0x18C7 JUMP JUMPDEST SWAP8 SWAP11 SWAP7 SWAP10 POP SWAP5 SWAP8 POP SWAP3 SWAP6 SWAP4 SWAP5 SWAP3 POP POP POP JUMP JUMPDEST PUSH0 DUP1 PUSH1 0x40 DUP4 DUP6 SUB SLT ISZERO PUSH2 0x19A6 JUMPI PUSH0 DUP1 REVERT JUMPDEST PUSH2 0x19AF DUP4 PUSH2 0x1746 JUMP JUMPDEST SWAP2 POP PUSH2 0x19BD PUSH1 0x20 DUP5 ADD PUSH2 0x1746 JUMP JUMPDEST SWAP1 POP SWAP3 POP SWAP3 SWAP1 POP JUMP JUMPDEST PUSH0 DUP1 PUSH0 DUP1 PUSH1 0x60 DUP6 DUP8 SUB SLT ISZERO PUSH2 0x19D9 JUMPI PUSH0 DUP1 REVERT JUMPDEST DUP5 CALLDATALOAD SWAP4 POP PUSH1 0x20 DUP6 ADD CALLDATALOAD SWAP3 POP PUSH1 0x40 DUP6 ADD CALLDATALOAD PUSH8 0xFFFFFFFFFFFFFFFF DUP2 GT ISZERO PUSH2 0x19FD JUMPI PUSH0 DUP1 REVERT JUMPDEST PUSH2 0x1A09 DUP8 DUP3 DUP9 ADD PUSH2 0x18C7 JUMP JUMPDEST SWAP6 SWAP9 SWAP5 SWAP8 POP SWAP6 POP POP POP POP JUMP JUMPDEST PUSH1 0x1 DUP2 DUP2 SHR SWAP1 DUP3 AND DUP1 PUSH2 0x1A29 JUMPI PUSH1 0x7F DUP3 AND SWAP2 POP JUMPDEST PUSH1 0x20 DUP3 LT DUP2 SUB PUSH2 0x1A47 JUMPI PUSH4 0x4E487B71 PUSH1 0xE0 SHL PUSH0 MSTORE PUSH1 0x22 PUSH1 0x4 MSTORE PUSH1 0x24 PUSH0 REVERT JUMPDEST POP SWAP2 SWAP1 POP JUMP JUMPDEST PUSH1 0x80 DUP2 MSTORE DUP5 PUSH1 0x80 DUP3 ADD MSTORE DUP5 DUP7 PUSH1 0xA0 DUP4 ADD CALLDATACOPY PUSH0 PUSH1 0xA0 DUP7 DUP4 ADD DUP2 ADD SWAP2 SWAP1 SWAP2 MSTORE SWAP4 ISZERO ISZERO PUSH1 0x20 DUP3 ADD MSTORE PUSH1 0x40 DUP2 ADD SWAP3 SWAP1 SWAP3 MSTORE PUSH1 0x60 DUP3 ADD MSTORE PUSH1 0x1F SWAP1 SWAP3 ADD PUSH1 0x1F NOT AND SWAP1 SWAP2 ADD ADD SWAP2 SWAP1 POP JUMP JUMPDEST PUSH1 0x1 PUSH1 0x1 PUSH1 0xA0 SHL SUB DUP5 DUP2 AND DUP3 MSTORE PUSH1 0x40 PUSH1 0x20 DUP1 DUP5 ADD DUP3 SWAP1 MSTORE SWAP1 DUP4 ADD DUP5 SWAP1 MSTORE PUSH0 SWAP2 DUP6 SWAP2 PUSH1 0x60 DUP6 ADD DUP5 JUMPDEST DUP8 DUP2 LT ISZERO PUSH2 0x1ADD JUMPI DUP4 PUSH2 0x1ACA DUP7 PUSH2 0x1746 JUMP JUMPDEST AND DUP3 MSTORE SWAP4 DUP3 ADD SWAP4 SWAP1 DUP3 ADD SWAP1 PUSH1 0x1 ADD PUSH2 0x1AB8 JUMP JUMPDEST POP SWAP9 SWAP8 POP POP POP POP POP POP POP POP JUMP JUMPDEST PUSH0 PUSH1 0x20 DUP3 DUP5 SUB SLT ISZERO PUSH2 0x1AFA JUMPI PUSH0 DUP1 REVERT JUMPDEST DUP2 MLOAD PUSH2 0x1141 DUP2 PUSH2 0x18BA JUMP JUMPDEST PUSH4 0x4E487B71 PUSH1 0xE0 SHL PUSH0 MSTORE PUSH1 0x11 PUSH1 0x4 MSTORE PUSH1 0x24 PUSH0 REVERT JUMPDEST DUP2 DUP2 SUB DUP2 DUP2 GT ISZERO PUSH2 0x74F JUMPI PUSH2 0x74F PUSH2 0x1B05 JUMP JUMPDEST DUP1 DUP3 MUL DUP2 ISZERO DUP3 DUP3 DIV DUP5 EQ OR PUSH2 0x74F JUMPI PUSH2 0x74F PUSH2 0x1B05 JUMP JUMPDEST DUP1 DUP3 ADD DUP1 DUP3 GT ISZERO PUSH2 0x74F JUMPI PUSH2 0x74F PUSH2 0x1B05 JUMP JUMPDEST PUSH0 DUP3 PUSH2 0x1B70 JUMPI PUSH4 0x4E487B71 PUSH1 0xE0 SHL PUSH0 MSTORE PUSH1 0x12 PUSH1 0x4 MSTORE PUSH1 0x24 PUSH0 REVERT JUMPDEST POP DIV SWAP1 JUMP INVALID LOG2 PUSH5 0x6970667358 0x22 SLT KECCAK256 PUSH26 0x762BFDEACDA9C6573C173D73585A3C229B19DBE130AD47F1D347 DELEGATECALL ADDRESS PUSH5 0xABF864736F PUSH13 0x6343000814003360A060405234 DUP1 ISZERO PUSH3 0x10 JUMPI PUSH0 DUP1 REVERT JUMPDEST POP PUSH1 0x40 MLOAD PUSH3 0x13EB CODESIZE SUB DUP1 PUSH3 0x13EB DUP4 CODECOPY DUP2 ADD PUSH1 0x40 DUP2 SWAP1 MSTORE PUSH3 0x33 SWAP2 PUSH3 0xCD JUMP JUMPDEST PUSH1 0x1 PUSH1 0x1 PUSH1 0xA0 SHL SUB DUP5 AND PUSH1 0x80 MSTORE DUP4 DUP4 DUP4 DUP4 PUSH1 0x2 PUSH3 0x52 DUP5 DUP3 PUSH3 0x26B JUMP JUMPDEST POP PUSH0 DUP1 SLOAD PUSH4 0xFFFFFFFF NOT AND PUSH4 0xFFFFFFFF DUP5 AND OR SWAP1 SSTORE PUSH1 0x14 PUSH3 0x7B PUSH1 0xFF DUP4 AND PUSH3 0x15180 PUSH3 0x333 JUMP JUMPDEST SWAP1 SHL PUSH1 0x1 SSTORE POP PUSH3 0x35D SWAP7 POP POP POP POP POP POP POP JUMP JUMPDEST PUSH4 0x4E487B71 PUSH1 0xE0 SHL PUSH0 MSTORE PUSH1 0x41 PUSH1 0x4 MSTORE PUSH1 0x24 PUSH0 REVERT JUMPDEST DUP1 MLOAD PUSH4 0xFFFFFFFF DUP2 AND DUP2 EQ PUSH3 0xB7 JUMPI PUSH0 DUP1 REVERT JUMPDEST SWAP2 SWAP1 POP JUMP JUMPDEST DUP1 MLOAD PUSH1 0xFF DUP2 AND DUP2 EQ PUSH3 0xB7 JUMPI PUSH0 DUP1 REVERT JUMPDEST PUSH0 DUP1 PUSH0 DUP1 PUSH1 0x80 DUP6 DUP8 SUB SLT ISZERO PUSH3 0xE1 JUMPI PUSH0 DUP1 REVERT JUMPDEST DUP5 MLOAD PUSH1 0x1 PUSH1 0x1 PUSH1 0xA0 SHL SUB DUP2 AND DUP2 EQ PUSH3 0xF8 JUMPI PUSH0 DUP1 REVERT JUMPDEST PUSH1 0x20 DUP7 DUP2 ADD MLOAD SWAP2 SWAP6 POP SWAP1 PUSH1 0x1 PUSH1 0x1 PUSH1 0x40 SHL SUB DUP1 DUP3 GT ISZERO PUSH3 0x117 JUMPI PUSH0 DUP1 REVERT JUMPDEST DUP2 DUP9 ADD SWAP2 POP DUP9 PUSH1 0x1F DUP4 ADD SLT PUSH3 0x12B JUMPI PUSH0 DUP1 REVERT JUMPDEST DUP2 MLOAD DUP2 DUP2 GT ISZERO PUSH3 0x140 JUMPI PUSH3 0x140 PUSH3 0x8F JUMP JUMPDEST PUSH1 0x40 MLOAD PUSH1 0x1F DUP3 ADD PUSH1 0x1F NOT SWAP1 DUP2 AND PUSH1 0x3F ADD AND DUP2 ADD SWAP1 DUP4 DUP3 GT DUP2 DUP4 LT OR ISZERO PUSH3 0x16B JUMPI PUSH3 0x16B PUSH3 0x8F JUMP JUMPDEST DUP2 PUSH1 0x40 MSTORE DUP3 DUP2 MSTORE DUP12 DUP7 DUP5 DUP8 ADD ADD GT ISZERO PUSH3 0x183 JUMPI PUSH0 DUP1 REVERT JUMPDEST PUSH0 SWAP4 POP JUMPDEST DUP3 DUP5 LT ISZERO PUSH3 0x1A6 JUMPI DUP5 DUP5 ADD DUP7 ADD MLOAD DUP2 DUP6 ADD DUP8 ADD MSTORE SWAP3 DUP6 ADD SWAP3 PUSH3 0x187 JUMP JUMPDEST PUSH0 DUP7 DUP5 DUP4 ADD ADD MSTORE DUP1 SWAP9 POP POP POP POP POP POP POP PUSH3 0x1C4 PUSH1 0x40 DUP7 ADD PUSH3 0xA3 JUMP JUMPDEST SWAP2 POP PUSH3 0x1D4 PUSH1 0x60 DUP7 ADD PUSH3 0xBC JUMP JUMPDEST SWAP1 POP SWAP3 SWAP6 SWAP2 SWAP5 POP SWAP3 POP JUMP JUMPDEST PUSH1 0x1 DUP2 DUP2 SHR SWAP1 DUP3 AND DUP1 PUSH3 0x1F4 JUMPI PUSH1 0x7F DUP3 AND SWAP2 POP JUMPDEST PUSH1 0x20 DUP3 LT DUP2 SUB PUSH3 0x213 JUMPI PUSH4 0x4E487B71 PUSH1 0xE0 SHL PUSH0 MSTORE PUSH1 0x22 PUSH1 0x4 MSTORE PUSH1 0x24 PUSH0 REVERT JUMPDEST POP SWAP2 SWAP1 POP JUMP JUMPDEST PUSH1 0x1F DUP3 GT ISZERO PUSH3 0x266 JUMPI PUSH0 DUP2 DUP2 MSTORE PUSH1 0x20 DUP2 KECCAK256 PUSH1 0x1F DUP6 ADD PUSH1 0x5 SHR DUP2 ADD PUSH1 0x20 DUP7 LT ISZERO PUSH3 0x241 JUMPI POP DUP1 JUMPDEST PUSH1 0x1F DUP6 ADD PUSH1 0x5 SHR DUP3 ADD SWAP2 POP JUMPDEST DUP2 DUP2 LT ISZERO PUSH3 0x262 JUMPI DUP3 DUP2 SSTORE PUSH1 0x1 ADD PUSH3 0x24D JUMP JUMPDEST POP POP POP JUMPDEST POP POP POP JUMP JUMPDEST DUP2 MLOAD PUSH1 0x1 PUSH1 0x1 PUSH1 0x40 SHL SUB DUP2 GT ISZERO PUSH3 0x287 JUMPI PUSH3 0x287 PUSH3 0x8F JUMP JUMPDEST PUSH3 0x29F DUP2 PUSH3 0x298 DUP5 SLOAD PUSH3 0x1DF JUMP JUMPDEST DUP5 PUSH3 0x219 JUMP JUMPDEST PUSH1 0x20 DUP1 PUSH1 0x1F DUP4 GT PUSH1 0x1 DUP2 EQ PUSH3 0x2D5 JUMPI PUSH0 DUP5 ISZERO PUSH3 0x2BD JUMPI POP DUP6 DUP4 ADD MLOAD JUMPDEST PUSH0 NOT PUSH1 0x3 DUP7 SWAP1 SHL SHR NOT AND PUSH1 0x1 DUP6 SWAP1 SHL OR DUP6 SSTORE PUSH3 0x262 JUMP JUMPDEST PUSH0 DUP6 DUP2 MSTORE PUSH1 0x20 DUP2 KECCAK256 PUSH1 0x1F NOT DUP7 AND SWAP2 JUMPDEST DUP3 DUP2 LT ISZERO PUSH3 0x305 JUMPI DUP9 DUP7 ADD MLOAD DUP3 SSTORE SWAP5 DUP5 ADD SWAP5 PUSH1 0x1 SWAP1 SWAP2 ADD SWAP1 DUP5 ADD PUSH3 0x2E4 JUMP JUMPDEST POP DUP6 DUP3 LT ISZERO PUSH3 0x323 JUMPI DUP8 DUP6 ADD MLOAD PUSH0 NOT PUSH1 0x3 DUP9 SWAP1 SHL PUSH1 0xF8 AND SHR NOT AND DUP2 SSTORE JUMPDEST POP POP POP POP POP PUSH1 0x1 SWAP1 DUP2 SHL ADD SWAP1 SSTORE POP JUMP JUMPDEST DUP1 DUP3 MUL DUP2 ISZERO DUP3 DUP3 DIV DUP5 EQ OR PUSH3 0x357 JUMPI PUSH4 0x4E487B71 PUSH1 0xE0 SHL PUSH0 MSTORE PUSH1 0x11 PUSH1 0x4 MSTORE PUSH1 0x24 PUSH0 REVERT JUMPDEST SWAP3 SWAP2 POP POP JUMP JUMPDEST PUSH1 0x80 MLOAD PUSH2 0x1052 PUSH3 0x399 PUSH0 CODECOPY PUSH0 DUP2 DUP2 PUSH2 0x1A6 ADD MSTORE DUP2 DUP2 PUSH2 0x4F3 ADD MSTORE DUP2 DUP2 PUSH2 0x590 ADD MSTORE DUP2 DUP2 PUSH2 0x7B7 ADD MSTORE DUP2 DUP2 PUSH2 0x94E ADD MSTORE PUSH2 0xB38 ADD MSTORE PUSH2 0x1052 PUSH0 RETURN INVALID PUSH1 0x80 PUSH1 0x40 MSTORE CALLVALUE DUP1 ISZERO PUSH2 0xF JUMPI PUSH0 DUP1 REVERT JUMPDEST POP PUSH1 0x4 CALLDATASIZE LT PUSH2 0x127 JUMPI PUSH0 CALLDATALOAD PUSH1 0xE0 SHR DUP1 PUSH4 0x40DEE0B5 GT PUSH2 0xA9 JUMPI DUP1 PUSH4 0xB0C2BF06 GT PUSH2 0x6E JUMPI DUP1 PUSH4 0xB0C2BF06 EQ PUSH2 0x2A6 JUMPI DUP1 PUSH4 0xC9F72B67 EQ PUSH2 0x2AF JUMPI DUP1 PUSH4 0xCE7558DC EQ PUSH2 0x2C2 JUMPI DUP1 PUSH4 0xD87DB283 EQ PUSH2 0x2D5 JUMPI DUP1 PUSH4 0xE7723A9A EQ PUSH2 0x2E8 JUMPI PUSH0 DUP1 REVERT JUMPDEST DUP1 PUSH4 0x40DEE0B5 EQ PUSH2 0x23D JUMPI DUP1 PUSH4 0x587CDE1E EQ PUSH2 0x245 JUMPI DUP1 PUSH4 0x75B92AA7 EQ PUSH2 0x26D JUMPI DUP1 PUSH4 0xA0B22B1B EQ PUSH2 0x280 JUMPI DUP1 PUSH4 0xADE041B2 EQ PUSH2 0x293 JUMPI PUSH0 DUP1 REVERT JUMPDEST DUP1 PUSH4 0x11DF9995 GT PUSH2 0xEF JUMPI DUP1 PUSH4 0x11DF9995 EQ PUSH2 0x1A1 JUMPI DUP1 PUSH4 0x20A44C19 EQ PUSH2 0x1E0 JUMPI DUP1 PUSH4 0x2E80D9B6 EQ PUSH2 0x1F3 JUMPI DUP1 PUSH4 0x2FCC98D0 EQ PUSH2 0x217 JUMPI DUP1 PUSH4 0x32CABF26 EQ PUSH2 0x22A JUMPI PUSH0 DUP1 REVERT JUMPDEST DUP1 PUSH4 0x6FDDE03 EQ PUSH2 0x12B JUMPI DUP1 PUSH4 0xBB3BFA8 EQ PUSH2 0x149 JUMPI DUP1 PUSH4 0xC41963B EQ PUSH2 0x15E JUMPI DUP1 PUSH4 0xEBC6EF0 EQ PUSH2 0x181 JUMPI DUP1 PUSH4 0x11206C3C EQ PUSH2 0x198 JUMPI JUMPDEST PUSH0 DUP1 REVERT JUMPDEST PUSH2 0x133 PUSH2 0x2FB JUMP JUMPDEST PUSH1 0x40 MLOAD PUSH2 0x140 SWAP2 SWAP1 PUSH2 0xD5B JUMP JUMPDEST PUSH1 0x40 MLOAD DUP1 SWAP2 SUB SWAP1 RETURN JUMPDEST PUSH2 0x15C PUSH2 0x157 CALLDATASIZE PUSH1 0x4 PUSH2 0xDC1 JUMP JUMPDEST PUSH2 0x387 JUMP JUMPDEST STOP JUMPDEST PUSH2 0x171 PUSH2 0x16C CALLDATASIZE PUSH1 0x4 PUSH2 0xDFA JUMP JUMPDEST PUSH2 0x3CF JUMP JUMPDEST PUSH1 0x40 MLOAD SWAP1 ISZERO ISZERO DUP2 MSTORE PUSH1 0x20 ADD PUSH2 0x140 JUMP JUMPDEST PUSH2 0x18A PUSH1 0x3 SLOAD DUP2 JUMP JUMPDEST PUSH1 0x40 MLOAD SWAP1 DUP2 MSTORE PUSH1 0x20 ADD PUSH2 0x140 JUMP JUMPDEST PUSH2 0x18A PUSH1 0x4 SLOAD DUP2 JUMP JUMPDEST PUSH2 0x1C8 PUSH32 0x0 DUP2 JUMP JUMPDEST PUSH1 0x40 MLOAD PUSH1 0x1 PUSH1 0x1 PUSH1 0xA0 SHL SUB SWAP1 SWAP2 AND DUP2 MSTORE PUSH1 0x20 ADD PUSH2 0x140 JUMP JUMPDEST PUSH2 0x15C PUSH2 0x1EE CALLDATASIZE PUSH1 0x4 PUSH2 0xE61 JUMP JUMPDEST PUSH2 0x414 JUMP JUMPDEST PUSH0 SLOAD PUSH2 0x202 SWAP1 PUSH4 0xFFFFFFFF AND DUP2 JUMP JUMPDEST PUSH1 0x40 MLOAD PUSH4 0xFFFFFFFF SWAP1 SWAP2 AND DUP2 MSTORE PUSH1 0x20 ADD PUSH2 0x140 JUMP JUMPDEST PUSH2 0x171 PUSH2 0x225 CALLDATASIZE PUSH1 0x4 PUSH2 0xDFA JUMP JUMPDEST PUSH2 0x4F0 JUMP JUMPDEST PUSH2 0x18A PUSH2 0x238 CALLDATASIZE PUSH1 0x4 PUSH2 0xDFA JUMP JUMPDEST PUSH2 0x539 JUMP JUMPDEST PUSH2 0x18A PUSH2 0x56D JUMP JUMPDEST PUSH2 0x1C8 PUSH2 0x253 CALLDATASIZE PUSH1 0x4 PUSH2 0xDFA JUMP JUMPDEST PUSH1 0x5 PUSH1 0x20 MSTORE PUSH0 SWAP1 DUP2 MSTORE PUSH1 0x40 SWAP1 KECCAK256 SLOAD PUSH1 0x1 PUSH1 0x1 PUSH1 0xA0 SHL SUB AND DUP2 JUMP JUMPDEST PUSH2 0x15C PUSH2 0x27B CALLDATASIZE PUSH1 0x4 PUSH2 0xEA8 JUMP JUMPDEST PUSH2 0x62A JUMP JUMPDEST PUSH2 0x171 PUSH2 0x28E CALLDATASIZE PUSH1 0x4 PUSH2 0xEA8 JUMP JUMPDEST PUSH2 0x65B JUMP JUMPDEST PUSH2 0x15C PUSH2 0x2A1 CALLDATASIZE PUSH1 0x4 PUSH2 0xDFA JUMP JUMPDEST PUSH2 0x69B JUMP JUMPDEST PUSH2 0x18A PUSH1 0x1 SLOAD DUP2 JUMP JUMPDEST PUSH2 0x18A PUSH2 0x2BD CALLDATASIZE PUSH1 0x4 PUSH2 0xDFA JUMP JUMPDEST PUSH2 0x6C8 JUMP JUMPDEST PUSH2 0x18A PUSH2 0x2D0 CALLDATASIZE PUSH1 0x4 PUSH2 0xDFA JUMP JUMPDEST PUSH2 0x713 JUMP JUMPDEST PUSH2 0x15C PUSH2 0x2E3 CALLDATASIZE PUSH1 0x4 PUSH2 0xDFA JUMP JUMPDEST PUSH2 0x82A JUMP JUMPDEST PUSH2 0x18A PUSH2 0x2F6 CALLDATASIZE PUSH1 0x4 PUSH2 0xEA8 JUMP JUMPDEST PUSH2 0x854 JUMP JUMPDEST PUSH1 0x2 DUP1 SLOAD PUSH2 0x308 SWAP1 PUSH2 0xEF6 JUMP JUMPDEST DUP1 PUSH1 0x1F ADD PUSH1 0x20 DUP1 SWAP2 DIV MUL PUSH1 0x20 ADD PUSH1 0x40 MLOAD SWAP1 DUP2 ADD PUSH1 0x40 MSTORE DUP1 SWAP3 SWAP2 SWAP1 DUP2 DUP2 MSTORE PUSH1 0x20 ADD DUP3 DUP1 SLOAD PUSH2 0x334 SWAP1 PUSH2 0xEF6 JUMP JUMPDEST DUP1 ISZERO PUSH2 0x37F JUMPI DUP1 PUSH1 0x1F LT PUSH2 0x356 JUMPI PUSH2 0x100 DUP1 DUP4 SLOAD DIV MUL DUP4 MSTORE SWAP2 PUSH1 0x20 ADD SWAP2 PUSH2 0x37F JUMP JUMPDEST DUP3 ADD SWAP2 SWAP1 PUSH0 MSTORE PUSH1 0x20 PUSH0 KECCAK256 SWAP1 JUMPDEST DUP2 SLOAD DUP2 MSTORE SWAP1 PUSH1 0x1 ADD SWAP1 PUSH1 0x20 ADD DUP1 DUP4 GT PUSH2 0x362 JUMPI DUP3 SWAP1 SUB PUSH1 0x1F AND DUP3 ADD SWAP2 JUMPDEST POP POP POP POP POP DUP2 JUMP JUMPDEST PUSH2 0x390 CALLER PUSH2 0x4F0 JUMP JUMPDEST ISZERO ISZERO PUSH0 SUB PUSH2 0x3B1 JUMPI PUSH1 0x40 MLOAD PUSH4 0xD4679899 PUSH1 0xE0 SHL DUP2 MSTORE PUSH1 0x4 ADD PUSH1 0x40 MLOAD DUP1 SWAP2 SUB SWAP1 REVERT JUMPDEST PUSH0 PUSH2 0x3BC DUP4 DUP4 PUSH2 0x908 JUMP JUMPDEST SWAP1 POP PUSH2 0x3C9 DUP5 DUP4 DUP4 PUSH2 0xA2E JUMP JUMPDEST POP POP POP POP JUMP JUMPDEST PUSH1 0x1 SLOAD PUSH1 0x1 PUSH1 0x1 PUSH1 0xA0 SHL SUB DUP3 AND PUSH0 SWAP1 DUP2 MSTORE PUSH1 0x6 PUSH1 0x20 MSTORE PUSH1 0x40 DUP2 KECCAK256 SLOAD SWAP1 SWAP2 SWAP1 PUSH2 0x403 SWAP1 PUSH1 0x1 PUSH1 0x1 PUSH1 0x40 SHL SUB AND TIMESTAMP PUSH1 0x14 SHL PUSH2 0xF42 JUMP JUMPDEST PUSH1 0x1 PUSH1 0x1 PUSH1 0x40 SHL SUB AND LT ISZERO SWAP3 SWAP2 POP POP JUMP JUMPDEST PUSH0 PUSH2 0x41F CALLER DUP4 PUSH2 0xAC7 JUMP JUMPDEST SWAP1 POP PUSH0 DUP1 JUMPDEST DUP5 DUP2 LT DUP1 ISZERO PUSH2 0x432 JUMPI POP DUP3 DUP3 LT JUMPDEST ISZERO PUSH2 0x48E JUMPI PUSH2 0x470 DUP7 DUP7 DUP4 DUP2 DUP2 LT PUSH2 0x44C JUMPI PUSH2 0x44C PUSH2 0xF62 JUMP JUMPDEST SWAP1 POP PUSH1 0x20 MUL ADD PUSH1 0x20 DUP2 ADD SWAP1 PUSH2 0x461 SWAP2 SWAP1 PUSH2 0xDFA JUMP JUMPDEST PUSH2 0x46B DUP5 DUP7 PUSH2 0xF76 JUMP JUMPDEST PUSH2 0xAC7 JUMP JUMPDEST PUSH2 0x47A SWAP1 DUP4 PUSH2 0xF89 JUMP JUMPDEST SWAP2 POP DUP1 PUSH2 0x486 DUP2 PUSH2 0xF9C JUMP JUMPDEST SWAP2 POP POP PUSH2 0x424 JUMP JUMPDEST POP DUP1 PUSH0 SUB PUSH2 0x4AF JUMPI PUSH1 0x40 MLOAD PUSH4 0xD9B91419 PUSH1 0xE0 SHL DUP2 MSTORE PUSH1 0x4 ADD PUSH1 0x40 MLOAD DUP1 SWAP2 SUB SWAP1 REVERT JUMPDEST DUP2 DUP2 PUSH2 0x4B9 PUSH2 0x56D JUMP JUMPDEST PUSH2 0x4C3 SWAP2 SWAP1 PUSH2 0xF76 JUMP JUMPDEST PUSH2 0x4CD SWAP2 SWAP1 PUSH2 0xF76 JUMP JUMPDEST PUSH1 0x1 PUSH1 0x1 PUSH1 0xC0 SHL SUB AND PUSH1 0x3 SSTORE TIMESTAMP PUSH1 0x14 SHL PUSH1 0x1 PUSH1 0x1 PUSH1 0x40 SHL SUB AND PUSH1 0x4 SSTORE POP POP POP POP POP JUMP JUMPDEST PUSH0 PUSH32 0x0 PUSH1 0x1 PUSH1 0x1 PUSH1 0xA0 SHL SUB AND DUP3 PUSH1 0x1 PUSH1 0x1 PUSH1 0xA0 SHL SUB AND EQ PUSH2 0x531 JUMPI POP PUSH0 SWAP2 SWAP1 POP JUMP JUMPDEST POP PUSH1 0x1 SWAP2 SWAP1 POP JUMP JUMPDEST PUSH0 PUSH2 0x542 PUSH2 0x56D JUMP JUMPDEST PUSH2 0x54B DUP4 PUSH2 0x713 JUMP JUMPDEST PUSH2 0x55D SWAP1 PUSH8 0xDE0B6B3A7640000 PUSH2 0xFB4 JUMP JUMPDEST PUSH2 0x567 SWAP2 SWAP1 PUSH2 0xFDF JUMP JUMPDEST SWAP3 SWAP2 POP POP JUMP JUMPDEST PUSH0 PUSH1 0x4 SLOAD PUSH2 0x57B TIMESTAMP PUSH1 0x14 SHL SWAP1 JUMP JUMPDEST PUSH1 0x1 PUSH1 0x1 PUSH1 0x40 SHL SUB AND PUSH2 0x58E SWAP2 SWAP1 PUSH2 0xF76 JUMP JUMPDEST PUSH32 0x0 PUSH1 0x1 PUSH1 0x1 PUSH1 0xA0 SHL SUB AND PUSH4 0x18160DDD PUSH1 0x40 MLOAD DUP2 PUSH4 0xFFFFFFFF AND PUSH1 0xE0 SHL DUP2 MSTORE PUSH1 0x4 ADD PUSH1 0x20 PUSH1 0x40 MLOAD DUP1 DUP4 SUB DUP2 DUP7 GAS STATICCALL ISZERO DUP1 ISZERO PUSH2 0x5EA JUMPI RETURNDATASIZE PUSH0 DUP1 RETURNDATACOPY RETURNDATASIZE PUSH0 REVERT JUMPDEST POP POP POP POP PUSH1 0x40 MLOAD RETURNDATASIZE PUSH1 0x1F NOT PUSH1 0x1F DUP3 ADD AND DUP3 ADD DUP1 PUSH1 0x40 MSTORE POP DUP2 ADD SWAP1 PUSH2 0x60E SWAP2 SWAP1 PUSH2 0xFF2 JUMP JUMPDEST PUSH2 0x618 SWAP2 SWAP1 PUSH2 0xFB4 JUMP JUMPDEST PUSH1 0x3 SLOAD PUSH2 0x625 SWAP2 SWAP1 PUSH2 0xF89 JUMP JUMPDEST SWAP1 POP SWAP1 JUMP JUMPDEST PUSH2 0x635 DUP4 DUP4 DUP4 PUSH2 0x65B JUMP JUMPDEST ISZERO ISZERO PUSH0 SUB PUSH2 0x656 JUMPI PUSH1 0x40 MLOAD PUSH4 0xBCFCDC11 PUSH1 0xE0 SHL DUP2 MSTORE PUSH1 0x4 ADD PUSH1 0x40 MLOAD DUP1 SWAP2 SUB SWAP1 REVERT JUMPDEST POP POP POP JUMP JUMPDEST PUSH0 DUP1 PUSH2 0x668 DUP6 DUP6 DUP6 PUSH2 0x854 JUMP JUMPDEST SWAP1 POP PUSH2 0x672 PUSH2 0x56D JUMP JUMPDEST PUSH0 SLOAD PUSH2 0x684 SWAP2 SWAP1 PUSH4 0xFFFFFFFF AND PUSH2 0xFB4 JUMP JUMPDEST PUSH2 0x691 DUP3 PUSH3 0xF4240 PUSH2 0xFB4 JUMP JUMPDEST GT SWAP6 SWAP5 POP POP POP POP POP JUMP JUMPDEST PUSH2 0x6A4 CALLER PUSH2 0x4F0 JUMP JUMPDEST ISZERO ISZERO PUSH0 SUB PUSH2 0x6C5 JUMPI PUSH1 0x40 MLOAD PUSH4 0xD4679899 PUSH1 0xE0 SHL DUP2 MSTORE PUSH1 0x4 ADD PUSH1 0x40 MLOAD DUP1 SWAP2 SUB SWAP1 REVERT JUMPDEST POP JUMP JUMPDEST PUSH1 0x1 PUSH1 0x1 PUSH1 0xA0 SHL SUB DUP2 AND PUSH0 SWAP1 DUP2 MSTORE PUSH1 0x6 PUSH1 0x20 MSTORE PUSH1 0x40 DUP2 KECCAK256 SLOAD PUSH1 0x14 SWAP1 PUSH2 0x6F8 SWAP1 PUSH1 0x1 PUSH1 0x1 PUSH1 0x40 SHL SUB AND TIMESTAMP DUP4 SHL PUSH2 0xF42 JUMP JUMPDEST PUSH1 0x1 PUSH1 0x1 PUSH1 0x40 SHL SUB AND SWAP1 SHR PUSH1 0x1 PUSH1 0x1 PUSH1 0x40 SHL SUB AND SWAP1 POP SWAP2 SWAP1 POP JUMP JUMPDEST PUSH1 0x1 SLOAD PUSH1 0x1 PUSH1 0x1 PUSH1 0xA0 SHL SUB DUP3 AND PUSH0 SWAP1 DUP2 MSTORE PUSH1 0x6 PUSH1 0x20 MSTORE PUSH1 0x40 DUP2 KECCAK256 SLOAD SWAP1 SWAP2 SWAP1 PUSH2 0x747 SWAP1 PUSH1 0x1 PUSH1 0x1 PUSH1 0x40 SHL SUB AND TIMESTAMP PUSH1 0x14 SHL PUSH2 0xF42 JUMP JUMPDEST PUSH1 0x1 PUSH1 0x1 PUSH1 0x40 SHL SUB AND LT ISZERO PUSH2 0x75D JUMPI POP PUSH0 SWAP2 SWAP1 POP JUMP JUMPDEST PUSH1 0x1 PUSH1 0x1 PUSH1 0xA0 SHL SUB DUP3 AND PUSH0 SWAP1 DUP2 MSTORE PUSH1 0x6 PUSH1 0x20 MSTORE PUSH1 0x40 SWAP1 KECCAK256 SLOAD PUSH2 0x78B SWAP1 PUSH1 0x1 PUSH1 0x1 PUSH1 0x40 SHL SUB AND TIMESTAMP PUSH1 0x14 SHL PUSH2 0xF42 JUMP JUMPDEST PUSH1 0x40 MLOAD PUSH4 0x70A08231 PUSH1 0xE0 SHL DUP2 MSTORE PUSH1 0x1 PUSH1 0x1 PUSH1 0xA0 SHL SUB DUP5 DUP2 AND PUSH1 0x4 DUP4 ADD MSTORE PUSH1 0x1 PUSH1 0x1 PUSH1 0x40 SHL SUB SWAP3 SWAP1 SWAP3 AND SWAP2 PUSH32 0x0 AND SWAP1 PUSH4 0x70A08231 SWAP1 PUSH1 0x24 ADD PUSH1 0x20 PUSH1 0x40 MLOAD DUP1 DUP4 SUB DUP2 DUP7 GAS STATICCALL ISZERO DUP1 ISZERO PUSH2 0x7FC JUMPI RETURNDATASIZE PUSH0 DUP1 RETURNDATACOPY RETURNDATASIZE PUSH0 REVERT JUMPDEST POP POP POP POP PUSH1 0x40 MLOAD RETURNDATASIZE PUSH1 0x1F NOT PUSH1 0x1F DUP3 ADD AND DUP3 ADD DUP1 PUSH1 0x40 MSTORE POP DUP2 ADD SWAP1 PUSH2 0x820 SWAP2 SWAP1 PUSH2 0xFF2 JUMP JUMPDEST PUSH2 0x567 SWAP2 SWAP1 PUSH2 0xFB4 JUMP JUMPDEST PUSH2 0x833 DUP2 PUSH2 0x3CF JUMP JUMPDEST ISZERO ISZERO PUSH0 SUB PUSH2 0x6C5 JUMPI PUSH1 0x40 MLOAD PUSH4 0x4EDF34E7 PUSH1 0xE1 SHL DUP2 MSTORE PUSH1 0x4 ADD PUSH1 0x40 MLOAD DUP1 SWAP2 SUB SWAP1 REVERT JUMPDEST PUSH0 PUSH2 0x85F DUP4 DUP4 PUSH2 0xC23 JUMP JUMPDEST PUSH2 0x867 JUMPI PUSH0 DUP1 REVERT JUMPDEST PUSH0 PUSH2 0x871 DUP6 PUSH2 0x713 JUMP JUMPDEST SWAP1 POP PUSH0 JUMPDEST DUP4 DUP2 LT ISZERO PUSH2 0x8FF JUMPI PUSH0 DUP6 DUP6 DUP4 DUP2 DUP2 LT PUSH2 0x890 JUMPI PUSH2 0x890 PUSH2 0xF62 JUMP JUMPDEST SWAP1 POP PUSH1 0x20 MUL ADD PUSH1 0x20 DUP2 ADD SWAP1 PUSH2 0x8A5 SWAP2 SWAP1 PUSH2 0xDFA JUMP JUMPDEST SWAP1 POP DUP7 PUSH1 0x1 PUSH1 0x1 PUSH1 0xA0 SHL SUB AND DUP2 PUSH1 0x1 PUSH1 0x1 PUSH1 0xA0 SHL SUB AND SUB PUSH2 0x8C4 JUMPI PUSH0 DUP1 REVERT JUMPDEST PUSH2 0x8CE DUP8 DUP3 PUSH2 0xCF8 JUMP JUMPDEST PUSH2 0x8D6 JUMPI PUSH0 DUP1 REVERT JUMPDEST PUSH2 0x8DF DUP2 PUSH2 0x713 JUMP JUMPDEST PUSH2 0x8E9 SWAP1 DUP5 PUSH2 0xF89 JUMP JUMPDEST SWAP3 POP POP DUP1 DUP1 PUSH2 0x8F7 SWAP1 PUSH2 0xF9C JUMP JUMPDEST SWAP2 POP POP PUSH2 0x875 JUMP JUMPDEST POP SWAP5 SWAP4 POP POP POP POP JUMP JUMPDEST PUSH0 PUSH1 0x1 PUSH1 0x1 PUSH1 0xA0 SHL SUB DUP4 AND PUSH2 0x91E JUMPI POP PUSH0 PUSH2 0x567 JUMP JUMPDEST PUSH0 PUSH2 0x928 DUP5 PUSH2 0x713 JUMP JUMPDEST PUSH1 0x40 MLOAD PUSH4 0x70A08231 PUSH1 0xE0 SHL DUP2 MSTORE PUSH1 0x1 PUSH1 0x1 PUSH1 0xA0 SHL SUB DUP7 DUP2 AND PUSH1 0x4 DUP4 ADD MSTORE SWAP2 SWAP3 POP PUSH0 SWAP2 DUP6 SWAP2 PUSH32 0x0 SWAP1 SWAP2 AND SWAP1 PUSH4 0x70A08231 SWAP1 PUSH1 0x24 ADD PUSH1 0x20 PUSH1 0x40 MLOAD DUP1 DUP4 SUB DUP2 DUP7 GAS STATICCALL ISZERO DUP1 ISZERO PUSH2 0x995 JUMPI RETURNDATASIZE PUSH0 DUP1 RETURNDATACOPY RETURNDATASIZE PUSH0 REVERT JUMPDEST POP POP POP POP PUSH1 0x40 MLOAD RETURNDATASIZE PUSH1 0x1F NOT PUSH1 0x1F DUP3 ADD AND DUP3 ADD DUP1 PUSH1 0x40 MSTORE POP DUP2 ADD SWAP1 PUSH2 0x9B9 SWAP2 SWAP1 PUSH2 0xFF2 JUMP JUMPDEST PUSH2 0x9C3 SWAP2 SWAP1 PUSH2 0xF89 JUMP JUMPDEST SWAP1 POP PUSH2 0x9CF DUP2 DUP4 PUSH2 0xFDF JUMP JUMPDEST PUSH2 0x9E5 SWAP1 PUSH1 0x1 PUSH1 0x1 PUSH1 0x40 SHL SUB TIMESTAMP PUSH1 0x14 SHL AND PUSH2 0xF76 JUMP JUMPDEST PUSH1 0x1 PUSH1 0x1 PUSH1 0xA0 SHL SUB DUP7 AND PUSH0 SWAP1 DUP2 MSTORE PUSH1 0x6 PUSH1 0x20 MSTORE PUSH1 0x40 SWAP1 KECCAK256 DUP1 SLOAD PUSH8 0xFFFFFFFFFFFFFFFF NOT AND PUSH1 0x1 PUSH1 0x1 PUSH1 0x40 SHL SUB SWAP3 SWAP1 SWAP3 AND SWAP2 SWAP1 SWAP2 OR SWAP1 SSTORE PUSH2 0xA25 DUP2 DUP4 PUSH2 0x1009 JUMP JUMPDEST SWAP6 SWAP5 POP POP POP POP POP JUMP JUMPDEST TIMESTAMP PUSH1 0x14 SHL PUSH0 PUSH1 0x1 PUSH1 0x1 PUSH1 0xA0 SHL SUB DUP6 AND ISZERO PUSH2 0xA87 JUMPI PUSH1 0x1 PUSH1 0x1 PUSH1 0xA0 SHL SUB DUP6 AND PUSH0 SWAP1 DUP2 MSTORE PUSH1 0x6 PUSH1 0x20 MSTORE PUSH1 0x40 SWAP1 KECCAK256 SLOAD DUP5 SWAP1 PUSH2 0xA6F SWAP1 PUSH1 0x1 PUSH1 0x1 PUSH1 0x40 SHL SUB AND DUP5 PUSH2 0xF42 JUMP JUMPDEST PUSH1 0x1 PUSH1 0x1 PUSH1 0x40 SHL SUB AND PUSH2 0xA82 SWAP2 SWAP1 PUSH2 0xFB4 JUMP JUMPDEST PUSH2 0xA89 JUMP JUMPDEST PUSH0 JUMPDEST SWAP1 POP DUP3 DUP2 PUSH2 0xA95 PUSH2 0x56D JUMP JUMPDEST PUSH2 0xA9F SWAP2 SWAP1 PUSH2 0xF76 JUMP JUMPDEST PUSH2 0xAA9 SWAP2 SWAP1 PUSH2 0xF76 JUMP JUMPDEST PUSH1 0x1 PUSH1 0x1 PUSH1 0xC0 SHL SUB AND PUSH1 0x3 SSTORE POP PUSH1 0x1 PUSH1 0x1 PUSH1 0x40 SHL SUB AND PUSH1 0x4 SSTORE POP POP POP JUMP JUMPDEST PUSH0 DUP1 PUSH2 0xAD2 DUP5 PUSH2 0x713 JUMP JUMPDEST SWAP1 POP DUP1 DUP4 LT PUSH2 0xB19 JUMPI PUSH1 0x1 PUSH1 0x1 PUSH1 0xA0 SHL SUB DUP5 AND PUSH0 SWAP1 DUP2 MSTORE PUSH1 0x6 PUSH1 0x20 MSTORE PUSH1 0x40 SWAP1 KECCAK256 DUP1 SLOAD PUSH8 0xFFFFFFFFFFFFFFFF NOT AND TIMESTAMP PUSH1 0x14 SHL PUSH1 0x1 PUSH1 0x1 PUSH1 0x40 SHL SUB AND OR SWAP1 SSTORE SWAP2 POP DUP2 SWAP1 POP PUSH2 0x567 JUMP JUMPDEST PUSH1 0x40 MLOAD PUSH4 0x70A08231 PUSH1 0xE0 SHL DUP2 MSTORE PUSH1 0x1 PUSH1 0x1 PUSH1 0xA0 SHL SUB DUP6 DUP2 AND PUSH1 0x4 DUP4 ADD MSTORE PUSH32 0x0 AND SWAP1 PUSH4 0x70A08231 SWAP1 PUSH1 0x24 ADD PUSH1 0x20 PUSH1 0x40 MLOAD DUP1 DUP4 SUB DUP2 DUP7 GAS STATICCALL ISZERO DUP1 ISZERO PUSH2 0xB7D JUMPI RETURNDATASIZE PUSH0 DUP1 RETURNDATACOPY RETURNDATASIZE PUSH0 REVERT JUMPDEST POP POP POP POP PUSH1 0x40 MLOAD RETURNDATASIZE PUSH1 0x1F NOT PUSH1 0x1F DUP3 ADD AND DUP3 ADD DUP1 PUSH1 0x40 MSTORE POP DUP2 ADD SWAP1 PUSH2 0xBA1 SWAP2 SWAP1 PUSH2 0xFF2 JUMP JUMPDEST PUSH2 0xBAB DUP5 DUP4 PUSH2 0xF76 JUMP JUMPDEST PUSH2 0xBB5 SWAP2 SWAP1 PUSH2 0xFDF JUMP JUMPDEST PUSH2 0xBCB SWAP1 PUSH1 0x1 PUSH1 0x1 PUSH1 0x40 SHL SUB TIMESTAMP PUSH1 0x14 SHL AND PUSH2 0xF76 JUMP JUMPDEST PUSH1 0x1 PUSH1 0x1 PUSH1 0xA0 SHL SUB DUP6 AND PUSH0 SWAP1 DUP2 MSTORE PUSH1 0x6 PUSH1 0x20 MSTORE PUSH1 0x40 SWAP1 KECCAK256 DUP1 SLOAD PUSH8 0xFFFFFFFFFFFFFFFF NOT AND PUSH1 0x1 PUSH1 0x1 PUSH1 0x40 SHL SUB SWAP3 SWAP1 SWAP3 AND SWAP2 SWAP1 SWAP2 OR SWAP1 SSTORE PUSH2 0xC0A DUP5 PUSH2 0x713 JUMP JUMPDEST PUSH2 0xC14 SWAP1 DUP3 PUSH2 0xF76 JUMP JUMPDEST SWAP2 POP POP PUSH2 0x567 JUMP JUMPDEST POP SWAP3 SWAP2 POP POP JUMP JUMPDEST PUSH0 PUSH1 0x1 DUP3 GT PUSH2 0xC34 JUMPI POP PUSH1 0x1 PUSH2 0x567 JUMP JUMPDEST PUSH0 DUP4 DUP4 PUSH0 DUP2 DUP2 LT PUSH2 0xC47 JUMPI PUSH2 0xC47 PUSH2 0xF62 JUMP JUMPDEST SWAP1 POP PUSH1 0x20 MUL ADD PUSH1 0x20 DUP2 ADD SWAP1 PUSH2 0xC5C SWAP2 SWAP1 PUSH2 0xDFA JUMP JUMPDEST SWAP1 POP PUSH1 0x1 JUMPDEST DUP4 DUP2 LT ISZERO PUSH2 0xCED JUMPI DUP2 PUSH1 0x1 PUSH1 0x1 PUSH1 0xA0 SHL SUB AND DUP6 DUP6 DUP4 DUP2 DUP2 LT PUSH2 0xC85 JUMPI PUSH2 0xC85 PUSH2 0xF62 JUMP JUMPDEST SWAP1 POP PUSH1 0x20 MUL ADD PUSH1 0x20 DUP2 ADD SWAP1 PUSH2 0xC9A SWAP2 SWAP1 PUSH2 0xDFA JUMP JUMPDEST PUSH1 0x1 PUSH1 0x1 PUSH1 0xA0 SHL SUB AND GT PUSH2 0xCB2 JUMPI PUSH0 SWAP3 POP POP POP PUSH2 0x567 JUMP JUMPDEST DUP5 DUP5 DUP3 DUP2 DUP2 LT PUSH2 0xCC4 JUMPI PUSH2 0xCC4 PUSH2 0xF62 JUMP JUMPDEST SWAP1 POP PUSH1 0x20 MUL ADD PUSH1 0x20 DUP2 ADD SWAP1 PUSH2 0xCD9 SWAP2 SWAP1 PUSH2 0xDFA JUMP JUMPDEST SWAP2 POP DUP1 PUSH2 0xCE5 DUP2 PUSH2 0xF9C JUMP JUMPDEST SWAP2 POP POP PUSH2 0xC61 JUMP JUMPDEST POP PUSH1 0x1 SWAP2 POP POP PUSH2 0x567 JUMP JUMPDEST PUSH0 DUP3 PUSH1 0x1 PUSH1 0x1 PUSH1 0xA0 SHL SUB AND DUP3 PUSH1 0x1 PUSH1 0x1 PUSH1 0xA0 SHL SUB AND SUB PUSH2 0xD1A JUMPI POP PUSH1 0x1 PUSH2 0x567 JUMP JUMPDEST PUSH1 0x1 PUSH1 0x1 PUSH1 0xA0 SHL SUB DUP3 AND PUSH2 0xD2F JUMPI POP PUSH0 PUSH2 0x567 JUMP JUMPDEST PUSH1 0x1 PUSH1 0x1 PUSH1 0xA0 SHL SUB DUP1 DUP4 AND PUSH0 SWAP1 DUP2 MSTORE PUSH1 0x5 PUSH1 0x20 MSTORE PUSH1 0x40 SWAP1 KECCAK256 SLOAD PUSH2 0xD54 SWAP2 DUP6 SWAP2 AND PUSH2 0xCF8 JUMP JUMPDEST SWAP1 POP PUSH2 0x567 JUMP JUMPDEST PUSH0 PUSH1 0x20 DUP1 DUP4 MSTORE DUP4 MLOAD DUP1 DUP3 DUP6 ADD MSTORE PUSH0 JUMPDEST DUP2 DUP2 LT ISZERO PUSH2 0xD86 JUMPI DUP6 DUP2 ADD DUP4 ADD MLOAD DUP6 DUP3 ADD PUSH1 0x40 ADD MSTORE DUP3 ADD PUSH2 0xD6A JUMP JUMPDEST POP PUSH0 PUSH1 0x40 DUP3 DUP7 ADD ADD MSTORE PUSH1 0x40 PUSH1 0x1F NOT PUSH1 0x1F DUP4 ADD AND DUP6 ADD ADD SWAP3 POP POP POP SWAP3 SWAP2 POP POP JUMP JUMPDEST DUP1 CALLDATALOAD PUSH1 0x1 PUSH1 0x1 PUSH1 0xA0 SHL SUB DUP2 AND DUP2 EQ PUSH2 0xDBC JUMPI PUSH0 DUP1 REVERT JUMPDEST SWAP2 SWAP1 POP JUMP JUMPDEST PUSH0 DUP1 PUSH0 PUSH1 0x60 DUP5 DUP7 SUB SLT ISZERO PUSH2 0xDD3 JUMPI PUSH0 DUP1 REVERT JUMPDEST PUSH2 0xDDC DUP5 PUSH2 0xDA6 JUMP JUMPDEST SWAP3 POP PUSH2 0xDEA PUSH1 0x20 DUP6 ADD PUSH2 0xDA6 JUMP JUMPDEST SWAP2 POP PUSH1 0x40 DUP5 ADD CALLDATALOAD SWAP1 POP SWAP3 POP SWAP3 POP SWAP3 JUMP JUMPDEST PUSH0 PUSH1 0x20 DUP3 DUP5 SUB SLT ISZERO PUSH2 0xE0A JUMPI PUSH0 DUP1 REVERT JUMPDEST PUSH2 0xE13 DUP3 PUSH2 0xDA6 JUMP JUMPDEST SWAP4 SWAP3 POP POP POP JUMP JUMPDEST PUSH0 DUP1 DUP4 PUSH1 0x1F DUP5 ADD SLT PUSH2 0xE2A JUMPI PUSH0 DUP1 REVERT JUMPDEST POP DUP2 CALLDATALOAD PUSH1 0x1 PUSH1 0x1 PUSH1 0x40 SHL SUB DUP2 GT ISZERO PUSH2 0xE40 JUMPI PUSH0 DUP1 REVERT JUMPDEST PUSH1 0x20 DUP4 ADD SWAP2 POP DUP4 PUSH1 0x20 DUP3 PUSH1 0x5 SHL DUP6 ADD ADD GT ISZERO PUSH2 0xE5A JUMPI PUSH0 DUP1 REVERT JUMPDEST SWAP3 POP SWAP3 SWAP1 POP JUMP JUMPDEST PUSH0 DUP1 PUSH0 PUSH1 0x40 DUP5 DUP7 SUB SLT ISZERO PUSH2 0xE73 JUMPI PUSH0 DUP1 REVERT JUMPDEST DUP4 CALLDATALOAD PUSH1 0x1 PUSH1 0x1 PUSH1 0x40 SHL SUB DUP2 GT ISZERO PUSH2 0xE88 JUMPI PUSH0 DUP1 REVERT JUMPDEST PUSH2 0xE94 DUP7 DUP3 DUP8 ADD PUSH2 0xE1A JUMP JUMPDEST SWAP1 SWAP8 SWAP1 SWAP7 POP PUSH1 0x20 SWAP6 SWAP1 SWAP6 ADD CALLDATALOAD SWAP5 SWAP4 POP POP POP POP JUMP JUMPDEST PUSH0 DUP1 PUSH0 PUSH1 0x40 DUP5 DUP7 SUB SLT ISZERO PUSH2 0xEBA JUMPI PUSH0 DUP1 REVERT JUMPDEST PUSH2 0xEC3 DUP5 PUSH2 0xDA6 JUMP JUMPDEST SWAP3 POP PUSH1 0x20 DUP5 ADD CALLDATALOAD PUSH1 0x1 PUSH1 0x1 PUSH1 0x40 SHL SUB DUP2 GT ISZERO PUSH2 0xEDD JUMPI PUSH0 DUP1 REVERT JUMPDEST PUSH2 0xEE9 DUP7 DUP3 DUP8 ADD PUSH2 0xE1A JUMP JUMPDEST SWAP5 SWAP8 SWAP1 SWAP7 POP SWAP4 SWAP5 POP POP POP POP JUMP JUMPDEST PUSH1 0x1 DUP2 DUP2 SHR SWAP1 DUP3 AND DUP1 PUSH2 0xF0A JUMPI PUSH1 0x7F DUP3 AND SWAP2 POP JUMPDEST PUSH1 0x20 DUP3 LT DUP2 SUB PUSH2 0xF28 JUMPI PUSH4 0x4E487B71 PUSH1 0xE0 SHL PUSH0 MSTORE PUSH1 0x22 PUSH1 0x4 MSTORE PUSH1 0x24 PUSH0 REVERT JUMPDEST POP SWAP2 SWAP1 POP JUMP JUMPDEST PUSH4 0x4E487B71 PUSH1 0xE0 SHL PUSH0 MSTORE PUSH1 0x11 PUSH1 0x4 MSTORE PUSH1 0x24 PUSH0 REVERT JUMPDEST PUSH1 0x1 PUSH1 0x1 PUSH1 0x40 SHL SUB DUP3 DUP2 AND DUP3 DUP3 AND SUB SWAP1 DUP1 DUP3 GT ISZERO PUSH2 0xC1C JUMPI PUSH2 0xC1C PUSH2 0xF2E JUMP JUMPDEST PUSH4 0x4E487B71 PUSH1 0xE0 SHL PUSH0 MSTORE PUSH1 0x32 PUSH1 0x4 MSTORE PUSH1 0x24 PUSH0 REVERT JUMPDEST DUP2 DUP2 SUB DUP2 DUP2 GT ISZERO PUSH2 0x567 JUMPI PUSH2 0x567 PUSH2 0xF2E JUMP JUMPDEST DUP1 DUP3 ADD DUP1 DUP3 GT ISZERO PUSH2 0x567 JUMPI PUSH2 0x567 PUSH2 0xF2E JUMP JUMPDEST PUSH0 PUSH1 0x1 DUP3 ADD PUSH2 0xFAD JUMPI PUSH2 0xFAD PUSH2 0xF2E JUMP JUMPDEST POP PUSH1 0x1 ADD SWAP1 JUMP JUMPDEST DUP1 DUP3 MUL DUP2 ISZERO DUP3 DUP3 DIV DUP5 EQ OR PUSH2 0x567 JUMPI PUSH2 0x567 PUSH2 0xF2E JUMP JUMPDEST PUSH4 0x4E487B71 PUSH1 0xE0 SHL PUSH0 MSTORE PUSH1 0x12 PUSH1 0x4 MSTORE PUSH1 0x24 PUSH0 REVERT JUMPDEST PUSH0 DUP3 PUSH2 0xFED JUMPI PUSH2 0xFED PUSH2 0xFCB JUMP JUMPDEST POP DIV SWAP1 JUMP JUMPDEST PUSH0 PUSH1 0x20 DUP3 DUP5 SUB SLT ISZERO PUSH2 0x1002 JUMPI PUSH0 DUP1 REVERT JUMPDEST POP MLOAD SWAP2 SWAP1 POP JUMP JUMPDEST PUSH0 DUP3 PUSH2 0x1017 JUMPI PUSH2 0x1017 PUSH2 0xFCB JUMP JUMPDEST POP MOD SWAP1 JUMP INVALID LOG2 PUSH5 0x6970667358 0x22 SLT KECCAK256 0xAC PUSH26 0xC9B598AA5AB55125612688A0B1A04FA12B9B62B6709681F991D1 0xE7 AND LOG2 0xC3 PUSH5 0x736F6C6343 STOP ADDMOD EQ STOP CALLER PUSH1 0xA0 PUSH1 0x40 MSTORE CALLVALUE DUP1 ISZERO PUSH3 0x10 JUMPI PUSH0 DUP1 REVERT JUMPDEST POP PUSH1 0x40 MLOAD PUSH3 0x154E CODESIZE SUB DUP1 PUSH3 0x154E DUP4 CODECOPY DUP2 ADD PUSH1 0x40 DUP2 SWAP1 MSTORE PUSH3 0x33 SWAP2 PUSH3 0xCD JUMP JUMPDEST PUSH1 0x1 PUSH1 0x1 PUSH1 0xA0 SHL SUB DUP5 AND PUSH1 0x80 MSTORE DUP4 DUP4 DUP4 DUP4 PUSH1 0x2 PUSH3 0x52 DUP5 DUP3 PUSH3 0x26B JUMP JUMPDEST POP PUSH0 DUP1 SLOAD PUSH4 0xFFFFFFFF NOT AND PUSH4 0xFFFFFFFF DUP5 AND OR SWAP1 SSTORE PUSH1 0x14 PUSH3 0x7B PUSH1 0xFF DUP4 AND PUSH3 0x15180 PUSH3 0x333 JUMP JUMPDEST SWAP1 SHL PUSH1 0x1 SSTORE POP PUSH3 0x35D SWAP7 POP POP POP POP POP POP POP JUMP JUMPDEST PUSH4 0x4E487B71 PUSH1 0xE0 SHL PUSH0 MSTORE PUSH1 0x41 PUSH1 0x4 MSTORE PUSH1 0x24 PUSH0 REVERT JUMPDEST DUP1 MLOAD PUSH4 0xFFFFFFFF DUP2 AND DUP2 EQ PUSH3 0xB7 JUMPI PUSH0 DUP1 REVERT JUMPDEST SWAP2 SWAP1 POP JUMP JUMPDEST DUP1 MLOAD PUSH1 0xFF DUP2 AND DUP2 EQ PUSH3 0xB7 JUMPI PUSH0 DUP1 REVERT JUMPDEST PUSH0 DUP1 PUSH0 DUP1 PUSH1 0x80 DUP6 DUP8 SUB SLT ISZERO PUSH3 0xE1 JUMPI PUSH0 DUP1 REVERT JUMPDEST DUP5 MLOAD PUSH1 0x1 PUSH1 0x1 PUSH1 0xA0 SHL SUB DUP2 AND DUP2 EQ PUSH3 0xF8 JUMPI PUSH0 DUP1 REVERT JUMPDEST PUSH1 0x20 DUP7 DUP2 ADD MLOAD SWAP2 SWAP6 POP SWAP1 PUSH1 0x1 PUSH1 0x1 PUSH1 0x40 SHL SUB DUP1 DUP3 GT ISZERO PUSH3 0x117 JUMPI PUSH0 DUP1 REVERT JUMPDEST DUP2 DUP9 ADD SWAP2 POP DUP9 PUSH1 0x1F DUP4 ADD SLT PUSH3 0x12B JUMPI PUSH0 DUP1 REVERT JUMPDEST DUP2 MLOAD DUP2 DUP2 GT ISZERO PUSH3 0x140 JUMPI PUSH3 0x140 PUSH3 0x8F JUMP JUMPDEST PUSH1 0x40 MLOAD PUSH1 0x1F DUP3 ADD PUSH1 0x1F NOT SWAP1 DUP2 AND PUSH1 0x3F ADD AND DUP2 ADD SWAP1 DUP4 DUP3 GT DUP2 DUP4 LT OR ISZERO PUSH3 0x16B JUMPI PUSH3 0x16B PUSH3 0x8F JUMP JUMPDEST DUP2 PUSH1 0x40 MSTORE DUP3 DUP2 MSTORE DUP12 DUP7 DUP5 DUP8 ADD ADD GT ISZERO PUSH3 0x183 JUMPI PUSH0 DUP1 REVERT JUMPDEST PUSH0 SWAP4 POP JUMPDEST DUP3 DUP5 LT ISZERO PUSH3 0x1A6 JUMPI DUP5 DUP5 ADD DUP7 ADD MLOAD DUP2 DUP6 ADD DUP8 ADD MSTORE SWAP3 DUP6 ADD SWAP3 PUSH3 0x187 JUMP JUMPDEST PUSH0 DUP7 DUP5 DUP4 ADD ADD MSTORE DUP1 SWAP9 POP POP POP POP POP POP POP PUSH3 0x1C4 PUSH1 0x40 DUP7 ADD PUSH3 0xA3 JUMP JUMPDEST SWAP2 POP PUSH3 0x1D4 PUSH1 0x60 DUP7 ADD PUSH3 0xBC JUMP JUMPDEST SWAP1 POP SWAP3 SWAP6 SWAP2 SWAP5 POP SWAP3 POP JUMP JUMPDEST PUSH1 0x1 DUP2 DUP2 SHR SWAP1 DUP3 AND DUP1 PUSH3 0x1F4 JUMPI PUSH1 0x7F DUP3 AND SWAP2 POP JUMPDEST PUSH1 0x20 DUP3 LT DUP2 SUB PUSH3 0x213 JUMPI PUSH4 0x4E487B71 PUSH1 0xE0 SHL PUSH0 MSTORE PUSH1 0x22 PUSH1 0x4 MSTORE PUSH1 0x24 PUSH0 REVERT JUMPDEST POP SWAP2 SWAP1 POP JUMP JUMPDEST PUSH1 0x1F DUP3 GT ISZERO PUSH3 0x266 JUMPI PUSH0 DUP2 DUP2 MSTORE PUSH1 0x20 DUP2 KECCAK256 PUSH1 0x1F DUP6 ADD PUSH1 0x5 SHR DUP2 ADD PUSH1 0x20 DUP7 LT ISZERO PUSH3 0x241 JUMPI POP DUP1 JUMPDEST PUSH1 0x1F DUP6 ADD PUSH1 0x5 SHR DUP3 ADD SWAP2 POP JUMPDEST DUP2 DUP2 LT ISZERO PUSH3 0x262 JUMPI DUP3 DUP2 SSTORE PUSH1 0x1 ADD PUSH3 0x24D JUMP JUMPDEST POP POP POP JUMPDEST POP POP POP JUMP JUMPDEST DUP2 MLOAD PUSH1 0x1 PUSH1 0x1 PUSH1 0x40 SHL SUB DUP2 GT ISZERO PUSH3 0x287 JUMPI PUSH3 0x287 PUSH3 0x8F JUMP JUMPDEST PUSH3 0x29F DUP2 PUSH3 0x298 DUP5 SLOAD PUSH3 0x1DF JUMP JUMPDEST DUP5 PUSH3 0x219 JUMP JUMPDEST PUSH1 0x20 DUP1 PUSH1 0x1F DUP4 GT PUSH1 0x1 DUP2 EQ PUSH3 0x2D5 JUMPI PUSH0 DUP5 ISZERO PUSH3 0x2BD JUMPI POP DUP6 DUP4 ADD MLOAD JUMPDEST PUSH0 NOT PUSH1 0x3 DUP7 SWAP1 SHL SHR NOT AND PUSH1 0x1 DUP6 SWAP1 SHL OR DUP6 SSTORE PUSH3 0x262 JUMP JUMPDEST PUSH0 DUP6 DUP2 MSTORE PUSH1 0x20 DUP2 KECCAK256 PUSH1 0x1F NOT DUP7 AND SWAP2 JUMPDEST DUP3 DUP2 LT ISZERO PUSH3 0x305 JUMPI DUP9 DUP7 ADD MLOAD DUP3 SSTORE SWAP5 DUP5 ADD SWAP5 PUSH1 0x1 SWAP1 SWAP2 ADD SWAP1 DUP5 ADD PUSH3 0x2E4 JUMP JUMPDEST POP DUP6 DUP3 LT ISZERO PUSH3 0x323 JUMPI DUP8 DUP6 ADD MLOAD PUSH0 NOT PUSH1 0x3 DUP9 SWAP1 SHL PUSH1 0xF8 AND SHR NOT AND DUP2 SSTORE JUMPDEST POP POP POP POP POP PUSH1 0x1 SWAP1 DUP2 SHL ADD SWAP1 SSTORE POP JUMP JUMPDEST DUP1 DUP3 MUL DUP2 ISZERO DUP3 DUP3 DIV DUP5 EQ OR PUSH3 0x357 JUMPI PUSH4 0x4E487B71 PUSH1 0xE0 SHL PUSH0 MSTORE PUSH1 0x11 PUSH1 0x4 MSTORE PUSH1 0x24 PUSH0 REVERT JUMPDEST SWAP3 SWAP2 POP POP JUMP JUMPDEST PUSH1 0x80 MLOAD PUSH2 0x11AE PUSH3 0x3A0 PUSH0 CODECOPY PUSH0 DUP2 DUP2 PUSH2 0x1D2 ADD MSTORE DUP2 DUP2 PUSH2 0x54D ADD MSTORE DUP2 DUP2 PUSH2 0x5EA ADD MSTORE DUP2 DUP2 PUSH2 0x70A ADD MSTORE DUP2 DUP2 PUSH2 0x8EB ADD MSTORE DUP2 DUP2 PUSH2 0xA82 ADD MSTORE PUSH2 0xC6C ADD MSTORE PUSH2 0x11AE PUSH0 RETURN INVALID PUSH1 0x80 PUSH1 0x40 MSTORE CALLVALUE DUP1 ISZERO PUSH2 0xF JUMPI PUSH0 DUP1 REVERT JUMPDEST POP PUSH1 0x4 CALLDATASIZE LT PUSH2 0x153 JUMPI PUSH0 CALLDATALOAD PUSH1 0xE0 SHR DUP1 PUSH4 0x75B92AA7 GT PUSH2 0xBF JUMPI DUP1 PUSH4 0xC9F72B67 GT PUSH2 0x79 JUMPI DUP1 PUSH4 0xC9F72B67 EQ PUSH2 0x2F7 JUMPI DUP1 PUSH4 0xCE7558DC EQ PUSH2 0x30A JUMPI DUP1 PUSH4 0xD87DB283 EQ PUSH2 0x31D JUMPI DUP1 PUSH4 0xE7723A9A EQ PUSH2 0x330 JUMPI DUP1 PUSH4 0xF6153CCD EQ PUSH2 0x343 JUMPI DUP1 PUSH4 0xF734DE51 EQ PUSH2 0x34C JUMPI PUSH0 DUP1 REVERT JUMPDEST DUP1 PUSH4 0x75B92AA7 EQ PUSH2 0x299 JUMPI DUP1 PUSH4 0xA0B22B1B EQ PUSH2 0x2AC JUMPI DUP1 PUSH4 0xAD46CF91 EQ PUSH2 0x2BF JUMPI DUP1 PUSH4 0xADE041B2 EQ PUSH2 0x2D2 JUMPI DUP1 PUSH4 0xB0C2BF06 EQ PUSH2 0x2E5 JUMPI DUP1 PUSH4 0xBD245A43 EQ PUSH2 0x2EE JUMPI PUSH0 DUP1 REVERT JUMPDEST DUP1 PUSH4 0x20A44C19 GT PUSH2 0x110 JUMPI DUP1 PUSH4 0x20A44C19 EQ PUSH2 0x20C JUMPI DUP1 PUSH4 0x2E80D9B6 EQ PUSH2 0x21F JUMPI DUP1 PUSH4 0x2FCC98D0 EQ PUSH2 0x243 JUMPI DUP1 PUSH4 0x32CABF26 EQ PUSH2 0x256 JUMPI DUP1 PUSH4 0x40DEE0B5 EQ PUSH2 0x269 JUMPI DUP1 PUSH4 0x587CDE1E EQ PUSH2 0x271 JUMPI PUSH0 DUP1 REVERT JUMPDEST DUP1 PUSH4 0x6FDDE03 EQ PUSH2 0x157 JUMPI DUP1 PUSH4 0xBB3BFA8 EQ PUSH2 0x175 JUMPI DUP1 PUSH4 0xC41963B EQ PUSH2 0x18A JUMPI DUP1 PUSH4 0xEBC6EF0 EQ PUSH2 0x1AD JUMPI DUP1 PUSH4 0x11206C3C EQ PUSH2 0x1C4 JUMPI DUP1 PUSH4 0x11DF9995 EQ PUSH2 0x1CD JUMPI JUMPDEST PUSH0 DUP1 REVERT JUMPDEST PUSH2 0x15F PUSH2 0x355 JUMP JUMPDEST PUSH1 0x40 MLOAD PUSH2 0x16C SWAP2 SWAP1 PUSH2 0xE8F JUMP JUMPDEST PUSH1 0x40 MLOAD DUP1 SWAP2 SUB SWAP1 RETURN JUMPDEST PUSH2 0x188 PUSH2 0x183 CALLDATASIZE PUSH1 0x4 PUSH2 0xEF5 JUMP JUMPDEST PUSH2 0x3E1 JUMP JUMPDEST STOP JUMPDEST PUSH2 0x19D PUSH2 0x198 CALLDATASIZE PUSH1 0x4 PUSH2 0xF2E JUMP JUMPDEST PUSH2 0x429 JUMP JUMPDEST PUSH1 0x40 MLOAD SWAP1 ISZERO ISZERO DUP2 MSTORE PUSH1 0x20 ADD PUSH2 0x16C JUMP JUMPDEST PUSH2 0x1B6 PUSH1 0x3 SLOAD DUP2 JUMP JUMPDEST PUSH1 0x40 MLOAD SWAP1 DUP2 MSTORE PUSH1 0x20 ADD PUSH2 0x16C JUMP JUMPDEST PUSH2 0x1B6 PUSH1 0x4 SLOAD DUP2 JUMP JUMPDEST PUSH2 0x1F4 PUSH32 0x0 DUP2 JUMP JUMPDEST PUSH1 0x40 MLOAD PUSH1 0x1 PUSH1 0x1 PUSH1 0xA0 SHL SUB SWAP1 SWAP2 AND DUP2 MSTORE PUSH1 0x20 ADD PUSH2 0x16C JUMP JUMPDEST PUSH2 0x188 PUSH2 0x21A CALLDATASIZE PUSH1 0x4 PUSH2 0xF95 JUMP JUMPDEST PUSH2 0x46E JUMP JUMPDEST PUSH0 SLOAD PUSH2 0x22E SWAP1 PUSH4 0xFFFFFFFF AND DUP2 JUMP JUMPDEST PUSH1 0x40 MLOAD PUSH4 0xFFFFFFFF SWAP1 SWAP2 AND DUP2 MSTORE PUSH1 0x20 ADD PUSH2 0x16C JUMP JUMPDEST PUSH2 0x19D PUSH2 0x251 CALLDATASIZE PUSH1 0x4 PUSH2 0xF2E JUMP JUMPDEST PUSH2 0x54A JUMP JUMPDEST PUSH2 0x1B6 PUSH2 0x264 CALLDATASIZE PUSH1 0x4 PUSH2 0xF2E JUMP JUMPDEST PUSH2 0x593 JUMP JUMPDEST PUSH2 0x1B6 PUSH2 0x5C7 JUMP JUMPDEST PUSH2 0x1F4 PUSH2 0x27F CALLDATASIZE PUSH1 0x4 PUSH2 0xF2E JUMP JUMPDEST PUSH1 0x5 PUSH1 0x20 MSTORE PUSH0 SWAP1 DUP2 MSTORE PUSH1 0x40 SWAP1 KECCAK256 SLOAD PUSH1 0x1 PUSH1 0x1 PUSH1 0xA0 SHL SUB AND DUP2 JUMP JUMPDEST PUSH2 0x188 PUSH2 0x2A7 CALLDATASIZE PUSH1 0x4 PUSH2 0xFDC JUMP JUMPDEST PUSH2 0x684 JUMP JUMPDEST PUSH2 0x19D PUSH2 0x2BA CALLDATASIZE PUSH1 0x4 PUSH2 0xFDC JUMP JUMPDEST PUSH2 0x6B5 JUMP JUMPDEST PUSH2 0x188 PUSH2 0x2CD CALLDATASIZE PUSH1 0x4 PUSH2 0x102A JUMP JUMPDEST PUSH2 0x6F5 JUMP JUMPDEST PUSH2 0x188 PUSH2 0x2E0 CALLDATASIZE PUSH1 0x4 PUSH2 0xF2E JUMP JUMPDEST PUSH2 0x7CF JUMP JUMPDEST PUSH2 0x1B6 PUSH1 0x1 SLOAD DUP2 JUMP JUMPDEST PUSH2 0x1B6 PUSH1 0x8 SLOAD DUP2 JUMP JUMPDEST PUSH2 0x1B6 PUSH2 0x305 CALLDATASIZE PUSH1 0x4 PUSH2 0xF2E JUMP JUMPDEST PUSH2 0x7FC JUMP JUMPDEST PUSH2 0x1B6 PUSH2 0x318 CALLDATASIZE PUSH1 0x4 PUSH2 0xF2E JUMP JUMPDEST PUSH2 0x847 JUMP JUMPDEST PUSH2 0x188 PUSH2 0x32B CALLDATASIZE PUSH1 0x4 PUSH2 0xF2E JUMP JUMPDEST PUSH2 0x95E JUMP JUMPDEST PUSH2 0x1B6 PUSH2 0x33E CALLDATASIZE PUSH1 0x4 PUSH2 0xFDC JUMP JUMPDEST PUSH2 0x988 JUMP JUMPDEST PUSH2 0x1B6 PUSH1 0x7 SLOAD DUP2 JUMP JUMPDEST PUSH2 0x1B6 PUSH1 0x9 SLOAD DUP2 JUMP JUMPDEST PUSH1 0x2 DUP1 SLOAD PUSH2 0x362 SWAP1 PUSH2 0x1052 JUMP JUMPDEST DUP1 PUSH1 0x1F ADD PUSH1 0x20 DUP1 SWAP2 DIV MUL PUSH1 0x20 ADD PUSH1 0x40 MLOAD SWAP1 DUP2 ADD PUSH1 0x40 MSTORE DUP1 SWAP3 SWAP2 SWAP1 DUP2 DUP2 MSTORE PUSH1 0x20 ADD DUP3 DUP1 SLOAD PUSH2 0x38E SWAP1 PUSH2 0x1052 JUMP JUMPDEST DUP1 ISZERO PUSH2 0x3D9 JUMPI DUP1 PUSH1 0x1F LT PUSH2 0x3B0 JUMPI PUSH2 0x100 DUP1 DUP4 SLOAD DIV MUL DUP4 MSTORE SWAP2 PUSH1 0x20 ADD SWAP2 PUSH2 0x3D9 JUMP JUMPDEST DUP3 ADD SWAP2 SWAP1 PUSH0 MSTORE PUSH1 0x20 PUSH0 KECCAK256 SWAP1 JUMPDEST DUP2 SLOAD DUP2 MSTORE SWAP1 PUSH1 0x1 ADD SWAP1 PUSH1 0x20 ADD DUP1 DUP4 GT PUSH2 0x3BC JUMPI DUP3 SWAP1 SUB PUSH1 0x1F AND DUP3 ADD SWAP2 JUMPDEST POP POP POP POP POP DUP2 JUMP JUMPDEST PUSH2 0x3EA CALLER PUSH2 0x54A JUMP JUMPDEST ISZERO ISZERO PUSH0 SUB PUSH2 0x40B JUMPI PUSH1 0x40 MLOAD PUSH4 0xD4679899 PUSH1 0xE0 SHL DUP2 MSTORE PUSH1 0x4 ADD PUSH1 0x40 MLOAD DUP1 SWAP2 SUB SWAP1 REVERT JUMPDEST PUSH0 PUSH2 0x416 DUP4 DUP4 PUSH2 0xA3C JUMP JUMPDEST SWAP1 POP PUSH2 0x423 DUP5 DUP4 DUP4 PUSH2 0xB62 JUMP JUMPDEST POP POP POP POP JUMP JUMPDEST PUSH1 0x1 SLOAD PUSH1 0x1 PUSH1 0x1 PUSH1 0xA0 SHL SUB DUP3 AND PUSH0 SWAP1 DUP2 MSTORE PUSH1 0x6 PUSH1 0x20 MSTORE PUSH1 0x40 DUP2 KECCAK256 SLOAD SWAP1 SWAP2 SWAP1 PUSH2 0x45D SWAP1 PUSH1 0x1 PUSH1 0x1 PUSH1 0x40 SHL SUB AND TIMESTAMP PUSH1 0x14 SHL PUSH2 0x109E JUMP JUMPDEST PUSH1 0x1 PUSH1 0x1 PUSH1 0x40 SHL SUB AND LT ISZERO SWAP3 SWAP2 POP POP JUMP JUMPDEST PUSH0 PUSH2 0x479 CALLER DUP4 PUSH2 0xBFB JUMP JUMPDEST SWAP1 POP PUSH0 DUP1 JUMPDEST DUP5 DUP2 LT DUP1 ISZERO PUSH2 0x48C JUMPI POP DUP3 DUP3 LT JUMPDEST ISZERO PUSH2 0x4E8 JUMPI PUSH2 0x4CA DUP7 DUP7 DUP4 DUP2 DUP2 LT PUSH2 0x4A6 JUMPI PUSH2 0x4A6 PUSH2 0x10BE JUMP JUMPDEST SWAP1 POP PUSH1 0x20 MUL ADD PUSH1 0x20 DUP2 ADD SWAP1 PUSH2 0x4BB SWAP2 SWAP1 PUSH2 0xF2E JUMP JUMPDEST PUSH2 0x4C5 DUP5 DUP7 PUSH2 0x10D2 JUMP JUMPDEST PUSH2 0xBFB JUMP JUMPDEST PUSH2 0x4D4 SWAP1 DUP4 PUSH2 0x10E5 JUMP JUMPDEST SWAP2 POP DUP1 PUSH2 0x4E0 DUP2 PUSH2 0x10F8 JUMP JUMPDEST SWAP2 POP POP PUSH2 0x47E JUMP JUMPDEST POP DUP1 PUSH0 SUB PUSH2 0x509 JUMPI PUSH1 0x40 MLOAD PUSH4 0xD9B91419 PUSH1 0xE0 SHL DUP2 MSTORE PUSH1 0x4 ADD PUSH1 0x40 MLOAD DUP1 SWAP2 SUB SWAP1 REVERT JUMPDEST DUP2 DUP2 PUSH2 0x513 PUSH2 0x5C7 JUMP JUMPDEST PUSH2 0x51D SWAP2 SWAP1 PUSH2 0x10D2 JUMP JUMPDEST PUSH2 0x527 SWAP2 SWAP1 PUSH2 0x10D2 JUMP JUMPDEST PUSH1 0x1 PUSH1 0x1 PUSH1 0xC0 SHL SUB AND PUSH1 0x3 SSTORE TIMESTAMP PUSH1 0x14 SHL PUSH1 0x1 PUSH1 0x1 PUSH1 0x40 SHL SUB AND PUSH1 0x4 SSTORE POP POP POP POP POP JUMP JUMPDEST PUSH0 PUSH32 0x0 PUSH1 0x1 PUSH1 0x1 PUSH1 0xA0 SHL SUB AND DUP3 PUSH1 0x1 PUSH1 0x1 PUSH1 0xA0 SHL SUB AND EQ PUSH2 0x58B JUMPI POP PUSH0 SWAP2 SWAP1 POP JUMP JUMPDEST POP PUSH1 0x1 SWAP2 SWAP1 POP JUMP JUMPDEST PUSH0 PUSH2 0x59C PUSH2 0x5C7 JUMP JUMPDEST PUSH2 0x5A5 DUP4 PUSH2 0x847 JUMP JUMPDEST PUSH2 0x5B7 SWAP1 PUSH8 0xDE0B6B3A7640000 PUSH2 0x1110 JUMP JUMPDEST PUSH2 0x5C1 SWAP2 SWAP1 PUSH2 0x113B JUMP JUMPDEST SWAP3 SWAP2 POP POP JUMP JUMPDEST PUSH0 PUSH1 0x4 SLOAD PUSH2 0x5D5 TIMESTAMP PUSH1 0x14 SHL SWAP1 JUMP JUMPDEST PUSH1 0x1 PUSH1 0x1 PUSH1 0x40 SHL SUB AND PUSH2 0x5E8 SWAP2 SWAP1 PUSH2 0x10D2 JUMP JUMPDEST PUSH32 0x0 PUSH1 0x1 PUSH1 0x1 PUSH1 0xA0 SHL SUB AND PUSH4 0x18160DDD PUSH1 0x40 MLOAD DUP2 PUSH4 0xFFFFFFFF AND PUSH1 0xE0 SHL DUP2 MSTORE PUSH1 0x4 ADD PUSH1 0x20 PUSH1 0x40 MLOAD DUP1 DUP4 SUB DUP2 DUP7 GAS STATICCALL ISZERO DUP1 ISZERO PUSH2 0x644 JUMPI RETURNDATASIZE PUSH0 DUP1 RETURNDATACOPY RETURNDATASIZE PUSH0 REVERT JUMPDEST POP POP POP POP PUSH1 0x40 MLOAD RETURNDATASIZE PUSH1 0x1F NOT PUSH1 0x1F DUP3 ADD AND DUP3 ADD DUP1 PUSH1 0x40 MSTORE POP DUP2 ADD SWAP1 PUSH2 0x668 SWAP2 SWAP1 PUSH2 0x114E JUMP JUMPDEST PUSH2 0x672 SWAP2 SWAP1 PUSH2 0x1110 JUMP JUMPDEST PUSH1 0x3 SLOAD PUSH2 0x67F SWAP2 SWAP1 PUSH2 0x10E5 JUMP JUMPDEST SWAP1 POP SWAP1 JUMP JUMPDEST PUSH2 0x68F DUP4 DUP4 DUP4 PUSH2 0x6B5 JUMP JUMPDEST ISZERO ISZERO PUSH0 SUB PUSH2 0x6B0 JUMPI PUSH1 0x40 MLOAD PUSH4 0xBCFCDC11 PUSH1 0xE0 SHL DUP2 MSTORE PUSH1 0x4 ADD PUSH1 0x40 MLOAD DUP1 SWAP2 SUB SWAP1 REVERT JUMPDEST POP POP POP JUMP JUMPDEST PUSH0 DUP1 PUSH2 0x6C2 DUP6 DUP6 DUP6 PUSH2 0x988 JUMP JUMPDEST SWAP1 POP PUSH2 0x6CC PUSH2 0x5C7 JUMP JUMPDEST PUSH0 SLOAD PUSH2 0x6DE SWAP2 SWAP1 PUSH4 0xFFFFFFFF AND PUSH2 0x1110 JUMP JUMPDEST PUSH2 0x6EB DUP3 PUSH3 0xF4240 PUSH2 0x1110 JUMP JUMPDEST GT SWAP6 SWAP5 POP POP POP POP POP JUMP JUMPDEST PUSH1 0x40 MLOAD PUSH4 0x56F020D9 PUSH1 0xE1 SHL DUP2 MSTORE CALLER PUSH1 0x4 DUP3 ADD MSTORE PUSH32 0x0 PUSH1 0x1 PUSH1 0x1 PUSH1 0xA0 SHL SUB AND SWAP1 PUSH4 0xADE041B2 SWAP1 PUSH1 0x24 ADD PUSH0 PUSH1 0x40 MLOAD DUP1 DUP4 SUB DUP2 DUP7 DUP1 EXTCODESIZE ISZERO DUP1 ISZERO PUSH2 0x752 JUMPI PUSH0 DUP1 REVERT JUMPDEST POP GAS STATICCALL ISZERO DUP1 ISZERO PUSH2 0x764 JUMPI RETURNDATASIZE PUSH0 DUP1 RETURNDATACOPY RETURNDATASIZE PUSH0 REVERT JUMPDEST POP POP POP POP DUP1 PUSH1 0x7 PUSH0 DUP3 DUP3 SLOAD PUSH2 0x779 SWAP2 SWAP1 PUSH2 0x10E5 JUMP JUMPDEST SWAP1 SWAP2 SSTORE POP POP PUSH1 0x7 SLOAD PUSH1 0x40 MLOAD PUSH1 0x1 PUSH1 0x1 PUSH1 0xA0 SHL SUB DUP5 AND SWAP2 PUSH32 0xAC17467909F103DAACBC1D9DC24C20E2624F5BE6442DB6C14BD5AB4B5B33F5E4 SWAP2 PUSH2 0x7C3 SWAP2 DUP6 DUP3 MSTORE PUSH1 0x20 DUP3 ADD MSTORE PUSH1 0x40 ADD SWAP1 JUMP JUMPDEST PUSH1 0x40 MLOAD DUP1 SWAP2 SUB SWAP1 LOG2 POP POP JUMP JUMPDEST PUSH2 0x7D8 CALLER PUSH2 0x54A JUMP JUMPDEST ISZERO ISZERO PUSH0 SUB PUSH2 0x7F9 JUMPI PUSH1 0x40 MLOAD PUSH4 0xD4679899 PUSH1 0xE0 SHL DUP2 MSTORE PUSH1 0x4 ADD PUSH1 0x40 MLOAD DUP1 SWAP2 SUB SWAP1 REVERT JUMPDEST POP JUMP JUMPDEST PUSH1 0x1 PUSH1 0x1 PUSH1 0xA0 SHL SUB DUP2 AND PUSH0 SWAP1 DUP2 MSTORE PUSH1 0x6 PUSH1 0x20 MSTORE PUSH1 0x40 DUP2 KECCAK256 SLOAD PUSH1 0x14 SWAP1 PUSH2 0x82C SWAP1 PUSH1 0x1 PUSH1 0x1 PUSH1 0x40 SHL SUB AND TIMESTAMP DUP4 SHL PUSH2 0x109E JUMP JUMPDEST PUSH1 0x1 PUSH1 0x1 PUSH1 0x40 SHL SUB AND SWAP1 SHR PUSH1 0x1 PUSH1 0x1 PUSH1 0x40 SHL SUB AND SWAP1 POP SWAP2 SWAP1 POP JUMP JUMPDEST PUSH1 0x1 SLOAD PUSH1 0x1 PUSH1 0x1 PUSH1 0xA0 SHL SUB DUP3 AND PUSH0 SWAP1 DUP2 MSTORE PUSH1 0x6 PUSH1 0x20 MSTORE PUSH1 0x40 DUP2 KECCAK256 SLOAD SWAP1 SWAP2 SWAP1 PUSH2 0x87B SWAP1 PUSH1 0x1 PUSH1 0x1 PUSH1 0x40 SHL SUB AND TIMESTAMP PUSH1 0x14 SHL PUSH2 0x109E JUMP JUMPDEST PUSH1 0x1 PUSH1 0x1 PUSH1 0x40 SHL SUB AND LT ISZERO PUSH2 0x891 JUMPI POP PUSH0 SWAP2 SWAP1 POP JUMP JUMPDEST PUSH1 0x1 PUSH1 0x1 PUSH1 0xA0 SHL SUB DUP3 AND PUSH0 SWAP1 DUP2 MSTORE PUSH1 0x6 PUSH1 0x20 MSTORE PUSH1 0x40 SWAP1 KECCAK256 SLOAD PUSH2 0x8BF SWAP1 PUSH1 0x1 PUSH1 0x1 PUSH1 0x40 SHL SUB AND TIMESTAMP PUSH1 0x14 SHL PUSH2 0x109E JUMP JUMPDEST PUSH1 0x40 MLOAD PUSH4 0x70A08231 PUSH1 0xE0 SHL DUP2 MSTORE PUSH1 0x1 PUSH1 0x1 PUSH1 0xA0 SHL SUB DUP5 DUP2 AND PUSH1 0x4 DUP4 ADD MSTORE PUSH1 0x1 PUSH1 0x1 PUSH1 0x40 SHL SUB SWAP3 SWAP1 SWAP3 AND SWAP2 PUSH32 0x0 AND SWAP1 PUSH4 0x70A08231 SWAP1 PUSH1 0x24 ADD PUSH1 0x20 PUSH1 0x40 MLOAD DUP1 DUP4 SUB DUP2 DUP7 GAS STATICCALL ISZERO DUP1 ISZERO PUSH2 0x930 JUMPI RETURNDATASIZE PUSH0 DUP1 RETURNDATACOPY RETURNDATASIZE PUSH0 REVERT JUMPDEST POP POP POP POP PUSH1 0x40 MLOAD RETURNDATASIZE PUSH1 0x1F NOT PUSH1 0x1F DUP3 ADD AND DUP3 ADD DUP1 PUSH1 0x40 MSTORE POP DUP2 ADD SWAP1 PUSH2 0x954 SWAP2 SWAP1 PUSH2 0x114E JUMP JUMPDEST PUSH2 0x5C1 SWAP2 SWAP1 PUSH2 0x1110 JUMP JUMPDEST PUSH2 0x967 DUP2 PUSH2 0x429 JUMP JUMPDEST ISZERO ISZERO PUSH0 SUB PUSH2 0x7F9 JUMPI PUSH1 0x40 MLOAD PUSH4 0x4EDF34E7 PUSH1 0xE1 SHL DUP2 MSTORE PUSH1 0x4 ADD PUSH1 0x40 MLOAD DUP1 SWAP2 SUB SWAP1 REVERT JUMPDEST PUSH0 PUSH2 0x993 DUP4 DUP4 PUSH2 0xD57 JUMP JUMPDEST PUSH2 0x99B JUMPI PUSH0 DUP1 REVERT JUMPDEST PUSH0 PUSH2 0x9A5 DUP6 PUSH2 0x847 JUMP JUMPDEST SWAP1 POP PUSH0 JUMPDEST DUP4 DUP2 LT ISZERO PUSH2 0xA33 JUMPI PUSH0 DUP6 DUP6 DUP4 DUP2 DUP2 LT PUSH2 0x9C4 JUMPI PUSH2 0x9C4 PUSH2 0x10BE JUMP JUMPDEST SWAP1 POP PUSH1 0x20 MUL ADD PUSH1 0x20 DUP2 ADD SWAP1 PUSH2 0x9D9 SWAP2 SWAP1 PUSH2 0xF2E JUMP JUMPDEST SWAP1 POP DUP7 PUSH1 0x1 PUSH1 0x1 PUSH1 0xA0 SHL SUB AND DUP2 PUSH1 0x1 PUSH1 0x1 PUSH1 0xA0 SHL SUB AND SUB PUSH2 0x9F8 JUMPI PUSH0 DUP1 REVERT JUMPDEST PUSH2 0xA02 DUP8 DUP3 PUSH2 0xE2C JUMP JUMPDEST PUSH2 0xA0A JUMPI PUSH0 DUP1 REVERT JUMPDEST PUSH2 0xA13 DUP2 PUSH2 0x847 JUMP JUMPDEST PUSH2 0xA1D SWAP1 DUP5 PUSH2 0x10E5 JUMP JUMPDEST SWAP3 POP POP DUP1 DUP1 PUSH2 0xA2B SWAP1 PUSH2 0x10F8 JUMP JUMPDEST SWAP2 POP POP PUSH2 0x9A9 JUMP JUMPDEST POP SWAP5 SWAP4 POP POP POP POP JUMP JUMPDEST PUSH0 PUSH1 0x1 PUSH1 0x1 PUSH1 0xA0 SHL SUB DUP4 AND PUSH2 0xA52 JUMPI POP PUSH0 PUSH2 0x5C1 JUMP JUMPDEST PUSH0 PUSH2 0xA5C DUP5 PUSH2 0x847 JUMP JUMPDEST PUSH1 0x40 MLOAD PUSH4 0x70A08231 PUSH1 0xE0 SHL DUP2 MSTORE PUSH1 0x1 PUSH1 0x1 PUSH1 0xA0 SHL SUB DUP7 DUP2 AND PUSH1 0x4 DUP4 ADD MSTORE SWAP2 SWAP3 POP PUSH0 SWAP2 DUP6 SWAP2 PUSH32 0x0 SWAP1 SWAP2 AND SWAP1 PUSH4 0x70A08231 SWAP1 PUSH1 0x24 ADD PUSH1 0x20 PUSH1 0x40 MLOAD DUP1 DUP4 SUB DUP2 DUP7 GAS STATICCALL ISZERO DUP1 ISZERO PUSH2 0xAC9 JUMPI RETURNDATASIZE PUSH0 DUP1 RETURNDATACOPY RETURNDATASIZE PUSH0 REVERT JUMPDEST POP POP POP POP PUSH1 0x40 MLOAD RETURNDATASIZE PUSH1 0x1F NOT PUSH1 0x1F DUP3 ADD AND DUP3 ADD DUP1 PUSH1 0x40 MSTORE POP DUP2 ADD SWAP1 PUSH2 0xAED SWAP2 SWAP1 PUSH2 0x114E JUMP JUMPDEST PUSH2 0xAF7 SWAP2 SWAP1 PUSH2 0x10E5 JUMP JUMPDEST SWAP1 POP PUSH2 0xB03 DUP2 DUP4 PUSH2 0x113B JUMP JUMPDEST PUSH2 0xB19 SWAP1 PUSH1 0x1 PUSH1 0x1 PUSH1 0x40 SHL SUB TIMESTAMP PUSH1 0x14 SHL AND PUSH2 0x10D2 JUMP JUMPDEST PUSH1 0x1 PUSH1 0x1 PUSH1 0xA0 SHL SUB DUP7 AND PUSH0 SWAP1 DUP2 MSTORE PUSH1 0x6 PUSH1 0x20 MSTORE PUSH1 0x40 SWAP1 KECCAK256 DUP1 SLOAD PUSH8 0xFFFFFFFFFFFFFFFF NOT AND PUSH1 0x1 PUSH1 0x1 PUSH1 0x40 SHL SUB SWAP3 SWAP1 SWAP3 AND SWAP2 SWAP1 SWAP2 OR SWAP1 SSTORE PUSH2 0xB59 DUP2 DUP4 PUSH2 0x1165 JUMP JUMPDEST SWAP6 SWAP5 POP POP POP POP POP JUMP JUMPDEST TIMESTAMP PUSH1 0x14 SHL PUSH0 PUSH1 0x1 PUSH1 0x1 PUSH1 0xA0 SHL SUB DUP6 AND ISZERO PUSH2 0xBBB JUMPI PUSH1 0x1 PUSH1 0x1 PUSH1 0xA0 SHL SUB DUP6 AND PUSH0 SWAP1 DUP2 MSTORE PUSH1 0x6 PUSH1 0x20 MSTORE PUSH1 0x40 SWAP1 KECCAK256 SLOAD DUP5 SWAP1 PUSH2 0xBA3 SWAP1 PUSH1 0x1 PUSH1 0x1 PUSH1 0x40 SHL SUB AND DUP5 PUSH2 0x109E JUMP JUMPDEST PUSH1 0x1 PUSH1 0x1 PUSH1 0x40 SHL SUB AND PUSH2 0xBB6 SWAP2 SWAP1 PUSH2 0x1110 JUMP JUMPDEST PUSH2 0xBBD JUMP JUMPDEST PUSH0 JUMPDEST SWAP1 POP DUP3 DUP2 PUSH2 0xBC9 PUSH2 0x5C7 JUMP JUMPDEST PUSH2 0xBD3 SWAP2 SWAP1 PUSH2 0x10D2 JUMP JUMPDEST PUSH2 0xBDD SWAP2 SWAP1 PUSH2 0x10D2 JUMP JUMPDEST PUSH1 0x1 PUSH1 0x1 PUSH1 0xC0 SHL SUB AND PUSH1 0x3 SSTORE POP PUSH1 0x1 PUSH1 0x1 PUSH1 0x40 SHL SUB AND PUSH1 0x4 SSTORE POP POP POP JUMP JUMPDEST PUSH0 DUP1 PUSH2 0xC06 DUP5 PUSH2 0x847 JUMP JUMPDEST SWAP1 POP DUP1 DUP4 LT PUSH2 0xC4D JUMPI PUSH1 0x1 PUSH1 0x1 PUSH1 0xA0 SHL SUB DUP5 AND PUSH0 SWAP1 DUP2 MSTORE PUSH1 0x6 PUSH1 0x20 MSTORE PUSH1 0x40 SWAP1 KECCAK256 DUP1 SLOAD PUSH8 0xFFFFFFFFFFFFFFFF NOT AND TIMESTAMP PUSH1 0x14 SHL PUSH1 0x1 PUSH1 0x1 PUSH1 0x40 SHL SUB AND OR SWAP1 SSTORE SWAP2 POP DUP2 SWAP1 POP PUSH2 0x5C1 JUMP JUMPDEST PUSH1 0x40 MLOAD PUSH4 0x70A08231 PUSH1 0xE0 SHL DUP2 MSTORE PUSH1 0x1 PUSH1 0x1 PUSH1 0xA0 SHL SUB DUP6 DUP2 AND PUSH1 0x4 DUP4 ADD MSTORE PUSH32 0x0 AND SWAP1 PUSH4 0x70A08231 SWAP1 PUSH1 0x24 ADD PUSH1 0x20 PUSH1 0x40 MLOAD DUP1 DUP4 SUB DUP2 DUP7 GAS STATICCALL ISZERO DUP1 ISZERO PUSH2 0xCB1 JUMPI RETURNDATASIZE PUSH0 DUP1 RETURNDATACOPY RETURNDATASIZE PUSH0 REVERT JUMPDEST POP POP POP POP PUSH1 0x40 MLOAD RETURNDATASIZE PUSH1 0x1F NOT PUSH1 0x1F DUP3 ADD AND DUP3 ADD DUP1 PUSH1 0x40 MSTORE POP DUP2 ADD SWAP1 PUSH2 0xCD5 SWAP2 SWAP1 PUSH2 0x114E JUMP JUMPDEST PUSH2 0xCDF DUP5 DUP4 PUSH2 0x10D2 JUMP JUMPDEST PUSH2 0xCE9 SWAP2 SWAP1 PUSH2 0x113B JUMP JUMPDEST PUSH2 0xCFF SWAP1 PUSH1 0x1 PUSH1 0x1 PUSH1 0x40 SHL SUB TIMESTAMP PUSH1 0x14 SHL AND PUSH2 0x10D2 JUMP JUMPDEST PUSH1 0x1 PUSH1 0x1 PUSH1 0xA0 SHL SUB DUP6 AND PUSH0 SWAP1 DUP2 MSTORE PUSH1 0x6 PUSH1 0x20 MSTORE PUSH1 0x40 SWAP1 KECCAK256 DUP1 SLOAD PUSH8 0xFFFFFFFFFFFFFFFF NOT AND PUSH1 0x1 PUSH1 0x1 PUSH1 0x40 SHL SUB SWAP3 SWAP1 SWAP3 AND SWAP2 SWAP1 SWAP2 OR SWAP1 SSTORE PUSH2 0xD3E DUP5 PUSH2 0x847 JUMP JUMPDEST PUSH2 0xD48 SWAP1 DUP3 PUSH2 0x10D2 JUMP JUMPDEST SWAP2 POP POP PUSH2 0x5C1 JUMP JUMPDEST POP SWAP3 SWAP2 POP POP JUMP JUMPDEST PUSH0 PUSH1 0x1 DUP3 GT PUSH2 0xD68 JUMPI POP PUSH1 0x1 PUSH2 0x5C1 JUMP JUMPDEST PUSH0 DUP4 DUP4 PUSH0 DUP2 DUP2 LT PUSH2 0xD7B JUMPI PUSH2 0xD7B PUSH2 0x10BE JUMP JUMPDEST SWAP1 POP PUSH1 0x20 MUL ADD PUSH1 0x20 DUP2 ADD SWAP1 PUSH2 0xD90 SWAP2 SWAP1 PUSH2 0xF2E JUMP JUMPDEST SWAP1 POP PUSH1 0x1 JUMPDEST DUP4 DUP2 LT ISZERO PUSH2 0xE21 JUMPI DUP2 PUSH1 0x1 PUSH1 0x1 PUSH1 0xA0 SHL SUB AND DUP6 DUP6 DUP4 DUP2 DUP2 LT PUSH2 0xDB9 JUMPI PUSH2 0xDB9 PUSH2 0x10BE JUMP JUMPDEST SWAP1 POP PUSH1 0x20 MUL ADD PUSH1 0x20 DUP2 ADD SWAP1 PUSH2 0xDCE SWAP2 SWAP1 PUSH2 0xF2E JUMP JUMPDEST PUSH1 0x1 PUSH1 0x1 PUSH1 0xA0 SHL SUB AND GT PUSH2 0xDE6 JUMPI PUSH0 SWAP3 POP POP POP PUSH2 0x5C1 JUMP JUMPDEST DUP5 DUP5 DUP3 DUP2 DUP2 LT PUSH2 0xDF8 JUMPI PUSH2 0xDF8 PUSH2 0x10BE JUMP JUMPDEST SWAP1 POP PUSH1 0x20 MUL ADD PUSH1 0x20 DUP2 ADD SWAP1 PUSH2 0xE0D SWAP2 SWAP1 PUSH2 0xF2E JUMP JUMPDEST SWAP2 POP DUP1 PUSH2 0xE19 DUP2 PUSH2 0x10F8 JUMP JUMPDEST SWAP2 POP POP PUSH2 0xD95 JUMP JUMPDEST POP PUSH1 0x1 SWAP2 POP POP PUSH2 0x5C1 JUMP JUMPDEST PUSH0 DUP3 PUSH1 0x1 PUSH1 0x1 PUSH1 0xA0 SHL SUB AND DUP3 PUSH1 0x1 PUSH1 0x1 PUSH1 0xA0 SHL SUB AND SUB PUSH2 0xE4E JUMPI POP PUSH1 0x1 PUSH2 0x5C1 JUMP JUMPDEST PUSH1 0x1 PUSH1 0x1 PUSH1 0xA0 SHL SUB DUP3 AND PUSH2 0xE63 JUMPI POP PUSH0 PUSH2 0x5C1 JUMP JUMPDEST PUSH1 0x1 PUSH1 0x1 PUSH1 0xA0 SHL SUB DUP1 DUP4 AND PUSH0 SWAP1 DUP2 MSTORE PUSH1 0x5 PUSH1 0x20 MSTORE PUSH1 0x40 SWAP1 KECCAK256 SLOAD PUSH2 0xE88 SWAP2 DUP6 SWAP2 AND PUSH2 0xE2C JUMP JUMPDEST SWAP1 POP PUSH2 0x5C1 JUMP JUMPDEST PUSH0 PUSH1 0x20 DUP1 DUP4 MSTORE DUP4 MLOAD DUP1 DUP3 DUP6 ADD MSTORE PUSH0 JUMPDEST DUP2 DUP2 LT ISZERO PUSH2 0xEBA JUMPI DUP6 DUP2 ADD DUP4 ADD MLOAD DUP6 DUP3 ADD PUSH1 0x40 ADD MSTORE DUP3 ADD PUSH2 0xE9E JUMP JUMPDEST POP PUSH0 PUSH1 0x40 DUP3 DUP7 ADD ADD MSTORE PUSH1 0x40 PUSH1 0x1F NOT PUSH1 0x1F DUP4 ADD AND DUP6 ADD ADD SWAP3 POP POP POP SWAP3 SWAP2 POP POP JUMP JUMPDEST DUP1 CALLDATALOAD PUSH1 0x1 PUSH1 0x1 PUSH1 0xA0 SHL SUB DUP2 AND DUP2 EQ PUSH2 0xEF0 JUMPI PUSH0 DUP1 REVERT JUMPDEST SWAP2 SWAP1 POP JUMP JUMPDEST PUSH0 DUP1 PUSH0 PUSH1 0x60 DUP5 DUP7 SUB SLT ISZERO PUSH2 0xF07 JUMPI PUSH0 DUP1 REVERT JUMPDEST PUSH2 0xF10 DUP5 PUSH2 0xEDA JUMP JUMPDEST SWAP3 POP PUSH2 0xF1E PUSH1 0x20 DUP6 ADD PUSH2 0xEDA JUMP JUMPDEST SWAP2 POP PUSH1 0x40 DUP5 ADD CALLDATALOAD SWAP1 POP SWAP3 POP SWAP3 POP SWAP3 JUMP JUMPDEST PUSH0 PUSH1 0x20 DUP3 DUP5 SUB SLT ISZERO PUSH2 0xF3E JUMPI PUSH0 DUP1 REVERT JUMPDEST PUSH2 0xF47 DUP3 PUSH2 0xEDA JUMP JUMPDEST SWAP4 SWAP3 POP POP POP JUMP JUMPDEST PUSH0 DUP1 DUP4 PUSH1 0x1F DUP5 ADD SLT PUSH2 0xF5E JUMPI PUSH0 DUP1 REVERT JUMPDEST POP DUP2 CALLDATALOAD PUSH1 0x1 PUSH1 0x1 PUSH1 0x40 SHL SUB DUP2 GT ISZERO PUSH2 0xF74 JUMPI PUSH0 DUP1 REVERT JUMPDEST PUSH1 0x20 DUP4 ADD SWAP2 POP DUP4 PUSH1 0x20 DUP3 PUSH1 0x5 SHL DUP6 ADD ADD GT ISZERO PUSH2 0xF8E JUMPI PUSH0 DUP1 REVERT JUMPDEST SWAP3 POP SWAP3 SWAP1 POP JUMP JUMPDEST PUSH0 DUP1 PUSH0 PUSH1 0x40 DUP5 DUP7 SUB SLT ISZERO PUSH2 0xFA7 JUMPI PUSH0 DUP1 REVERT JUMPDEST DUP4 CALLDATALOAD PUSH1 0x1 PUSH1 0x1 PUSH1 0x40 SHL SUB DUP2 GT ISZERO PUSH2 0xFBC JUMPI PUSH0 DUP1 REVERT JUMPDEST PUSH2 0xFC8 DUP7 DUP3 DUP8 ADD PUSH2 0xF4E JUMP JUMPDEST SWAP1 SWAP8 SWAP1 SWAP7 POP PUSH1 0x20 SWAP6 SWAP1 SWAP6 ADD CALLDATALOAD SWAP5 SWAP4 POP POP POP POP JUMP JUMPDEST PUSH0 DUP1 PUSH0 PUSH1 0x40 DUP5 DUP7 SUB SLT ISZERO PUSH2 0xFEE JUMPI PUSH0 DUP1 REVERT JUMPDEST PUSH2 0xFF7 DUP5 PUSH2 0xEDA JUMP JUMPDEST SWAP3 POP PUSH1 0x20 DUP5 ADD CALLDATALOAD PUSH1 0x1 PUSH1 0x1 PUSH1 0x40 SHL SUB DUP2 GT ISZERO PUSH2 0x1011 JUMPI PUSH0 DUP1 REVERT JUMPDEST PUSH2 0x101D DUP7 DUP3 DUP8 ADD PUSH2 0xF4E JUMP JUMPDEST SWAP5 SWAP8 SWAP1 SWAP7 POP SWAP4 SWAP5 POP POP POP POP JUMP JUMPDEST PUSH0 DUP1 PUSH1 0x40 DUP4 DUP6 SUB SLT ISZERO PUSH2 0x103B JUMPI PUSH0 DUP1 REVERT JUMPDEST PUSH2 0x1044 DUP4 PUSH2 0xEDA JUMP JUMPDEST SWAP5 PUSH1 0x20 SWAP4 SWAP1 SWAP4 ADD CALLDATALOAD SWAP4 POP POP POP JUMP JUMPDEST PUSH1 0x1 DUP2 DUP2 SHR SWAP1 DUP3 AND DUP1 PUSH2 0x1066 JUMPI PUSH1 0x7F DUP3 AND SWAP2 POP JUMPDEST PUSH1 0x20 DUP3 LT DUP2 SUB PUSH2 0x1084 JUMPI PUSH4 0x4E487B71 PUSH1 0xE0 SHL PUSH0 MSTORE PUSH1 0x22 PUSH1 0x4 MSTORE PUSH1 0x24 PUSH0 REVERT JUMPDEST POP SWAP2 SWAP1 POP JUMP JUMPDEST PUSH4 0x4E487B71 PUSH1 0xE0 SHL PUSH0 MSTORE PUSH1 0x11 PUSH1 0x4 MSTORE PUSH1 0x24 PUSH0 REVERT JUMPDEST PUSH1 0x1 PUSH1 0x1 PUSH1 0x40 SHL SUB DUP3 DUP2 AND DUP3 DUP3 AND SUB SWAP1 DUP1 DUP3 GT ISZERO PUSH2 0xD50 JUMPI PUSH2 0xD50 PUSH2 0x108A JUMP JUMPDEST PUSH4 0x4E487B71 PUSH1 0xE0 SHL PUSH0 MSTORE PUSH1 0x32 PUSH1 0x4 MSTORE PUSH1 0x24 PUSH0 REVERT JUMPDEST DUP2 DUP2 SUB DUP2 DUP2 GT ISZERO PUSH2 0x5C1 JUMPI PUSH2 0x5C1 PUSH2 0x108A JUMP JUMPDEST DUP1 DUP3 ADD DUP1 DUP3 GT ISZERO PUSH2 0x5C1 JUMPI PUSH2 0x5C1 PUSH2 0x108A JUMP JUMPDEST PUSH0 PUSH1 0x1 DUP3 ADD PUSH2 0x1109 JUMPI PUSH2 0x1109 PUSH2 0x108A JUMP JUMPDEST POP PUSH1 0x1 ADD SWAP1 JUMP JUMPDEST DUP1 DUP3 MUL DUP2 ISZERO DUP3 DUP3 DIV DUP5 EQ OR PUSH2 0x5C1 JUMPI PUSH2 0x5C1 PUSH2 0x108A JUMP JUMPDEST PUSH4 0x4E487B71 PUSH1 0xE0 SHL PUSH0 MSTORE PUSH1 0x12 PUSH1 0x4 MSTORE PUSH1 0x24 PUSH0 REVERT JUMPDEST PUSH0 DUP3 PUSH2 0x1149 JUMPI PUSH2 0x1149 PUSH2 0x1127 JUMP JUMPDEST POP DIV SWAP1 JUMP JUMPDEST PUSH0 PUSH1 0x20 DUP3 DUP5 SUB SLT ISZERO PUSH2 0x115E JUMPI PUSH0 DUP1 REVERT JUMPDEST POP MLOAD SWAP2 SWAP1 POP JUMP JUMPDEST PUSH0 DUP3 PUSH2 0x1173 JUMPI PUSH2 0x1173 PUSH2 0x1127 JUMP JUMPDEST POP MOD SWAP1 JUMP INVALID LOG2 PUSH5 0x6970667358 0x22 SLT KECCAK256 SMOD DUP4 0xEC PUSH11 0xC3F548543AE4383DEFEB32 0xD 0xDC SWAP2 DUP9 0xB1 ADD 0xCE SELFBALANCE BLOCKHASH EXTCODEHASH 0xC3 DUP7 BLOCKHASH ADDMOD SGT ADDRESS PUSH23 0x64736F6C6343000814003360A060405234801561000F57 PUSH0 DUP1 REVERT JUMPDEST POP PUSH1 0x40 MLOAD PUSH2 0x2CB CODESIZE SUB DUP1 PUSH2 0x2CB DUP4 CODECOPY DUP2 ADD PUSH1 0x40 DUP2 SWAP1 MSTORE PUSH2 0x2E SWAP2 PUSH2 0x3F JUMP JUMPDEST PUSH1 0x1 PUSH1 0x1 PUSH1 0xA0 SHL SUB AND PUSH1 0x80 MSTORE PUSH2 0x6C JUMP JUMPDEST PUSH0 PUSH1 0x20 DUP3 DUP5 SUB SLT ISZERO PUSH2 0x4F JUMPI PUSH0 DUP1 REVERT JUMPDEST DUP2 MLOAD PUSH1 0x1 PUSH1 0x1 PUSH1 0xA0 SHL SUB DUP2 AND DUP2 EQ PUSH2 0x65 JUMPI PUSH0 DUP1 REVERT JUMPDEST SWAP4 SWAP3 POP POP POP JUMP JUMPDEST PUSH1 0x80 MLOAD PUSH2 0x242 PUSH2 0x89 PUSH0 CODECOPY PUSH0 DUP2 DUP2 PUSH1 0x5E ADD MSTORE PUSH1 0xEF ADD MSTORE PUSH2 0x242 PUSH0 RETURN INVALID PUSH1 0x80 PUSH1 0x40 MSTORE CALLVALUE DUP1 ISZERO PUSH2 0xF JUMPI PUSH0 DUP1 REVERT JUMPDEST POP PUSH1 0x4 CALLDATASIZE LT PUSH2 0x55 JUMPI PUSH0 CALLDATALOAD PUSH1 0xE0 SHR DUP1 PUSH4 0x11DF9995 EQ PUSH2 0x59 JUMPI DUP1 PUSH4 0xAD46CF91 EQ PUSH2 0x9D JUMPI DUP1 PUSH4 0xBD245A43 EQ PUSH2 0xB2 JUMPI DUP1 PUSH4 0xF6153CCD EQ PUSH2 0xC9 JUMPI DUP1 PUSH4 0xF734DE51 EQ PUSH2 0xD1 JUMPI JUMPDEST PUSH0 DUP1 REVERT JUMPDEST PUSH2 0x80 PUSH32 0x0 DUP2 JUMP JUMPDEST PUSH1 0x40 MLOAD PUSH1 0x1 PUSH1 0x1 PUSH1 0xA0 SHL SUB SWAP1 SWAP2 AND DUP2 MSTORE PUSH1 0x20 ADD JUMPDEST PUSH1 0x40 MLOAD DUP1 SWAP2 SUB SWAP1 RETURN JUMPDEST PUSH2 0xB0 PUSH2 0xAB CALLDATASIZE PUSH1 0x4 PUSH2 0x1B2 JUMP JUMPDEST PUSH2 0xDA JUMP JUMPDEST STOP JUMPDEST PUSH2 0xBB PUSH1 0x1 SLOAD DUP2 JUMP JUMPDEST PUSH1 0x40 MLOAD SWAP1 DUP2 MSTORE PUSH1 0x20 ADD PUSH2 0x94 JUMP JUMPDEST PUSH2 0xBB PUSH0 SLOAD DUP2 JUMP JUMPDEST PUSH2 0xBB PUSH1 0x2 SLOAD DUP2 JUMP JUMPDEST PUSH1 0x40 MLOAD PUSH4 0x56F020D9 PUSH1 0xE1 SHL DUP2 MSTORE CALLER PUSH1 0x4 DUP3 ADD MSTORE PUSH32 0x0 PUSH1 0x1 PUSH1 0x1 PUSH1 0xA0 SHL SUB AND SWAP1 PUSH4 0xADE041B2 SWAP1 PUSH1 0x24 ADD PUSH0 PUSH1 0x40 MLOAD DUP1 DUP4 SUB DUP2 DUP7 DUP1 EXTCODESIZE ISZERO DUP1 ISZERO PUSH2 0x137 JUMPI PUSH0 DUP1 REVERT JUMPDEST POP GAS STATICCALL ISZERO DUP1 ISZERO PUSH2 0x149 JUMPI RETURNDATASIZE PUSH0 DUP1 RETURNDATACOPY RETURNDATASIZE PUSH0 REVERT JUMPDEST POP POP POP POP DUP1 PUSH0 DUP1 DUP3 DUP3 SLOAD PUSH2 0x15D SWAP2 SWAP1 PUSH2 0x1E7 JUMP JUMPDEST SWAP1 SWAP2 SSTORE POP POP PUSH0 SLOAD PUSH1 0x40 MLOAD PUSH1 0x1 PUSH1 0x1 PUSH1 0xA0 SHL SUB DUP5 AND SWAP2 PUSH32 0xAC17467909F103DAACBC1D9DC24C20E2624F5BE6442DB6C14BD5AB4B5B33F5E4 SWAP2 PUSH2 0x1A6 SWAP2 DUP6 DUP3 MSTORE PUSH1 0x20 DUP3 ADD MSTORE PUSH1 0x40 ADD SWAP1 JUMP JUMPDEST PUSH1 0x40 MLOAD DUP1 SWAP2 SUB SWAP1 LOG2 POP POP JUMP JUMPDEST PUSH0 DUP1 PUSH1 0x40 DUP4 DUP6 SUB SLT ISZERO PUSH2 0x1C3 JUMPI PUSH0 DUP1 REVERT JUMPDEST DUP3 CALLDATALOAD PUSH1 0x1 PUSH1 0x1 PUSH1 0xA0 SHL SUB DUP2 AND DUP2 EQ PUSH2 0x1D9 JUMPI PUSH0 DUP1 REVERT JUMPDEST SWAP5 PUSH1 0x20 SWAP4 SWAP1 SWAP4 ADD CALLDATALOAD SWAP4 POP POP POP JUMP JUMPDEST DUP1 DUP3 ADD DUP1 DUP3 GT ISZERO PUSH2 0x206 JUMPI PUSH4 0x4E487B71 PUSH1 0xE0 SHL PUSH0 MSTORE PUSH1 0x11 PUSH1 0x4 MSTORE PUSH1 0x24 PUSH0 REVERT JUMPDEST SWAP3 SWAP2 POP POP JUMP INVALID LOG2 PUSH5 0x6970667358 0x22 SLT KECCAK256 PUSH4 0xC5ADCA85 0xBC 0xE8 JUMP ADDRESS SHR 0xE8 SWAP2 0xB8 0xC7 BALANCE PUSH3 0x19DB49 PUSH10 0x44F8528088C29464B924 SELFBALANCE 0xDB PUSH5 0x736F6C6343 STOP ADDMOD EQ STOP CALLER "
		},
		"gasEstimates": {
			"creation": {
				"codeDepositCost": "1416600",
				"executionCost": "infinite",
				"totalCost": "infinite"
			},
			"external": {
				"ACTIVATION_DURATION()": "305",
				"ACTIVATION_MULTIPLIER()": "327",
				"CAN_ACTIVATE_DELAY()": "349",
				"_setMinter(address,string)": "infinite",
				"_setMover(address,string)": "infinite",
				"activateFundDistribution()": "60987",
				"allowance(address,address)": "infinite",
				"approve(address,uint256)": "24792",
				"balanceOf(address)": "2648",
				"checkMinter(address)": "9347",
				"checkMinterMover(address)": "infinite",
				"checkMover(address)": "9261",
				"checkOnlyCoin(address)": "453",
				"decimals()": "244",
				"declareLoss(address,uint256)": "infinite",
				"declareProfit(address,uint256)": "infinite",
				"fundDistribution()": "2428",
				"fundMinSize()": "2384",
				"funds()": "infinite",
				"isMinter(address)": "2606",
				"isMover(address)": "2562",
				"mint(address,uint256)": "infinite",
				"minterActivation(address)": "2628",
				"minterExpiration(address)": "2605",
				"moverActivation(address)": "2626",
				"moverExpiration(address)": "2672",
				"name()": "infinite",
				"nextFundCanActivate()": "2362",
				"nextFundDistribution()": "2382",
				"nextFundMinSize()": "2384",
				"proposeFundDistribution(uint256,uint256,address[])": "infinite",
				"proposeMinter(address,bool,string,address[])": "infinite",
				"savings()": "infinite",
				"symbol()": "infinite",
				"totalLoss()": "2407",
				"totalProfit()": "2340",
				"totalSupply()": "2359",
				"transfer(address,uint256)": "infinite",
				"transferFrom(address,address,uint256)": "infinite",
				"verifyMinter(address)": "9327",
				"verifyMinterMover(address)": "infinite",
				"verifyMover(address)": "9370",
				"verifyOnlyCoin(address)": "556",
				"votes()": "infinite"
			},
			"internal": {
				"_update(address,address,uint256)": "infinite"
			}
		},
		"methodIdentifiers": {
			"ACTIVATION_DURATION()": "d1e5e46f",
			"ACTIVATION_MULTIPLIER()": "79a93b69",
			"CAN_ACTIVATE_DELAY()": "ba035212",
			"_setMinter(address,string)": "33246cc8",
			"_setMover(address,string)": "7eb7047a",
			"activateFundDistribution()": "219502f1",
			"allowance(address,address)": "dd62ed3e",
			"approve(address,uint256)": "095ea7b3",
			"balanceOf(address)": "70a08231",
			"checkMinter(address)": "b789bb1a",
			"checkMinterMover(address)": "e8893a64",
			"checkMover(address)": "0310b56b",
			"checkOnlyCoin(address)": "2fcc98d0",
			"decimals()": "313ce567",
			"declareLoss(address,uint256)": "fc4ee32f",
			"declareProfit(address,uint256)": "9c6ba002",
			"fundDistribution()": "96e68d6d",
			"fundMinSize()": "183000b3",
			"funds()": "c89f2ce4",
			"isMinter(address)": "aa271e1a",
			"isMover(address)": "452ec4fe",
			"mint(address,uint256)": "40c10f19",
			"minterActivation(address)": "3d0dc969",
			"minterExpiration(address)": "d018e423",
			"moverActivation(address)": "f4703eb9",
			"moverExpiration(address)": "25d069bc",
			"name()": "06fdde03",
			"nextFundCanActivate()": "86f90145",
			"nextFundDistribution()": "ec3e1e2c",
			"nextFundMinSize()": "8b7a5513",
			"proposeFundDistribution(uint256,uint256,address[])": "f4a3dd4e",
			"proposeMinter(address,bool,string,address[])": "47ff7f53",
			"savings()": "c86d6ae4",
			"symbol()": "95d89b41",
			"totalLoss()": "0d457ee1",
			"totalProfit()": "86001519",
			"totalSupply()": "18160ddd",
			"transfer(address,uint256)": "a9059cbb",
			"transferFrom(address,address,uint256)": "23b872dd",
			"verifyMinter(address)": "16238949",
			"verifyMinterMover(address)": "14e9b812",
			"verifyMover(address)": "5ad6410a",
			"verifyOnlyCoin(address)": "ade041b2",
			"votes()": "e168c3ec"
		}
	},
	"abi": [
		{
			"inputs": [],
			"stateMutability": "nonpayable",
			"type": "constructor"
		},
		{
			"inputs": [
				{
					"internalType": "address",
					"name": "spender",
					"type": "address"
				},
				{
					"internalType": "uint256",
					"name": "allowance",
					"type": "uint256"
				},
				{
					"internalType": "uint256",
					"name": "needed",
					"type": "uint256"
				}
			],
			"name": "ERC20InsufficientAllowance",
			"type": "error"
		},
		{
			"inputs": [
				{
					"internalType": "address",
					"name": "sender",
					"type": "address"
				},
				{
					"internalType": "uint256",
					"name": "balance",
					"type": "uint256"
				},
				{
					"internalType": "uint256",
					"name": "needed",
					"type": "uint256"
				}
			],
			"name": "ERC20InsufficientBalance",
			"type": "error"
		},
		{
			"inputs": [
				{
					"internalType": "address",
					"name": "approver",
					"type": "address"
				}
			],
			"name": "ERC20InvalidApprover",
			"type": "error"
		},
		{
			"inputs": [
				{
					"internalType": "address",
					"name": "receiver",
					"type": "address"
				}
			],
			"name": "ERC20InvalidReceiver",
			"type": "error"
		},
		{
			"inputs": [
				{
					"internalType": "address",
					"name": "sender",
					"type": "address"
				}
			],
			"name": "ERC20InvalidSender",
			"type": "error"
		},
		{
			"inputs": [
				{
					"internalType": "address",
					"name": "spender",
					"type": "address"
				}
			],
			"name": "ERC20InvalidSpender",
			"type": "error"
		},
		{
			"inputs": [
				{
					"internalType": "address",
					"name": "caller",
					"type": "address"
				}
			],
			"name": "MinterExpired",
			"type": "error"
		},
		{
			"inputs": [
				{
					"internalType": "address",
					"name": "caller",
					"type": "address"
				}
			],
			"name": "MoverExpired",
			"type": "error"
		},
		{
			"inputs": [],
			"name": "NoChange",
			"type": "error"
		},
		{
			"inputs": [],
			"name": "NotActive",
			"type": "error"
		},
		{
			"inputs": [],
			"name": "NotAvailable",
			"type": "error"
		},
		{
			"inputs": [],
			"name": "NotCoin",
			"type": "error"
		},
		{
			"inputs": [
				{
					"internalType": "address",
					"name": "account",
					"type": "address"
				}
			],
			"name": "NotMinter",
			"type": "error"
		},
		{
			"inputs": [
				{
					"internalType": "address",
					"name": "account",
					"type": "address"
				}
			],
			"name": "NotMover",
			"type": "error"
		},
		{
			"inputs": [],
			"name": "NotPassedDuration",
			"type": "error"
		},
		{
			"inputs": [],
			"name": "NotQualified",
			"type": "error"
		},
		{
			"inputs": [],
			"name": "NotServed",
			"type": "error"
		},
		{
			"anonymous": false,
			"inputs": [
				{
					"indexed": true,
					"internalType": "address",
					"name": "sender",
					"type": "address"
				},
				{
					"indexed": false,
					"internalType": "uint256",
					"name": "distribution",
					"type": "uint256"
				},
				{
					"indexed": false,
					"internalType": "uint256",
					"name": "minSize",
					"type": "uint256"
				}
			],
			"name": "ActivateFund",
			"type": "event"
		},
		{
			"anonymous": false,
			"inputs": [
				{
					"indexed": true,
					"internalType": "address",
					"name": "owner",
					"type": "address"
				},
				{
					"indexed": true,
					"internalType": "address",
					"name": "spender",
					"type": "address"
				},
				{
					"indexed": false,
					"internalType": "uint256",
					"name": "value",
					"type": "uint256"
				}
			],
			"name": "Approval",
			"type": "event"
		},
		{
			"anonymous": false,
			"inputs": [
				{
					"indexed": true,
					"internalType": "address",
					"name": "sender",
					"type": "address"
				},
				{
					"indexed": false,
					"internalType": "uint256",
					"name": "value",
					"type": "uint256"
				},
				{
					"indexed": false,
					"internalType": "uint256",
					"name": "total",
					"type": "uint256"
				}
			],
			"name": "DeclareLoss",
			"type": "event"
		},
		{
			"anonymous": false,
			"inputs": [
				{
					"indexed": true,
					"internalType": "address",
					"name": "sender",
					"type": "address"
				},
				{
					"indexed": false,
					"internalType": "uint256",
					"name": "value",
					"type": "uint256"
				},
				{
					"indexed": false,
					"internalType": "uint256",
					"name": "total",
					"type": "uint256"
				}
			],
			"name": "DeclareProfit",
			"type": "event"
		},
		{
			"anonymous": false,
			"inputs": [
				{
					"indexed": true,
					"internalType": "address",
					"name": "proposer",
					"type": "address"
				},
				{
					"indexed": false,
					"internalType": "uint256",
					"name": "distribution",
					"type": "uint256"
				},
				{
					"indexed": false,
					"internalType": "uint256",
					"name": "minSize",
					"type": "uint256"
				},
				{
					"indexed": false,
					"internalType": "uint256",
					"name": "canActivate",
					"type": "uint256"
				}
			],
			"name": "ProposeFund",
			"type": "event"
		},
		{
			"anonymous": false,
			"inputs": [
				{
					"indexed": true,
					"internalType": "address",
					"name": "proposer",
					"type": "address"
				},
				{
					"indexed": true,
					"internalType": "address",
					"name": "minter",
					"type": "address"
				},
				{
					"indexed": false,
					"internalType": "string",
					"name": "message",
					"type": "string"
				},
				{
					"indexed": false,
					"internalType": "bool",
					"name": "isMinter",
					"type": "bool"
				},
				{
					"indexed": false,
					"internalType": "uint256",
					"name": "activation",
					"type": "uint256"
				},
				{
					"indexed": false,
					"internalType": "uint256",
					"name": "expiration",
					"type": "uint256"
				}
			],
			"name": "ProposeMinter",
			"type": "event"
		},
		{
			"anonymous": false,
			"inputs": [
				{
					"indexed": true,
					"internalType": "address",
					"name": "proposer",
					"type": "address"
				},
				{
					"indexed": true,
					"internalType": "address",
					"name": "mover",
					"type": "address"
				},
				{
					"indexed": false,
					"internalType": "string",
					"name": "message",
					"type": "string"
				},
				{
					"indexed": false,
					"internalType": "bool",
					"name": "isMover",
					"type": "bool"
				},
				{
					"indexed": false,
					"internalType": "uint256",
					"name": "activation",
					"type": "uint256"
				},
				{
					"indexed": false,
					"internalType": "uint256",
					"name": "expiration",
					"type": "uint256"
				}
			],
			"name": "ProposeMover",
			"type": "event"
		},
		{
			"anonymous": false,
			"inputs": [
				{
					"indexed": true,
					"internalType": "address",
					"name": "from",
					"type": "address"
				},
				{
					"indexed": true,
					"internalType": "address",
					"name": "to",
					"type": "address"
				},
				{
					"indexed": false,
					"internalType": "uint256",
					"name": "value",
					"type": "uint256"
				}
			],
			"name": "Transfer",
			"type": "event"
		},
		{
			"inputs": [],
			"name": "ACTIVATION_DURATION",
			"outputs": [
				{
					"internalType": "uint256",
					"name": "",
					"type": "uint256"
				}
			],
			"stateMutability": "view",
			"type": "function"
		},
		{
			"inputs": [],
			"name": "ACTIVATION_MULTIPLIER",
			"outputs": [
				{
					"internalType": "uint256",
					"name": "",
					"type": "uint256"
				}
			],
			"stateMutability": "view",
			"type": "function"
		},
		{
			"inputs": [],
			"name": "CAN_ACTIVATE_DELAY",
			"outputs": [
				{
					"internalType": "uint256",
					"name": "",
					"type": "uint256"
				}
			],
			"stateMutability": "view",
			"type": "function"
		},
		{
			"inputs": [
				{
					"internalType": "address",
					"name": "to",
					"type": "address"
				},
				{
					"internalType": "string",
					"name": "message",
					"type": "string"
				}
			],
			"name": "_setMinter",
			"outputs": [],
			"stateMutability": "nonpayable",
			"type": "function"
		},
		{
			"inputs": [
				{
					"internalType": "address",
					"name": "to",
					"type": "address"
				},
				{
					"internalType": "string",
					"name": "message",
					"type": "string"
				}
			],
			"name": "_setMover",
			"outputs": [],
			"stateMutability": "nonpayable",
			"type": "function"
		},
		{
			"inputs": [],
			"name": "activateFundDistribution",
			"outputs": [],
			"stateMutability": "nonpayable",
			"type": "function"
		},
		{
			"inputs": [
				{
					"internalType": "address",
					"name": "owner",
					"type": "address"
				},
				{
					"internalType": "address",
					"name": "spender",
					"type": "address"
				}
			],
			"name": "allowance",
			"outputs": [
				{
					"internalType": "uint256",
					"name": "",
					"type": "uint256"
				}
			],
			"stateMutability": "view",
			"type": "function"
		},
		{
			"inputs": [
				{
					"internalType": "address",
					"name": "spender",
					"type": "address"
				},
				{
					"internalType": "uint256",
					"name": "value",
					"type": "uint256"
				}
			],
			"name": "approve",
			"outputs": [
				{
					"internalType": "bool",
					"name": "",
					"type": "bool"
				}
			],
			"stateMutability": "nonpayable",
			"type": "function"
		},
		{
			"inputs": [
				{
					"internalType": "address",
					"name": "account",
					"type": "address"
				}
			],
			"name": "balanceOf",
			"outputs": [
				{
					"internalType": "uint256",
					"name": "",
					"type": "uint256"
				}
			],
			"stateMutability": "view",
			"type": "function"
		},
		{
			"inputs": [
				{
					"internalType": "address",
					"name": "toCheck",
					"type": "address"
				}
			],
			"name": "checkMinter",
			"outputs": [
				{
					"internalType": "bool",
					"name": "",
					"type": "bool"
				}
			],
			"stateMutability": "view",
			"type": "function"
		},
		{
			"inputs": [
				{
					"internalType": "address",
					"name": "toCheck",
					"type": "address"
				}
			],
			"name": "checkMinterMover",
			"outputs": [
				{
					"internalType": "bool",
					"name": "",
					"type": "bool"
				}
			],
			"stateMutability": "view",
			"type": "function"
		},
		{
			"inputs": [
				{
					"internalType": "address",
					"name": "toCheck",
					"type": "address"
				}
			],
			"name": "checkMover",
			"outputs": [
				{
					"internalType": "bool",
					"name": "",
					"type": "bool"
				}
			],
			"stateMutability": "view",
			"type": "function"
		},
		{
			"inputs": [
				{
					"internalType": "address",
					"name": "toCheck",
					"type": "address"
				}
			],
			"name": "checkOnlyCoin",
			"outputs": [
				{
					"internalType": "bool",
					"name": "",
					"type": "bool"
				}
			],
			"stateMutability": "view",
			"type": "function"
		},
		{
			"inputs": [],
			"name": "decimals",
			"outputs": [
				{
					"internalType": "uint8",
					"name": "",
					"type": "uint8"
				}
			],
			"stateMutability": "view",
			"type": "function"
		},
		{
			"inputs": [
				{
					"internalType": "address",
					"name": "to",
					"type": "address"
				},
				{
					"internalType": "uint256",
					"name": "value",
					"type": "uint256"
				}
			],
			"name": "declareLoss",
			"outputs": [],
			"stateMutability": "nonpayable",
			"type": "function"
		},
		{
			"inputs": [
				{
					"internalType": "address",
					"name": "from",
					"type": "address"
				},
				{
					"internalType": "uint256",
					"name": "value",
					"type": "uint256"
				}
			],
			"name": "declareProfit",
			"outputs": [],
			"stateMutability": "nonpayable",
			"type": "function"
		},
		{
			"inputs": [],
			"name": "fundDistribution",
			"outputs": [
				{
					"internalType": "uint256",
					"name": "",
					"type": "uint256"
				}
			],
			"stateMutability": "view",
			"type": "function"
		},
		{
			"inputs": [],
			"name": "fundMinSize",
			"outputs": [
				{
					"internalType": "uint256",
					"name": "",
					"type": "uint256"
				}
			],
			"stateMutability": "view",
			"type": "function"
		},
		{
			"inputs": [],
			"name": "funds",
			"outputs": [
				{
					"internalType": "contract Community",
					"name": "",
					"type": "address"
				}
			],
			"stateMutability": "view",
			"type": "function"
		},
		{
			"inputs": [
				{
					"internalType": "address",
					"name": "",
					"type": "address"
				}
			],
			"name": "isMinter",
			"outputs": [
				{
					"internalType": "bool",
					"name": "",
					"type": "bool"
				}
			],
			"stateMutability": "view",
			"type": "function"
		},
		{
			"inputs": [
				{
					"internalType": "address",
					"name": "",
					"type": "address"
				}
			],
			"name": "isMover",
			"outputs": [
				{
					"internalType": "bool",
					"name": "",
					"type": "bool"
				}
			],
			"stateMutability": "view",
			"type": "function"
		},
		{
			"inputs": [
				{
					"internalType": "address",
					"name": "account",
					"type": "address"
				},
				{
					"internalType": "uint256",
					"name": "value",
					"type": "uint256"
				}
			],
			"name": "mint",
			"outputs": [],
			"stateMutability": "nonpayable",
			"type": "function"
		},
		{
			"inputs": [
				{
					"internalType": "address",
					"name": "",
					"type": "address"
				}
			],
			"name": "minterActivation",
			"outputs": [
				{
					"internalType": "uint256",
					"name": "",
					"type": "uint256"
				}
			],
			"stateMutability": "view",
			"type": "function"
		},
		{
			"inputs": [
				{
					"internalType": "address",
					"name": "",
					"type": "address"
				}
			],
			"name": "minterExpiration",
			"outputs": [
				{
					"internalType": "uint256",
					"name": "",
					"type": "uint256"
				}
			],
			"stateMutability": "view",
			"type": "function"
		},
		{
			"inputs": [
				{
					"internalType": "address",
					"name": "",
					"type": "address"
				}
			],
			"name": "moverActivation",
			"outputs": [
				{
					"internalType": "uint256",
					"name": "",
					"type": "uint256"
				}
			],
			"stateMutability": "view",
			"type": "function"
		},
		{
			"inputs": [
				{
					"internalType": "address",
					"name": "",
					"type": "address"
				}
			],
			"name": "moverExpiration",
			"outputs": [
				{
					"internalType": "uint256",
					"name": "",
					"type": "uint256"
				}
			],
			"stateMutability": "view",
			"type": "function"
		},
		{
			"inputs": [],
			"name": "name",
			"outputs": [
				{
					"internalType": "string",
					"name": "",
					"type": "string"
				}
			],
			"stateMutability": "view",
			"type": "function"
		},
		{
			"inputs": [],
			"name": "nextFundCanActivate",
			"outputs": [
				{
					"internalType": "uint256",
					"name": "",
					"type": "uint256"
				}
			],
			"stateMutability": "view",
			"type": "function"
		},
		{
			"inputs": [],
			"name": "nextFundDistribution",
			"outputs": [
				{
					"internalType": "uint256",
					"name": "",
					"type": "uint256"
				}
			],
			"stateMutability": "view",
			"type": "function"
		},
		{
			"inputs": [],
			"name": "nextFundMinSize",
			"outputs": [
				{
					"internalType": "uint256",
					"name": "",
					"type": "uint256"
				}
			],
			"stateMutability": "view",
			"type": "function"
		},
		{
			"inputs": [
				{
					"internalType": "uint256",
					"name": "distribution",
					"type": "uint256"
				},
				{
					"internalType": "uint256",
					"name": "size",
					"type": "uint256"
				},
				{
					"internalType": "address[]",
					"name": "helpers",
					"type": "address[]"
				}
			],
			"name": "proposeFundDistribution",
			"outputs": [],
			"stateMutability": "nonpayable",
			"type": "function"
		},
		{
			"inputs": [
				{
					"internalType": "address",
					"name": "minter",
					"type": "address"
				},
				{
					"internalType": "bool",
					"name": "activate",
					"type": "bool"
				},
				{
					"internalType": "string",
					"name": "message",
					"type": "string"
				},
				{
					"internalType": "address[]",
					"name": "helpers",
					"type": "address[]"
				}
			],
			"name": "proposeMinter",
			"outputs": [],
			"stateMutability": "nonpayable",
			"type": "function"
		},
		{
			"inputs": [],
			"name": "savings",
			"outputs": [
				{
					"internalType": "contract Savings",
					"name": "",
					"type": "address"
				}
			],
			"stateMutability": "view",
			"type": "function"
		},
		{
			"inputs": [],
			"name": "symbol",
			"outputs": [
				{
					"internalType": "string",
					"name": "",
					"type": "string"
				}
			],
			"stateMutability": "view",
			"type": "function"
		},
		{
			"inputs": [],
			"name": "totalLoss",
			"outputs": [
				{
					"internalType": "uint256",
					"name": "",
					"type": "uint256"
				}
			],
			"stateMutability": "view",
			"type": "function"
		},
		{
			"inputs": [],
			"name": "totalProfit",
			"outputs": [
				{
					"internalType": "uint256",
					"name": "",
					"type": "uint256"
				}
			],
			"stateMutability": "view",
			"type": "function"
		},
		{
			"inputs": [],
			"name": "totalSupply",
			"outputs": [
				{
					"internalType": "uint256",
					"name": "",
					"type": "uint256"
				}
			],
			"stateMutability": "view",
			"type": "function"
		},
		{
			"inputs": [
				{
					"internalType": "address",
					"name": "to",
					"type": "address"
				},
				{
					"internalType": "uint256",
					"name": "value",
					"type": "uint256"
				}
			],
			"name": "transfer",
			"outputs": [
				{
					"internalType": "bool",
					"name": "",
					"type": "bool"
				}
			],
			"stateMutability": "nonpayable",
			"type": "function"
		},
		{
			"inputs": [
				{
					"internalType": "address",
					"name": "from",
					"type": "address"
				},
				{
					"internalType": "address",
					"name": "to",
					"type": "address"
				},
				{
					"internalType": "uint256",
					"name": "value",
					"type": "uint256"
				}
			],
			"name": "transferFrom",
			"outputs": [
				{
					"internalType": "bool",
					"name": "",
					"type": "bool"
				}
			],
			"stateMutability": "nonpayable",
			"type": "function"
		},
		{
			"inputs": [
				{
					"internalType": "address",
					"name": "minter",
					"type": "address"
				}
			],
			"name": "verifyMinter",
			"outputs": [],
			"stateMutability": "view",
			"type": "function"
		},
		{
			"inputs": [
				{
					"internalType": "address",
					"name": "minter",
					"type": "address"
				}
			],
			"name": "verifyMinterMover",
			"outputs": [],
			"stateMutability": "view",
			"type": "function"
		},
		{
			"inputs": [
				{
					"internalType": "address",
					"name": "minter",
					"type": "address"
				}
			],
			"name": "verifyMover",
			"outputs": [],
			"stateMutability": "view",
			"type": "function"
		},
		{
			"inputs": [
				{
					"internalType": "address",
					"name": "toCheck",
					"type": "address"
				}
			],
			"name": "verifyOnlyCoin",
			"outputs": [],
			"stateMutability": "view",
			"type": "function"
		},
		{
			"inputs": [],
			"name": "votes",
			"outputs": [
				{
					"internalType": "contract Governance",
					"name": "",
					"type": "address"
				}
			],
			"stateMutability": "view",
			"type": "function"
		}
	]
}